:020000040800F2
:10000000F0350020DD010008FB1800080518000885
:10001000F918000865070008791C000800000000B6
:100020000000000000000000000000004501000882
:10003000670700080000000089010008FD1800089B
:10004000F7010008F7010008F7010008F7010008B0
:10005000F7010008F7010008F7010008F7010008A0
:10006000F7010008F7010008F7010008F701000890
:10007000F7010008F7010008F7010008F701000880
:10008000F7010008F7010008F7010008F701000870
:10009000F7010008F7010008F7010008F701000860
:1000A000F7010008F7010008F7010008F701000850
:1000B000F7010008F7010008F7010008F701000840
:1000C000F7010008F7010008F7010008F701000830
:1000D000F70100086D1C0008F7010008F70100088F
:1000E000F7010008F7010008F7010008F701000810
:1000F000F7010008F7010008F7010008F701000800
:10010000F7010008F7010008F7010008F7010008EF
:10011000F7010008F7010008F70100088919000835
:10012000F7010008F7010008F7010008F7010008CF
:10013000DFF80CD000F004FB00480047ED26000873
:10014000F0350020224B19680868B0E8F00F80F302
:100150000988BFF36F8F4FF0000080F311884EF0D5
:100160000D0E70470000000006480068006880F32C
:10017000088862B661B6BFF34F8FBFF36F8F00DFA1
:1001800000BF00BF08ED00E0EFF30980BFF36F8F01
:100190000F4B1A6820E9F00F106008B54FF05000BF
:1001A00080F31188BFF34F8FBFF36F8F02F038FEDB
:1001B0004FF0000080F31188BDE808401968086816
:1001C000B0E8F00F80F30988BFF36F8F704700BF6E
:1001D00030000020EFF3058070470000064880479C
:1001E00006480047FEE7FEE7FEE7FEE7FEE7FEE71C
:1001F000FEE7FEE7FEE7FEE7871900083101000889
:10020000202A04DB203A21FA02F00021704721FA6B
:1002100002F3D040C2F120029140084319467047D2
:10022000D2B201E000F8012B491EFBD27047002238
:10023000F6E710B513460A4604461946FFF7F0FFE5
:10024000204610BD2DE9FE4F804681EA0300C00F15
:100250000C46009021F0004123F00045B8EB02006D
:10026000A94105D24046214690461C460B4602460F
:1002700023F00040104347D0270DC7F30A00C3F313
:100280000A510290401A019040286BDAC3F3130020
:1002900040F4801B0098924620B10023D2EB030A61
:1002A00063EB0B0B01985946C0F14002504600F039
:1002B000B7F806460D4650465946019A00F0BFF879
:1002C00010EB08006141002487EA115284EAE773C9
:1002D0001A4340D0009A62B3019A012A4FEA0752AA
:1002E00015DC001B61EB02014FF0004202EA0752ED
:1002F000CDE90042001C41F5801132462B4600F04A
:10030000BFF803B0BDE8F08F40462146F9E7001B77
:1003100061EB0201001C41F5801300185B412018BD
:10032000A2F5001747EB030140EAD570B6196D41FD
:1003300011E06D084FEA360645EAC0754FEA0752EC
:10034000001B61EB0201001C41F5801149084FEAD6
:1003500030000019514132462B4603B0BDE8F04F42
:1003600000F07FB80098012240000023D0EB020289
:1003700063EBE073009821464FEAE074B8EB0000AD
:1003800061EB0401E9E783F000435BE781F00041A2
:1003900058E730B50B46014600202022012409E031
:1003A00021FA02F59D4205D303FA02F5491B04FA2E
:1003B00002F52844151EA2F10102F1DC30BD2DE941
:1003C000F05F0546002092469B46884606468146D9
:1003D00040241BE02846414647462246FFF710FFCF
:1003E00053465A46C01A914110D311461846224628
:1003F00000F016F82D1A67EB01084F46224601203F
:10040000002100F00DF817EB00094E41201EA4F169
:100410000104DFDC484631462A464346BDE8F09FEA
:10042000202A04DB203A00FA02F1002070479140B4
:10043000C2F1200320FA03F3194390407047202AA9
:1004400006DBCB17203A41FA02F043EAE07306E0FC
:1004500041FA02F3D040C2F120029140084319460C
:10046000704710B5141E73F1000408DA401C41F106
:10047000000192185B411A4301D120F0010010BD28
:100480002DE9F04D92469B4611B1B1FA81F202E09E
:10049000B0FA80F220329046FFF7C2FF04460F46C2
:1004A00040EA0A0041EA0B0153465A46084313D07A
:1004B000114653EA010019D0C8F140025046FFF737
:1004C0009FFE05460E46504659464246FFF7A8FF96
:1004D000084305D0012004E020463946BDE8F08DF0
:1004E0000020054346EAE0762C4337430A9863052B
:1004F000E40AA0EB08000022FD0A44EA47540A304F
:1005000002D500200146E9E7010510196941DDE93E
:10051000084500196941BDE8F04DA2E72DE9FE4FFD
:1005200081EA030404F0004421F0004100944FF0FC
:10053000000B23F0004350EA01045ED052EA0304AA
:100540005BD0C3F30A54C1F30A552C44A4F2F3342C
:100550000194A0FB0254C1F3130141F48011C3F3D1
:10056000130343F4801301FB024400FB034E840A8F
:10057000970A44EA815447EA8357A4FB0768029527
:100580008D0A05FB07854FEA932C04FB0C542705C5
:10059000029D4FEA065847EA1637B5EB08056EEBA1
:1005A000070C870E920E47EA811742EA8312A7FBD7
:1005B0000201B6EB0B0164EB00042B0D43EA0C3394
:1005C0005E1844EB1C50DA465146E7FB0201C5F3C6
:1005D00013044FEA0B3343EA14534FEA0432019CED
:1005E00043EA0603A4F10C040294009CCDE900B494
:1005F000FFF746FF03B0BDE8F08F00200146F9E7A2
:100600002DE9F04D81EA030404F0004B21F0004590
:1006100014464FF0000A23F0004150EA050220D0B2
:1006200054EA01021DD0C5F30A570246C5F313036D
:10063000C1F31300C1F30A5640F4801543F480134C
:10064000A7EB0608101BD64608F2FD3873EB050031
:1006500002D308F1010801E092185B41B8F1000FE4
:1006600003DA00200146BDE8F08D00204FF4801130
:10067000064684460EE0171B73EB050705D3121BD5
:1006800063EB050306434CEA010C49084FEA3000CE
:1006900092185B4150EA0107EDD152EA030012D0F3
:1006A00082EA040083EA0501084305D0101BAB4130
:1006B00006D20122002306E000224FF0004302E0B0
:1006C0006FF0010253101AEB06004CEB085110EBCF
:1006D0000A0041EB0B01BDE8F04DFFF7C2BEC1F3CC
:1006E0000A52C1F3130140F2FF3341F480119A42E0
:1006F00002DA00200146704740F233439A42A2F2E8
:10070000334202DC5242FFF77BBDFFF789BE000097
:1007100030B5041E71F1000404DB4FF00044404288
:1007200064EB0101141E73F1000405DB1C464FF05D
:100730000043524263EB0403994208BF904230BD2C
:10074000064C074D06E0E06840F0010394E807001E
:1007500098471034AC42F6D3FFF7EEFC5C3100084A
:100760007C310008FEE7704772B6FEE710B590F8DE
:1007700021100022022905D00421816380F8202065
:10078000012010BD01680B6823F00E030B600168A7
:100790000B6823F001030B6090F84030C46B01211B
:1007A00001FA03F3636080F8211080F820201046DE
:1007B00010BD00002DE9F05F90F8211000240229FF
:1007C00003D004218163012485E001680A6822F0D6
:1007D0000E020A6001680A6822F001020A603F4EB8
:1007E0003E4FB215DFF8F4C0DFF8F090DFF8ECA070
:1007F000DFF8E8B0DFF8E4E00168783F13011502A4
:10080000ACF1640CA9F15009AAF13C0AABF1280B38
:10081000AEF1140E4FF48018B14227D9B9420ED070
:10082000614512D049451DD0514518D0594518D0C1
:10083000714501D1424615E0294EB14201D1012254
:1008400010E0274E1436B14201D110220AE0244EA6
:100850002836B14206D0224A3C32914201D11A4692
:1008600000E02A461E49091F0A602BE0B94213D056
:10087000614517D0494522D051451DD059451DD05D
:10088000714501D142461AE0B14202D14FF0807267
:1008900015E0134EB14201D1012210E0104E143682
:1008A000B14201D110220AE00D4E2836B14206D0E5
:1008B0000B4A3C32914201D11A4600E02A460749D0
:1008C00080394A60012180F82110002180F8201031
:1008D000416B01B188472046BDE8F09F800002408F
:1008E000080402402DE9F84FDFF8C891002409F10F
:1008F000040A0AF1040B23460F270BF1040ED1E082
:100900000125A54006EA0502AA4276D1DFF8A8C172
:100910004E68A6EB0C0866452BD00DDC032E34D0B8
:1009200005DC36B3012E19D0022E2FD11BE0112E7B
:1009300016D0122E2AD119E0B8F5881F19D006DC7E
:10094000B8F5803F15D0B8F5801F1FD111E0B8F57C
:10095000001F0ED0B8F5041F18D10AE0CB6815E0CF
:10096000CB681B1D12E0CB6808330FE0CB680C335B
:100970000CE08B682BB1012B4FF0080303D04561CD
:1009800004E0042302E0056100E00023FF2A01D80F
:10099000064601E000F104064FEA840501D9A5F1FD
:1009A0002005D6F8008007FA05FC28EA0C0803FAAF
:1009B00005F548EA0508C6F800804D68ED0070D5D9
:1009C0003E4DAE6946F00106AE61AD6924F0030606
:1009D00005F0010500953A4D06EB050CDCF80850D2
:1009E000A607360F07FA06F825EA0805DFF8D480CF
:1009F000404503D14FF0000825E052E0DFF8C88001
:100A0000404502D14FF001081DE0DFF8C0804045AD
:100A100002D14FF0020816E0DFF8B480404502D161
:100A20004FF003080FE0DFF8AC80404502D14FF0F3
:100A3000040808E0DFF8A080404502D14FF0050827
:100A400001E04FF0060808FA06F848EA0508CCF875
:100A500008804D68D9F80060ED034D4601D5164376
:100A600000E096432E604D68DAF80060AD0355460D
:100A700001D5164300E096432E604D68DBF8006018
:100A8000ED025D4601D5164300E096432E604D68A9
:100A9000DEF80060AD02754601D5164300E09643CE
:100AA0002E60641C0A681646E2407FF429AFBDE858
:100AB000F88F0000000401400000111000100240F7
:100AC0000000014000080140000C014000100140FE
:100AD0000014014000180140001C0140C26821EAD6
:100AE00002030A4043EA0241016170470AB1016111
:100AF00070470904FBE70000014880687047000068
:100B0000200000200248816802781144816070470B
:100B100020000020074810B5016841F01001016075
:100B2000032000F08FF8002000F006F800F03EF8F7
:100B3000002010BD0020024000B5014687B0002211
:100B4000372000F05FF8372000F04EF81348C169F5
:100B500041F02001C161C06905A900F020000690A4
:100B6000684600F017F900F035F90D494000B0FB78
:100B7000F1F10D480B4A491E0260416040F2E73234
:100B80000021C0E90321816000F00CFB10B10120BD
:100B900007B000BD044800F033FBF9E70010024045
:100BA00040420F0000140040E00000200C4808B54F
:100BB000816941F001018161816901F001010091C8
:100BC000C16941F08051C161C06900F0805000905E
:100BD0000448416821F0E06141F08071416008BD46
:100BE0000010024000000140002809DB00F01F0255
:100BF000012191404009800000F1E020C0F800117F
:100C000070470000F0B40E4B1B680C46C3F3022380
:100C1000C3F10705042D00D90425191D072901D2A8
:100C2000002300E0DB1E012606FA05F1491E2140E3
:100C300099409E40761E16403143F0BC01F02EB81C
:100C40000CED00E0064900F0070208684FF6FF03CC
:100C5000184040EA0220034A104308607047000031
:100C60000CED00E00000FA052DE9F0470F46050005
:100C700061D0434E306800F00700B84209D23068B6
:100C800020F0070038433060306800F00700B842B9
:100C900051D128683B4C810712D5400703D56068C5
:100CA00040F4E06060602878000703D5606840F495
:100CB000605060606068A96820F0F00008436060E0
:100CC0002878C00728D06868012810D02168022839
:100CD00010D0890700292EDA616821F00301014351
:100CE0006160FFF709FF804641F288390DE0216815
:100CF0008903EFE78901EDE7FFF7FEFEA0EB0801AE
:100D0000494502D90320BDE8F0876068696800F0B2
:100D10000C00B0EB810FEFD1306800F00700B84253
:100D20000BD9306820F0070038433060306800F09D
:100D30000700B84201D00120E5E72878400705D533
:100D40006068E96820F4E060084360602878000784
:100D500006D56068296920F4605040EAC1006060EF
:100D600000F058F86168084AC1F30311515CC840AB
:100D70000649086006480068FFF7DEFE0020C2E76B
:100D80000020024000100240443100082C000020E6
:100D9000240000200F2202600C4A536803F0030372
:100DA0004360536803F0F0038360536803F4E06327
:100DB000C36052684FF4E06303EAD2020261044860
:100DC000006800F007000860704700000010024053
:100DD000002002400448054900684968044AC1F3FC
:100DE0000221515CC84070472C00002000100240D6
:100DF000543100080448054900684968044AC1F3B1
:100E0000C221515CC84070472C00002000100240F5
:100E10005431000812A185B00FC98DE80F0014A04D
:100E2000144A006804905168134801F00C03042B25
:100E300010D0082B0ED1C1F38343C9031DF8030062
:100E40000AD5516804AAC1F34041515C0A4A504393
:100E5000B0FBF1F005B0704708494843FAE70000DD
:100E600002030405060708090A0B0C0D0E0F1010EB
:100E7000010200000010024000127A0000093D004B
:100E80002DE9F84F040070D02078C04DC00749D03C
:100E90006868C0F38100012807D06868C0F381004A
:100EA000022809D16868C00306D52868800339D5AF
:100EB00060680028E7D035E06068B0F5803F0BD06F
:100EC00010B1B0F5A02F11D0286820F48030286030
:100ED000286820F4802002E0286840F480302860F0
:100EE000606890B1FFF708FE06460AE0286840F403
:100EF00080202860F0E700BFFFF7FEFD801B64281C
:100F000073D828688003F7D50CE0FFF7F5FD064697
:100F100005E000BFFFF7F0FD801B6428F0D82868CB
:100F20008003F7D420789A4E80074FF001094FF0E4
:100F3000000839D5686810F00C0F07D06868C0F356
:100F40008100022809D16868C00306D42868800798
:100F500014D52069012808D110E02069B0B1C6F885
:100F60000090FFF7C9FD074605E00AE1FFF7C4FD61
:100F7000C01B0228C4D828688007F7D52868616993
:100F800020F0F80040EAC10028600DE0C6F80080BB
:100F9000FFF7B2FD074604E0FFF7AEFDC01B0228D5
:100FA00023D828688007F7D4207800072CD5794803
:100FB000A169D9B1C0F80090FFF79EFD074604E093
:100FC000FFF79AFDC01B02280FD8686A8007F7D583
:100FD00071484FF4FA510068B0FBF1F0009000BF87
:100FE0000098411E0091FAD20EE080E0C0F8008027
:100FF000FFF782FD074604E0FFF77EFDC01B0228D5
:1010000075D8686A8007F7D42078400760D5E8690A
:101010000027C00008D4E86940F08050E861E86922
:10102000012700F0805000905C480168C90513D486
:101030000168834641F480710160FFF75DFD8246DF
:1010400006E000BFFFF758FDA0EB0A0064284ED869
:10105000DBF80000C005F5D5E06801280AD008B12A
:10106000052813D0286A20F001002862286A20F0A1
:10107000040002E0286A40F001002862E06841F2C2
:10108000883B98B1FFF738FD82460BE0286A40F0B4
:1010900004002862EEE700BFFFF72EFDA0EB0A0177
:1010A00059455AD8286A8007F6D50CE0FFF724FD89
:1010B000824605E0FFF720FDA0EB0A0159454CD818
:1010C000286A8007F6D41FB1E86920F08050E861F3
:1010D000E06988B36968C1F38101022944D002281C
:1010E000C6F8608004D0FFF707FD044638E034E01E
:1010F000FFF702FD074604E0FFF7FEFCC01B0228D5
:101100002BD828688001F7D4206AB0F5803F05D13C
:101110006868A16820F4003008436860D4E90801D9
:101120000843696821F4741108436860C6F8609048
:10113000FFF7E2FC044606E025E000BFFFF7DCFC19
:10114000001B022809D828688001F7D51BE000BFE2
:10115000FFF7D2FC001B022802D90320BDE8F88F5C
:1011600028688001F4D40EE00128F7D06868226A6C
:1011700000F48031914204D1616A00F47010884219
:1011800001D00120EAE70020E8E70000001002405B
:1011900000004242800442422C00002000700040C7
:1011A0007047704710B5040003D094F83D0010B1AB
:1011B00007E0012010BD002084F83C00204600F02C
:1011C0001EF8022084F83D00211D206800F0E2FB9B
:1011D000012084F8460084F83E0084F83F0084F83B
:1011E000400084F8410084F8420084F8430084F809
:1011F000440084F8450084F83D00002010BD70478D
:1012000090F83D10012901D001207047022180F89B
:101210003D100168CA6842F00102CA6000680E49C8
:1012200088420ED00D4988420BD0B0F1804F08D0D3
:101230000B49884205D00B49884202D00A498842AE
:1012400004D1816801F00701062903D0016841F04B
:101250000101016000207047002C01400034014072
:101260000004004000080040000C0040704770B5CA
:101270000446006801694FF00005C943890715D489
:10128000C168C943890711D4E91E01610120207793
:10129000206880698007204602D0FFF7E7FF04E05E
:1012A00000F098F8204600F096F82577206801694C
:1012B000C943490717D4C168C943490713D46FF01C
:1012C00004010161022020772068806910F4407FCA
:1012D000204602D0FFF7CAFF04E000F07BF820466A
:1012E00000F079F8257720680169C943090716D409
:1012F000C168C943090712D46FF0080101610420D5
:1013000020772068C0698007204602D0FFF7AEFF33
:1013100004E000F05FF8204600F05DF825772068D3
:101320000169C943C90617D4C168C943C90613D4A2
:101330006FF010010161082020772068C06910F467
:10134000407F204602D0FFF791FF04E000F042F812
:10135000204600F040F8257720680169C943C90795
:1013600008D1C168C943C90704D1891E016120465B
:1013700000F032F820680169C943090609D4C16840
:10138000C943090605D46FF0800101612046FFF7CB
:1013900007FF20680169C943490609D4C168C943E8
:1013A000490605D46FF040010161204600F01EF8A7
:1013B00020680169C94389060BD4C168C9438906FD
:1013C00007D46FF0200101612046BDE87040FFF7AF
:1013D000E8BE70BD7047704700680349884201D17C
:1013E000FFF790BB70470000001400407047704743
:1013F00070470000F8B5026804461068D168536968
:1014000010F00F0F4FF0000553D003F0010601F468
:10141000907737435FD0C20705D0CA0503D5226C49
:1014200042F001022264420705D5DA0703D0226C9C
:1014300042F002022264820705D5DA0703D0226C4B
:1014400042F004022264020707D501F02002324371
:1014500003D0226C42F008022264226C002A34D0AD
:10146000800604D5880602D5204600F0F9FA2068E7
:101470004069216CC0F38010090700D430B32046C6
:1014800000F0D6FA2068416949061BD5416921F070
:1014900040014161A06BA8B158494163A06BFFF7BF
:1014A00089F9002811D0A06B416B01B0BDE8F04074
:1014B000084783060FD58B060DD52046BDE8F840BA
:1014C00000F0CEBA2046FFF793FFF8BD2046FFF7A5
:1014D0008FFF2564F8BD266B2023012E52D1C6064E
:1014E00050D5CE064ED51068506800905069400621
:1014F0002AD5A16B086840680004000CEAD0A68DCC
:101500008642E7D9E0858869202818D0D06820F481
:101510008070D0602068416921F00101416120683C
:10152000416921F04001416184F83E302563206823
:10153000C16821F01001C160A06BFFF717F9A08D01
:10154000E18D401A81B219E0A08DE18D401A81B27F
:10155000E08D0028BED00029BCD0D06820F4907067
:10156000D0602068426922F00102426184F83E3076
:1015700025632068C26822F01002C2602046FFF78F
:1015800036FFF8BD05062BD50D0629D594F83D008C
:101590002128F6D1A068B0F5805F01D12069B0B1F3
:1015A000206A411C2162216800784860E08C401E5E
:1015B0000004000CE084E4D12068C16821F08001BF
:1015C000C1602068C16841F04001C160F8BD206A77
:1015D0000088C0F308005060206A801C2062E5E7A4
:1015E0004006F3D54806F1D5D168204621F04001E8
:1015F000D16084F83D3000F004F9F8BD211A0008EC
:1016000070B5040004D094F83D00002510B106E048
:10161000012070BD84F83C50204600F023F82420BF
:1016200084F83D002068C16821F40051C160204663
:1016300000F072FA2068016921F49041016120688C
:10164000416921F02A0141612068C16841F40051DB
:10165000C1602564202084F83D0084F83E0000200D
:1016600070BD000030B585B0002400940194029450
:1016700003940068184988422CD11848816941F4C4
:1016800080418161816901F480410491816941F067
:10169000040181618069124D00F0040004904FF450
:1016A00000700090022001900320039069462846B4
:1016B000FFF718F92815CDE9000469462846029479
:1016C000FFF710F9002207212520FFF79BFA2520BC
:1016D000FFF78AFA05B030BD003801400010024023
:1016E0000008014090F83E30202B0ED159B152B184
:1016F00090F83C30012B08D0012380F83C300023C7
:10170000036300F065BA01207047022070470000B3
:1017100010B500680B49884213D14FF47A73012247
:1017200009490A4800F014F8084800680168C943EC
:101730004906FBD4BDE81040012203490348FFF7E6
:10174000D1BF10BD00380140180000209C000020CF
:101750002DE9F843044690F83D001F4616460D4615
:1017600020284CD1C5B1BEB194F83C00012846D028
:10177000012084F83C004FF00008C4F8408021208C
:1017800084F83D00FFF7B8F9A6848146E684A06896
:10179000B0F5805F03D004E00120BDE8F883206944
:1017A00028B12E465FF0000584F83C800EE000264C
:1017B000FAE78021204600F026FAA0B9AEB116F86B
:1017C000010B21684860E08C401EE084E08C4B46B1
:1017D0004FF0000200970028EBD14FF04001204667
:1017E00000F011FA30B10320D7E735F8020BC0F34F
:1017F0000800E6E7202084F83D000020CDE7022025
:10180000CBE77047FEE700002DE9F04186B00025E8
:1018100027480095019502950395816941F04001A3
:101820008161816901F040010491816941F0040105
:101830008161816901F004010491816941F008012D
:10184000816180691B4F00F0080004900122202173
:101850003846FFF74BF9DFF860800122202140462F
:10186000FFF744F91C20CDE90005012469460294E4
:101870003846FFF737F82026CDE900640294694620
:1018800038460394FFF72EF802200094CDE901506A
:1018900069460A48FFF726F8CDE9006402946946D4
:1018A00040460394FFF71EF806B0BDE8F081000043
:1018B0000010024000180140000C014000080140E7
:1018C0000C4810B50A4901604FF4E1314160002134
:1018D00081600C22C160C0E904128161C161FFF71F
:1018E0008FFE002803D0BDE81040FEF73DBF10BDBD
:1018F000003801409C000020FEE7FEE710B55020B4
:1019000080F31188BFF34F8FBFF36F8F01F0FCFAA4
:1019100018B104494FF080500860002080F311880E
:1019200010BD000004ED00E030B58FB028216846FE
:10193000FEF77DFC14210AA8FEF779FC01210804BA
:10194000CDE900100024029402250491CDE907504E
:101950004FF4E01009906846FFF792FA08B172B6AA
:10196000FEE70F20CDE90A054FF48060CDE90C4079
:1019700002210AA80E94FFF777F9002801D072B669
:10198000FEE70FB030BD70470148FFF770BC0000A4
:10199000E0000020F0B502681C4B1D4D1D4E1E4F8F
:1019A0001E4C4FF0804C984209D0A04207D06045B1
:1019B00005D0A84203D0B04201D0B84204D122F0F1
:1019C000700E4A6842EA0E02984209D0A04207D03F
:1019D000604505D0A84203D0B04201D0B84203D13F
:1019E00022F44075CA682A434D6922F080022A43D6
:1019F00002608A68C2620A688262984201D0A0428C
:101A000001D10969016301214161F0BD002C014050
:101A10000004004000080040000C00400034014079
:101A200010B5406A0021C185C184FFF7E1FC10BDFB
:101A30000168CA6822F49072CA6001684A6922F09B
:101A400001024A61016B012904D10168CA6822F0D0
:101A50001002CA60202180F83E1000210163704707
:101A600008B590F83E10222901D0022008BD8268F6
:101A70004FF480539A4201D1016921B1816A9A429F
:101A80001BD04AB10AE00268816A5268C2F30802B8
:101A90000A80816A891C08E0026972B10268526892
:101AA00002F07F020A70816A491C8162C18D491E61
:101AB0000904090CC18503D019E002685268F1E7F6
:101AC0000168CA6822F02002CA600168CA6822F46C
:101AD0008072CA6001684A6922F001024A612021CD
:101AE00080F83E10016B012903D0FFF711FE0020A2
:101AF00008BD002101630168CA6822F01002CA60B3
:101B000001680A68D20602D50A6849680091818D89
:101B1000FFF76DFCEBE7000070B504460068016953
:101B2000E26821F44051114301612169A068084332
:101B3000616908432168CA6841F20C639A43024311
:101B4000CA6020684169A26921F440711143416172
:101B50001E492068884202D1FFF74CF901E0FFF7E7
:101B600039F900EBC00101EB0012606864218000CC
:101B7000B2FBF0F3B3FBF1F36FF018067343B2FB63
:101B8000F0F5B2FBF0F605EB8305322303EB051508
:101B9000B5FBF1F5B6FBF1F605F0F00505EB061522
:101BA000B2FBF0F6B2FBF0F0B0FBF1F06FF0180210
:101BB000504306EB800003EB0010B0FBF1F021680E
:101BC00000F00F002844886070BD0000003801401C
:101BD00081628285C28500210164222280F83E2034
:101BE00080F83C100168CA6842F48072CA600168DB
:101BF0004A6942F001024A610068C16841F020016F
:101C0000C160002070472DE9F041984617460E4606
:101C10000446069D1DE0681C1BD02DB1FEF76CFF2D
:101C2000A0EB0800A84214D92068C16821F4D07143
:101C3000C1602068416921F001014161202084F8E0
:101C40003D0084F83E00002084F83C000320BDE8FD
:101C5000F0812068006836EA000004D00020B84215
:101C6000D9D00020F3E70120F9E700000148FFF791
:101C7000C1BB00009C000020FEE700000FB4054B34
:101C800010B503A9044A029800F0EAF810BC5DF808
:101C900014FB00008D2600081C0000200907090E17
:101CA000002804DB00F1E02080F80014704700F009
:101CB0000F0000F1E02080F8141D704702E008C812
:101CC000121F08C1002AFAD170477047002001E0B6
:101CD00001C1121F002AFBD1704700002DE9FF5FF0
:101CE00082B00021DDE90430020DDDF840B003438D
:101CF00018D044F61050A2F2FF3242431514119846
:101D000001281FD0A5EB0B00401C5FEA000A4FF032
:101D100000064E4FDFF83891B046504615D5CAF14F
:101D2000000413E0119801244AA3012801D16FEAAD
:101D30000B010298119AC0E90031C0E9024206B0D5
:101D4000BDE8F09FCBF10000DFE704460021404AE8
:101D5000491842EB0450CDE9001012E0E00707D02B
:101D600032463B4640464946FEF7D8FB8046894608
:101D700032463B4610461946FEF7D0FB06460F4654
:101D80006410002CEAD1DDE90401DDE90023BAF199
:101D9000000F06DAFEF7C2FB42464B46FEF7BEFBDB
:101DA00005E0FEF72DFC42464B46FEF729FC0446B3
:101DB0000E460022284BFEF7ABFC03D84FF0FF3055
:101DC000014607E00022254B20463146FEF73AFA4D
:101DD000FEF785FC102409E0002C0ADB0A22002310
:101DE000FEF7EDFA039B30321A55641E50EA0102E9
:101DF000F2D1641C039AC4F111031444119A012A0C
:101E000003D0012208430DD10AE0084304D000208A
:101E10004FF0110B119072E7A3EB0B056D1E0DE057
:101E20005B4504DD4FF0000205F1010504E003DA33
:101E30004FF00002A5F10105002AECD0029811999B
:101E4000C0E90231C0E9004579E700000000144014
:101E50000000F03F300000000000F0430000E03FD1
:101E60002DE9FF4F95B09B468946064600250FE2B7
:101E7000252877D100242746F84A0121059400E05F
:101E8000044316F8013F203B01FA03F01042F7D15A
:101E900030782A2811D06FF02F033078A0F130026B
:101EA000092A16D8059A44F0020402EB820203EBD9
:101EB00042021044761C0590EFE759F8042B059276
:101EC000002A03DA504244F40054059044F002041E
:101ED000761C30782E2816D116F8010F44F0040431
:101EE0002A280DD06FF02F023078A0F13003092B93
:101EF00009D807EB870302EB4303C718761CF3E707
:101F000059F8047B761C30786C280FD006DC4C28FE
:101F100017D068280DD06A2814D104E0742810D096
:101F20007A280FD10DE044F400140AE044F4801440
:101F300001E044F440147278824202D104F5801426
:101F4000761C761C307866280BD013DC582877D0A6
:101F500009DC002875D04528F6D04628F4D047285B
:101F60001AD19DE118E0632835D0642879D065281E
:101F700012D195E1702873D008DC6728F1D0692868
:101F80006FD06E280DD06F2806D1B5E073282CD005
:101F9000752875D0782874D05A46179990476D1CCB
:101FA00075E1C4F30250022809D003280DD0D9F8F6
:101FB000001004280DD00D6009F1040967E1D9F87B
:101FC0000010EA17C1E90052F6E7D9F800100D80B9
:101FD000F2E70D70F0E719F8041B8DF800100020EF
:101FE0008DF80100EA46012003E059F804AB4FF0F8
:101FF000FF3061074FF0000102D40DE008F101014C
:102000008846B9420FDA8045F8DB1AF80810002933
:10201000F4D108E008F1010188468142FADB1AF8A0
:1020200008100029F6D105985B46A0EB0807214669
:102030003846179A00F094FA284400EB080507E0A8
:102040004DE029E10DE01AF8010B5A461799904727
:10205000B8F10108F7D25B4621463846179A13E1DA
:1020600042E00A220092C4F302524FF0000A022A10
:1020700008D059F804CB032A4FEAEC710AD00DE0DE
:1020800029E02AE009F1070121F00702F2E802C184
:10209000914609E00FFA8CFC4FEAEC71042A03D157
:1020A0004FFA8CFC4FEAEC71002907DA0A4600214E
:1020B000DCF1000C61EB02012D2202E0220504D5C7
:1020C0002B228DF80420012203E0E20701D0202218
:1020D000F7E7904659E00A2102E010220DE01021B6
:1020E0004FF0000A00910BE010224FF0000A44F07C
:1020F00004040827009203E008224FF0000A00922F
:10210000C4F30252022A05D059F804CB0021032A55
:1021100008D009E009F1070121F00702F2E802C145
:10212000914605E01FFA8CFC042A01D10CF0FF0C4B
:102130004FF00008220728D5702806D0009B83F0B6
:10214000100353EA0A0305D00EE040228DF8042064
:10215000012208E05CEA010206D030228DF804205A
:102160008DF8050002229046009B83F0080353EA95
:102170000A030AD15CEA010201D1620705D53022C7
:102180008DF804204FF001087F1E582804D034A099
:1021900003900EA802900DE036A0F9E75346604682
:1021A000009AFEF70CF984460398825C0298401E60
:1021B000029002705CEA0100F0D1029806A9081AA8
:1021C00000F1200A600702D524F4803400E00127E2
:1021D000574502DDA7EB0A0000E0002000EB0A01F2
:1021E000009005984144401A0590E00306D45B46F0
:1021F0002146179A059800F0B3F90544002706E038
:1022000001A85A46C05D179990476D1C7F1C474531
:10221000F6DBE0030CD55B462146179A059800F0E3
:102220009FF9054404E030205A46179990476D1CE9
:102230000099481E00900029F5DC08E002980299F8
:102240005A460078491C0291179990476D1CBAF1C3
:102250000001AAF1010AF1DC65E100000928010092
:10226000303132333435363738396162636465660C
:1022700000000000303132333435363738394142CE
:10228000434445460000000000F058F90544761C20
:10229000307800287FF4ECAD19B02846BDE8F08F07
:1022A000620700D4062709F1070222F0070CFCE8B8
:1022B0000223E14603F000485FEA080C02D00FF267
:1022C000702C0DE05FEA045C02D50FF2682C07E089
:1022D0005FEAC47C02D00FF2602C01E0AFF2700C18
:1022E0004FF0FF3823F00043CDF850C065280CD0E4
:1022F00006DC452809D046281DD047283DD13DE0C1
:10230000662818D067287ED138E00021112F01DB24
:10231000112000E0781CCDE9000106A90EA8FFF706
:10232000DDFCDDE90F010E9A03910021009207F117
:10233000010A04914DE04FF000400097CDE90110F3
:1023400006A90EA8FFF7CAFCDDE90F0203920E9B57
:1023500011990022DDF80CA00093049211B9791CA8
:1023600000EB010AB7EB0A0004D4C0F1FF3007F11B
:10237000010A0490AAEB0700019044E0012F00DA63
:1023800001270021112F01DD112000E03846CDE9A1
:10239000000106A90EA8FFF7A1FCDDE90F010E9AC6
:1023A0000391002104910092BA4621070CD40399AD
:1023B000514500DA8A46BAF1010F05DD009AAAF10B
:1023C0000101515C302908D0B84202DA10F1040F43
:1023D00006DA0121CDE9011015E0AAF10101E9E7D2
:1023E000002805DC049901440491AAEB000102E0F5
:1023F000411C514500DD8A460499401A401C019059
:102400004FF000400290200704D40198504501DBB2
:10241000CDF8048000208DF84F0002980DF14F0791
:10242000B0F1004F25D02B200E9002984FF00208FB
:1024300000280CDA404202902D200E9007E00A217D
:102440000298FDF7A6FF3031029007F8011DB8F1A0
:102450000001A8F10108F2DC02980028EFD1791EF2
:102460000E980870307800F0200040F0450007F822
:10247000020D12A8C01B00F107081498007800B1E3
:10248000012000EB0A01019801EBE071059841443D
:10249000401A401E0590E00306D45B462146179A79
:1024A000059800F05DF805441498007818B15A4674
:1024B000179990476D1CE00324D55B462146179A77
:1024C000059800F04DF805441CE00498002807DB4F
:1024D000DDE90301884203DD0098405C179901E0C3
:1024E000179930205A469047049805F10105401C81
:1024F00004900198401E019004D12E205A4617994D
:1025000090476D1CBAF10001AAF1010ADDDC05E07B
:1025100017F8010B5A46179990476D1CB8F1000146
:10252000A8F10108F4DC5B462146179A0598ABE652
:102530002D0000002B000000200000002DE9F041DC
:10254000044600251E461746880404D405E0394693
:102550002020B0476D1C641EF9D52846BDE8F081E7
:102560002DE9F041044600251E469046C80301D5DA
:10257000302700E02027880404D505E0414638468E
:10258000B0476D1C641EF9D52846BDE8F0810000F7
:102590000C480E4A01680C48B1FBF0F3B1FBF0F1B6
:1025A000536001234FF47A7041434FF0E0201380D1
:1025B000026942F0020202614161016941F00101D8
:1025C000016170472C00002040420F009400002061
:1025D00070B5044600F08AFC01280CD0094D28880B
:1025E000844203D3B4FBF0F000F084FB2888B4FBF2
:1025F000F0F100FB11444FF47A706043BDE8704085
:1026000000F002B89400002070B54FF0E0240022E2
:1026100065690949A36949684843A1699942FCD0A1
:1026200002D2A3EB010302E0A5EB010633441A44F6
:102630000B468242F1D370BD940000200A4D0B4E30
:102640000B4C4FF47A772A46D4E904013346FDF760
:10265000F9FDC4E9040102460B4606A0FFF70EFB94
:102660003846FFF7B5FFEEE77B14AE47E17A843FCB
:1026700000000020666C6F61745F6E756DB5C4D626
:10268000B5CEAA3A20252E34660D0A0004490A6800
:102690005206FCD5024AC1B2121D116070470000FB
:1026A00000380140054C4FF4FA7520212046FEF712
:1026B00015FA2846FFF78CFFF7E7000000180140E5
:1026C000094C4FF44875002220212046FEF70EFAEF
:1026D000C820FFF77DFF012220212046FEF706FAE1
:1026E0002846FFF775FFEEE7000C01401CB5FEF72A
:1026F00011FAFFF719F9FFF787F8FFF7E1F8FFF78D
:1027000047FF012208490948FEF7ECFF084901206C
:10271000CDE900010023802206A1094800F0BAFBA0
:1027200000F04EFB00201CBD180000209C00002083
:102730000000002073746172745F7461736B000039
:10274000452B00082DE9F0411E4C0F460546E66872
:102750002068001D00F03CFA38B9206890F82C1071
:1027600001208840216981432161681C15D1A7B1EE
:10277000154922684868906023688268DA60226898
:102780008368121D5A602268121D826020684161B0
:102790000868401C0860BDE8F08120683544B542F7
:1027A0004560216805D2E06BBDE8F041091D00F0ED
:1027B00030BAA06B091D00F02CFAA06A8542EAD25B
:1027C000A562E8E730000020DC0100202DE9F0419F
:1027D000054600F043FA364CA068401CA060206813
:1027E000344F10B1606940B32DE02560A068012826
:1027F00029D1002606EB860007EB800000F0FBF9EC
:10280000761C052EF6D32B48643000F0F4F92948E5
:10281000783000F0F0F927488C3000F0ECF92548CA
:10282000A03000F0E8F92348B43000F0E4F9214882
:102830006430A0631430E06305E02068E96AC06A90
:10284000884200D82560606A0121401C6062E86A05
:10285000226981401143216100EB800007EB800079
:102860004068A8608168E9608268291D51608160C4
:10287000E86A00EB800007EB8001696157F82010DF
:10288000491C47F8201000F0F7F9606900280CD0C7
:102890002068E96AC06A884207D207494FF0805031
:1028A0000860BFF34F8FBFF36F8FBDE8F08100006A
:1028B000300000202801002004ED00E010B504469F
:1028C000006B00F0E3F92046BDE8104000F0DEB9EF
:1028D00010484FF44051420706D0C01D0D4920F06A
:1028E0000700411AC1F540510B4A00230144C2E9D7
:1028F00000030839183A21F0070111604B600B60A2
:102900000B1AC0E9001393604FF000405360506110
:1029100070470000F00100208C000020144E154C80
:10292000A6F1A0074FF08058DFF84C9012E000BFEE
:1029300000F094F9F068C568281D00F049F9A06816
:10294000401EA0606068401E606000F095F9284657
:10295000FFF7B4FF60680028EAD138680128F9D988
:10296000C9F80080BFF34F8FBFF36F8FF2E700000D
:10297000C80100203000002004ED00E02DE9F04700
:102980009A46DDE9097481466FF00303206B03EB7F
:102990008202089E104420F00708002561B1002043
:1029A00023180A5C83F834200A5C12B1401C1028FA
:1029B000F6D384F8435001E084F83450052E00D358
:1029C0000426201DE66200F021F904F1180000F051
:1029D0001DF92461C6F105006462A061656484F894
:1029E000485052464946404600F09AF82060002F71
:1029F00000D03C60BDE8F08730B5114900E01146D9
:102A00000A688242FBD34B685C18844203D1406859
:102A100018444860084643681C18944209D1084C81
:102A2000183C2468A24209D052681A4442600A68DD
:102A300012680260814200D0086030BD0460F9E78E
:102A40008C0000200548816B096821B1816BC96841
:102A50000968816270474FF0FF31FAE730000020CB
:102A6000502080F31188BFF34F8FBFF36F8FFEE7C5
:102A70002DE9F0410546002700F0CAF9274E3068DD
:102A800008B9FFF725FF7069054241D1F5B305F19B
:102A90000804AC423CD9600707D004F00700C0F13D
:102AA00008002044A04233D904467CB370688442B5
:102AB0002ED81A48183001460D6801E028460D4608
:102AC0006968A14202D229680029F7D131688D4294
:102AD0001ED007682968016068680837011B102943
:102AE00004D9281941606C60FFF786FF6968706837
:102AF000401A7060B268904200D2B06070690143C1
:102B00000020C5E90001F068401C00E000E0F06032
:102B100000F08CFA3846BDE8F08100007400002017
:102B200010B5031F4FF080741C601B1F21F00101C2
:102B30001960191F024B0B60143940380A6010BD30
:102B4000612A00081CB500F089F814490220CDE97B
:102B500000010023322212A1144800F09BF90F4912
:102B60000320091DCDE900010023322210A11348E2
:102B700000F090F9094904200831CDE90001002353
:102B800080220FA1114800F085F90448001F006859
:102B900000F0C8F8BDE81C4000F06EB8040000204A
:102BA0006C6564315F7461736B000000A5260008DA
:102BB0006C6564335F7461736B000000C1260008AC
:102BC000666C6F61745F7461736B00003D26000872
:102BD000D0E9013201699A60D0E901235A604A685C
:102BE000824201D182684A60002202610868401E68
:102BF00008600868704700F108014FF0FF32C0E933
:102C00000112C16001610021016070470021016172
:102C1000704730B50B685A1C02D000F1080202E080
:102C2000026904E02246546825689D42FAD9536837
:102C30004B6099608A60516008610168491C0160BD
:102C400030BD42684A6093688B60936859609160B8
:102C500008610168491C016070470000502080F342
:102C60001188BFF34F8FBFF36F8F02480168491C73
:102C7000016070477000002003490868401E08602A
:102C800001D180F3118870477000002070B50028D2
:102C90001BD00E4DA0F1080461686869014214D090
:102CA0002268002A11D18143616000F0B1F86068A8
:102CB0006968084468602046FFF79EFE2869401C4A
:102CC0002861BDE8704000F0B1B970BD740000200B
:102CD0004FF0E02000210161816105494FF47A72D3
:102CE0000968B1FBF2F1491E41610721016170479A
:102CF0002C00002010B5020009D000F089F8002156
:102D00001046FFF71FFD00F091F9002807D1044994
:102D10004FF080500860BFF34F8FBFF36F8F10BD2F
:102D200004ED00E070B50546FFF798FF214C05B9AA
:102D30002568281DFFF74CFF58B9E86A1E4A00EBCA
:102D4000800152F8211021B9012181402069884376
:102D50002061A86A18B105F11800FFF739FF606A11
:102D6000401C60622068854208D11348291DA030AC
:102D7000FFF767FF6068401C606004E0A068401EC9
:102D8000A060FFF75FFEFFF777FF2068854202D063
:102D90002846FFF793FD606900280AD02068854225
:102DA00007D106494FF080500860BFF34F8FBFF343
:102DB0006F8F70BD300000202801002004ED00E07E
:102DC0007CB50F480025CDE900502B4680220DA18F
:102DD0000E4800F05FF80A4C2C3C01280ED1502020
:102DE00080F31188BFF34F8FBFF36F8F4FF0FF3029
:102DF000A06201206061E56000F034F8206B7CBDCA
:102E00005C00002049444C45000000001D290008DA
:102E10000248416B491C41637047000030000020AC
:102E20000E48416B11B10121C16170470021C161A0
:102E300001690B4AB1FA81F1C1F11F0101EB810176
:102E400002EB810101F108034A6852684A609A4224
:102E500001D152684A60D16801607047300000209B
:102E600028010020094810B5016841F47F01016084
:102E7000016841F07F410160FFF72AFF044900200B
:102E80000860FDF771F9002010BD000020ED00E0A2
:102E9000700000202DE9FF5F8346DDE90E8799462B
:102EA00016468A469000FFF7E3FD05001AD04C2035
:102EB000FFF7DEFD040012D025630021CDE90241B9
:102EC000CDE900874B46324651465846FFF756FD3E
:102ED0002046FFF77BFC012004B0BDE8F09F2846A8
:102EE000FFF7D4FE4FF0FF30F6E7000005484169D8
:102EF00019B1406B18B100207047012070470220C3
:102F000070470000300000202DE9F041454C0026BC
:102F1000606B28B1A069401CA0613046BDE8F0811B
:102F2000E5686D1CE56008D1A06BE16BA163E0630F
:102F3000206A401C2062FFF785FDA16A3A488D4255
:102F40000FD34FF0000EA16B096839B1A16BC968AE
:102F5000C9684A68954212D2A26202E04FF0FF317E
:102F6000A1622168C96A01EB810150F821000128A2
:102F700000D90126E0690028CFD00126CDE7D1E9AC
:102F800002724B69BA60D1E902277A605F680A1D54
:102F9000974201D1CF685F60C1F814E01F687F1EBF
:102FA0001F60D1F828C0BCF1000F15D0D1E9073758
:102FB0009F60D1E907377B60DCF8047001F11803EA
:102FC0009F4202D10B6ACCF80430C1F828E0DCF84B
:102FD00000305B1ECCF80030CB6A0127D4F810C05B
:102FE0009F4047EA0C07276103EB830300EB830351
:102FF0005B688B609F68CF609F687A609A60CA6ADE
:1030000002EB820200EB82034B6150F822305B1C22
:1030100040F82230C96A2268D26A914293D30126CD
:1030200091E7000030000020280100202DE9F04148
:1030300000242746FFF712FE3F4D686B401E686371
:10304000686B002872D1A8683C4B00264FF001083D
:10305000F0BB6BE0D868C468D4E90721A06A91602E
:10306000D4E907125160426804F118018A4201D183
:10307000216A4160A6620168491E0160D4E902210B
:1030800060699160D4E9021251604268211D8A4250
:1030900001D1E268426066610268521E0260E26A23
:1030A000D5F810C008FA02F040EA0C00286102EBE3
:1030B0008200224A8C3A02EB80004068A060D0F87F
:1030C00008C0C4F80CC0D0F808C0CCF8041000E068
:1030D00012E08160E06A00EB800002EB8001616138
:1030E00052F82010491C42F82010E06A2968C96A89
:1030F000884201D3C5F81C8018680028AAD10CB1F9
:10310000FFF7A0FCAC693CB1FFF7FEFE08B1C5F8C3
:103110001C80641EF8D1AE61E86938B10849012706
:1031200038070860BFF34F8FBFF36F8FFFF7A4FD21
:103130003846BDE8F081000030000020B4010020D6
:1031400004ED00E0000000000000000001020304A4
:103150000607080900000000010203047C31000892
:10316000000000209C000000BC1C00081832000871
:103170009C00002054350000CC1C0008000000001A
:10318000000000000000000000000000000000003F
:10319000000000000000000000000000010000002E
:1031A00010000000000000000024F40000000000F7
:1031B000000000000000000000000000000000000F
:1031C00000000000000000000000000000000000FF
:1031D00000000000000000000000000004000000EB
:1031E000000000000000000000000000AAAAAAAA37
:1031F00000000000000000000000000000000000CF
:1032000000000000000000000000000000000000BE
:083210000000000000000000B6
:0400000508000131BD
:00000001FF
