:020000040800F2
:1000000000000000A500000800F002F800F03AF837
:100010000AA090E8000C82448344AAF10107DA4563
:1000200001D100F02FF8AFF2090EBAE80F0013F07B
:10003000010F18BFFB1A43F00103184758010000D5
:1000400078010000103A24BF78C878C1FAD8520766
:1000500024BF30C830C144BF04680C607047000042
:100060000023002400250026103A28BF78C1FBD8C1
:10007000520728BF30C148BF0B6070471FB51FBD76
:1000800010B510BD00F014F81146FFF7F7FF00F0AF
:1000900061F800F032F803B4FFF7F2FF03BC00F0A0
:1000A00053F80000DFF804D000F054F800010020FD
:1000B000754600F02BF8AE4605006946534620F021
:1000C0000700854618B020B500F024F8BDE82040B0
:1000D0004FF000064FF000074FF000084FF0000B04
:1000E00021F00701AC46ACE8C009ACE8C009ACE8B7
:1000F000C009ACE8C0098D46704710B50446AFF39F
:1001000000802046BDE81040FFF7C5BF004870479B
:100110000404002000B54FF0160085B0694601AA1E
:100120000A60ABBE0198002802BF0548C01D20F040
:1001300007000399029A049B05B000BD0900000066
:10014000000000007047000001491820ABBEFEE728
:1001500026000200F0B54126642000F00DF80546A7
:10016000C827002403E004F141002855641C1A2C20
:10017000F9DB0020F0BD0000014604480268006879
:100180000844024B186002481044704700000020E9
:1001900004000020B401000800000020040000005A
:1001A00044000008B80100080400002060040000BA
:0801B0006000000800000000DF
:0400000508000009E6
:00000001FF
