:020000040800F2
:10000000D8040020450100082F0C0008190B000837
:100010002D0C0008D9010008990C00080000000010
:10002000000000000000000000000000330C000889
:100030000502000800000000310C0008350C000823
:100040005F0100085F0100085F0100085F01000810
:100050005F0100085F0100085F0100085F01000800
:100060005F0100085F0100085F0100085F010008F0
:100070005F0100085F0100085F0100085F010008E0
:100080005F0100085F0100085F0100085F010008D0
:100090005F0100085F0100085F0100085F010008C0
:1000A0005F0100085F0100085F0100085F010008B0
:1000B0005F0100085F0100085F0100085F010008A0
:1000C0005F0100085F0100085F0100085F01000890
:1000D0005F0100085F0100085F0100085F01000880
:1000E0005F0100085F0100085F0100085F01000870
:1000F0005F0100085F0100085F0100085F01000860
:100100005F0100085F0100085F0100085F0100084F
:100110005F0100085F0100085F0100085F0100083F
:100120005F0100085F0100085F0100085F0100082F
:10013000DFF80CD000F02AF800480047D90C00087E
:10014000D80400200648804706480047FEE7FEE73F
:10015000FEE7FEE7FEE7FEE7FEE7FEE7FEE7FEE777
:10016000970C000831010008D2B201E000F8012B21
:10017000491EFBD270470022F6E710B513460A4627
:1001800004461946FFF7F0FF204610BD064C074D08
:1001900006E0E06840F0010394E807009847103457
:1001A000AC42F6D3FFF7C8FF1C0E00083C0E000857
:1001B00010B540EA0103134309D1AFF3008003688F
:1001C0000C68A34201D0002010BD001D091D521E65
:1001D00092B2F4D2012010BDFEE730B590F8405045
:1001E0000124AC40C56B6C60046863604368102BED
:1001F000036803D099600068C26030BD9A600068EF
:10020000C16030BD704772B6FEE7000030B560B126
:100210001A4B026814219A4209D2194B1344B3FBBA
:10022000F1F18900016417490AE0012030BD134B48
:100230005B421344B3FBF1F1890001640F490839B3
:10024000C163022180F82110136843F6F0718B43DB
:10025000F0E901142143D0E902452C43214304690C
:1002600021434469214384692143194311600021DA
:100270004163012242770177084630BD08040240FD
:10028000F8FFFDBF0000024070B5044690F8200062
:10029000002501280CD0012084F8200094F821606A
:1002A0000020012E06D084F820000225284670BDCB
:1002B000022070BD022684F82160A06320680668D1
:1002C00026F0010606602046FFF787FF20680168D8
:1002D00041F001010160E9E770B5044600F01CF946
:1002E0000546601C02D004480078044400F014F96C
:1002F000401BA042FAD370BD000000202DE9F84F4A
:10030000DFF8C891002409F1040A0AF1040B23461E
:100310000F270BF1040ED1E00125A54006EA0502E6
:10032000AA4276D1DFF8A8C14E68A6EB0C08664554
:100330002BD00DDC032E34D005DC36B3012E19D0C2
:10034000022E2FD11BE0112E16D0122E2AD119E029
:10035000B8F5881F19D006DCB8F5803F15D0B8F580
:10036000801F1FD111E0B8F5001F0ED0B8F5041F93
:1003700018D10AE0CB6815E0CB681B1D12E0CB68F2
:1003800008330FE0CB680C330CE08B682BB1012BEA
:100390004FF0080303D0456104E0042302E0056147
:1003A00000E00023FF2A01D8064601E000F1040620
:1003B0004FEA840501D9A5F12005D6F8008007FA97
:1003C00005FC28EA0C0803FA05F548EA0508C6F812
:1003D00000804D68ED0070D53E4DAE6946F00106D7
:1003E000AE61AD6924F0030605F0010500953A4DB4
:1003F00006EB050CDCF80850A607360F07FA06F8DE
:1004000025EA0805DFF8D480404503D14FF0000805
:1004100025E052E0DFF8C880404502D14FF00108E6
:100420001DE0DFF8C080404502D14FF0020816E021
:10043000DFF8B480404502D14FF003080FE0DFF849
:10044000AC80404502D14FF0040808E0DFF8A080FE
:10045000404502D14FF0050801E04FF0060808FAC8
:1004600006F848EA0508CCF808804D68D9F800601D
:10047000ED034D4601D5164300E096432E604D68CE
:10048000DAF80060AD03554601D5164300E0964307
:100490002E604D68DBF80060ED025D4601D5164325
:1004A00000E096432E604D68DEF80060AD027546B0
:1004B00001D5164300E096432E60641C0A68164678
:1004C000E2407FF429AFBDE8F88F0000000401404E
:1004D000000011100010024000000140000801401F
:1004E000000C0140001001400014014000180140C0
:1004F000001C01408068084000D001207047C2689D
:1005000021EA02030A4043EA0241016170470AB14D
:10051000016170470904FBE70148806870470000EB
:100520000000002002488168027811448160704711
:1005300000000020074810B5016841F0100101607B
:10054000032000F067F8002000F006F800F024F81F
:10055000002010BD0020024070B50D4D04464FF440
:100560007A712878B1FBF0F00A490968B1FBF0F024
:1005700000F0BEFA48B9102C07D200222146501EC6
:1005800000F028F800206C6070BD012070BD0000F4
:10059000000000200C0000200C4808B5816941F0E3
:1005A00001018161816901F001010091C16941F09E
:1005B0008051C161C06900F08050009004484168DA
:1005C00021F0E06141F08071416008BD00100240FF
:1005D00000000140F0B40E4B1B680C46C3F302232D
:1005E000C3F10705042D00D90425191D072901D2DF
:1005F000002300E0DB1E012606FA05F1491E21401A
:1006000099409E40761E16403143F0BC00F045BB39
:100610000CED00E0064900F0070208684FF6FF0302
:10062000184040EA0220034A104308607047000067
:100630000CED00E00000FA052DE9F0470F4605003B
:1006400061D0434E306800F00700B84209D23068EC
:1006500020F0070038433060306800F00700B842EF
:1006600051D128683B4C810712D5400703D56068FB
:1006700040F4E06060602878000703D5606840F4CB
:10068000605060606068A96820F0F0000843606016
:100690002878C00728D06868012810D0216802286F
:1006A00010D0890700292EDA616821F00301014387
:1006B0006160FFF731FF804641F288390DE0216823
:1006C0008903EFE78901EDE7FFF726FFA0EB0801BB
:1006D000494502D90320BDE8F0876068696800F0E9
:1006E0000C00B0EB810FEFD1306800F00700B8428A
:1006F0000BD9306820F0070038433060306800F0D4
:100700000700B84201D00120E5E72878400705D569
:100710006068E96820F4E0600843606028780007BA
:1007200006D56068296920F4605040EAC100606025
:1007300000F018F86168084AC1F30311515CC84021
:100740000649086006480068FFF706FF0020C2E778
:1007500000200240001002400C0E00080C00002097
:100760000400002012A185B00FC98DE80F0014A06D
:10077000144A006804905168134801F00C03042BDC
:1007800010D0082B0ED1C1F38343C9031DF8030019
:100790000AD5516804AAC1F34041515C0A4A50434A
:1007A000B0FBF1F005B0704708494843FAE7000094
:1007B00002030405060708090A0B0C0D0E0F1010A2
:1007C000010200000010024000127A0000093D0002
:1007D0002DE9F84F040070D02078C04DC00749D0F3
:1007E0006868C0F38100012807D06868C0F3810001
:1007F000022809D16868C00306D52868800339D566
:1008000060680028E7D035E06068B0F5803F0BD025
:1008100010B1B0F5A02F11D0286820F480302860E6
:10082000286820F4802002E0286840F480302860A6
:10083000606890B1FFF770FE06460AE0286840F451
:1008400080202860F0E700BFFFF766FE801B642869
:1008500073D828688003F7D50CE0FFF75DFE0646E5
:1008600005E000BFFFF758FE801B6428F0D8286819
:100870008003F7D420789A4E80074FF001094FF09B
:10088000000839D5686810F00C0F07D06868C0F30D
:100890008100022809D16868C00306D4286880074F
:1008A00014D52069012808D110E02069B0B1C6F83C
:1008B0000090FFF731FE074605E00AE1FFF72CFE46
:1008C000C01B0228C4D828688007F7D5286861694A
:1008D00020F0F80040EAC10028600DE0C6F8008072
:1008E000FFF71AFE074604E0FFF716FEC01B0228BA
:1008F00023D828688007F7D4207800072CD57948BA
:10090000A169D9B1C0F80090FFF706FE074604E0E0
:10091000FFF702FEC01B02280FD8686A8007F7D5D0
:1009200071484FF4FA510068B0FBF1F0009000BF3D
:100930000098411E0091FAD20EE080E0C0F80080DD
:10094000FFF7EAFD074604E0FFF7E6FDC01B0228BB
:1009500075D8686A8007F7D42078400760D5E869C1
:100960000027C00008D4E86940F08050E861E869D9
:10097000012700F0805000905C480168C90513D43D
:100980000168834641F480710160FFF7C5FD82462E
:1009900006E000BFFFF7C0FDA0EB0A0064284ED8B8
:1009A000DBF80000C005F5D5E06801280AD008B1E1
:1009B000052813D0286A20F001002862286A20F058
:1009C000040002E0286A40F001002862E06841F279
:1009D000883B98B1FFF7A0FD82460BE0286A40F003
:1009E00004002862EEE700BFFFF796FDA0EB0A01C6
:1009F00059455AD8286A8007F6D50CE0FFF78CFDD8
:100A0000824605E0FFF788FDA0EB0A0159454CD866
:100A1000286A8007F6D41FB1E86920F08050E861A9
:100A2000E06988B36968C1F38101022944D00228D2
:100A3000C6F8608004D0FFF76FFD044638E034E06C
:100A4000FFF76AFD074604E0FFF766FDC01B0228BA
:100A50002BD828688001F7D4206AB0F5803F05D1F3
:100A60006868A16820F4003008436860D4E9080190
:100A70000843696821F4741108436860C6F86090FF
:100A8000FFF74AFD044606E025E000BFFFF744FDFE
:100A9000001B022809D828688001F7D51BE000BF99
:100AA000FFF73AFD001B022802D90320BDE8F88FAA
:100AB00028688001F4D40EE00128F7D06868226A23
:100AC00000F48031914204D1616A00F470108842D0
:100AD00001D00120EAE70020E8E700000010024012
:100AE00000004242800442420C000020007000409E
:100AF00010B5401EB0F1807F01D3012010BD4FF032
:100B0000E02460610F21601700F0C7F80020A061A9
:100B100007202061002010BDFEE70000124808B544
:100B2000416941F0010141614069104900F0010053
:100B300000900F4801604FF4804141604021816086
:100B40008021C160890001618900416120218161AA
:100B5000C901C161FFF75AFB002803D0BDE8084076
:100B6000FFF751BB08BD0000001002400800024022
:100B7000900000202DE9F04186B00025274800951F
:100B8000019502950395816941F040018161816978
:100B900001F040010491816941F0040181618169A2
:100BA00001F004010491816941F0080181618069CB
:100BB0001B4F00F008000490012220213846FFF767
:100BC000A6FCDFF86080012220214046FFF79FFC51
:100BD0001C20CDE900050124694602943846FFF740
:100BE0008DFB2026CDE900640294694638460394C3
:100BF000FFF784FB02200094CDE9015069460A48C2
:100C0000FFF77CFBCDE900640294694640460394FB
:100C1000FFF774FB06B0BDE8F08100000010024051
:100C200000180140000C014000080140FEE7FEE70B
:100C300070477047FFF776BC30B58FB02821684603
:100C4000FFF799FA14210AA8FFF795FA0121080481
:100C5000CDE900100024029402250491CDE907504B
:100C60004FF4E01009906846FFF7B2FD08B172B684
:100C7000FEE70F20CDE90A054FF48060CDE90C4076
:100C800002210AA80E94FFF7D7FC002801D072B603
:100C9000FEE70FB030BD7047FEE70907090E0028D8
:100CA00004DB00F1E02080F80014704700F00F0032
:100CB00000F1E02080F8141D704702E008C8121F00
:100CC00008C1002AFAD170477047002001E001C135
:100CD000121F002AFBD17047FFF72CFCFFF7ACFF77
:100CE000FFF748FFFFF71AFF224F244DDFF87CA0E3
:100CF000DFF87CB0204E214C07F10409803D4FF015
:100D0000020801215046FFF7F5FB012829D12021D7
:100D10005846FFF7F4FB2023194A1A491648FFF7F3
:100D2000B3FA3168A14201D9386800E0286810F0B0
:100D3000020FF7D0202212491248FFF739FA012892
:100D400003D120211048FFF7DAFB3068A04240466B
:100D500002D9C9F8000000E0686020210848FFF7C8
:100D60000AFA0A20FFF7B8FACBE7000000080140B2
:100D70000018014000040240900000208000024062
:100D8000100000208C0D0008000C0140040302013B
:100D9000080706050C0B0A09100F0E0D141312118B
:100DA000181716151C1B1A19201F1E1D242322217B
:100DB000282726252C2B2A29302F2E2D343332316B
:100DC000383736353C3B3A39403F3E3D444342415B
:100DD000484746454C4B4A49504F4E4D545352514B
:100DE000585756555C5B5A59605F5E5D646362613B
:100DF000686766656C6B6A69706F6E6D747372712B
:100E0000787776757C7B7A79807F7E7D0000000024
:100E10000000000001020304060708093C0E000858
:100E20000000002010000000BA0C00084C0E000862
:100E300010000020C8040000CA0C000801000000D7
:0C0E400010000000000000000024F4007E
:0400000508000131BD
:00000001FF
