:020000040800F2
:100000001005002045010008CB100008D70F00089C
:10001000C91000087702000829130008000000003A
:10002000000000000000000000000000CF100008E9
:100030007902000800000000CD100008D11000086F
:100040005F0100085F0100085F0100085F01000810
:100050005F0100085F0100085F0100085F01000800
:100060005F0100085F0100085F0100085F010008F0
:100070005F0100085F0100085F0100085F010008E0
:100080005F0100085F0100085F0100085F010008D0
:100090005F0100085F0100085F0100085F010008C0
:1000A0005F0100085F0100085F0100085F010008B0
:1000B0005F0100085F0100085F0100085F010008A0
:1000C0005F0100085F0100085F0100085F01000890
:1000D0005F0100081D1300085F0100085F010008B0
:1000E0005F0100085F0100085F0100085F01000870
:1000F0005F0100085F0100085F0100085F01000860
:100100005F0100085F0100085F0100085F0100084F
:100110005F0100085F0100085F0100085F0100083F
:100120005F0100085F0100085F0100085F0100082F
:10013000DFF80CD000F07EF800480047311A0008C4
:10014000100500200648804706480047FEE7FEE706
:10015000FEE7FEE7FEE7FEE7FEE7FEE7FEE7FEE777
:100160003311000831010008202A04DB203A21FA6B
:1001700002F00021704721FA02F3D040C2F12002C0
:10018000914008431946704740EA01039B0703D09A
:1001900009E008C9121F08C0042AFAD203E011F8C6
:1001A000013B00F8013B521EF9D27047D2B201E088
:1001B00000F8012B491EFBD270470022F6E710B56C
:1001C00013460A4604461946FFF7F0FF204610BDC5
:1001D0002DE9F05F0546002092469B46884606467C
:1001E000814640241BE02846414647462246FFF709
:1001F000BBFF53465A46C01A914110D311461846C8
:10020000224600F029F82D1A67EB01084F462246D6
:100210000120002100F020F817EB00094E41201EBC
:10022000A4F10104DFDC484631462A464346BDE8D6
:10023000F09F0000064C074D06E0E06840F0010327
:1002400094E8070098471034AC42F6D3FFF774FFE8
:100250001C1B00083C1B0008202A04DB203A00FA83
:1002600002F1002070479140C2F1200320FA03F30D
:10027000194390407047FEE7704772B6FEE710B52D
:1002800090F821100022022905D00421816380F812
:100290002020012010BD01680B6823F00E030B60C5
:1002A00001680B6823F001030B6090F84030C46BC9
:1002B000012101FA03F3636080F8211080F8202007
:1002C000104610BD2DE9F05F90F82110002402299E
:1002D00003D004218163012485E001680A6822F0CB
:1002E0000E020A6001680A6822F001020A603F4EAD
:1002F0003E4FB215DFF8F4C0DFF8F090DFF8ECA065
:10030000DFF8E8B0DFF8E4E00168783F1301150298
:10031000ACF1640CA9F15009AAF13C0AABF1280B2D
:10032000AEF1140E4FF48018B14227D9B9420ED065
:10033000614512D049451DD0514518D0594518D0B6
:10034000714501D1424615E0294EB14201D1012249
:1003500010E0274E1436B14201D110220AE0244E9B
:100360002836B14206D0224A3C32914201D11A4687
:1003700000E02A461E49091F0A602BE0B94213D04B
:10038000614517D0494522D051451DD059451DD052
:10039000714501D142461AE0B14202D14FF080725C
:1003A00015E0134EB14201D1012210E0104E143677
:1003B000B14201D110220AE00D4E2836B14206D0DA
:1003C0000B4A3C32914201D11A4600E02A460749C5
:1003D00080394A60012180F82110002180F8201026
:1003E000416B01B188472046BDE8F09F8000024084
:1003F0000804024070B5044600F010F90546601C80
:1004000002D004480078044400F008F9401BA042E0
:10041000FAD370BD080000202DE9F84FDFF8C8912D
:10042000002409F1040A0AF1040B23460F270BF1FB
:10043000040ED1E00125A54006EA0502AA4276D1C4
:10044000DFF8A8C14E68A6EB0C0866452BD00DDC82
:10045000032E34D005DC36B3012E19D0022E2FD155
:100460001BE0112E16D0122E2AD119E0B8F5881FE4
:1004700019D006DCB8F5803F15D0B8F5801F1FD124
:1004800011E0B8F5001F0ED0B8F5041F18D10AE02E
:10049000CB6815E0CB681B1D12E0CB6808330FE07A
:1004A000CB680C330CE08B682BB1012B4FF00803A9
:1004B00003D0456104E0042302E0056100E000236D
:1004C000FF2A01D8064601E000F104064FEA840540
:1004D00001D9A5F12005D6F8008007FA05FC28EA25
:1004E0000C0803FA05F548EA0508C6F800804D68CF
:1004F000ED0070D53E4DAE6946F00106AE61AD69C6
:1005000024F0030605F0010500953A4D06EB050CB5
:10051000DCF80850A607360F07FA06F825EA0805A2
:10052000DFF8D480404503D14FF0000825E052E0C9
:10053000DFF8C880404502D14FF001081DE0DFF828
:10054000C080404502D14FF0020816E0DFF8B480C9
:10055000404502D14FF003080FE0DFF8AC80404582
:1005600002D14FF0040808E0DFF8A080404502D136
:100570004FF0050801E04FF0060808FA06F848EACF
:100580000508CCF808804D68D9F80060ED034D46A9
:1005900001D5164300E096432E604D68DAF80060FE
:1005A000AD03554601D5164300E096432E604D68D5
:1005B000DBF80060ED025D4601D5164300E096438E
:1005C0002E604D68DEF80060AD02754601D5164319
:1005D00000E096432E60641C0A681646E2407FF4F1
:1005E00029AFBDE8F88F00000004014000001110A1
:1005F000001002400000014000080140000C0140D2
:10060000001001400014014000180140001C01408E
:100610000AB1016170470904FBE7000001488068E6
:1006200070470000080000200248816802781144E9
:100630008160704708000020074810B5016841F04C
:1006400010010160032000F079F8002000F006F8A6
:1006500000F024F8002010BD0020024070B50D4DC0
:1006600004464FF47A712878B1FBF0F00A49096822
:10067000B1FBF0F000F0F0FA48B9102C07D20022DC
:100680002146501E00F03AF800206C6070BD012039
:1006900070BD000008000020140000200E4808B5BE
:1006A000816941F001018161816901F001010091DD
:1006B000C16941F08051C161C06900F08050009073
:1006C000052000F03BF80548416821F0E06141F069
:1006D0008071416008BD0000001002400000014030
:1006E000002809DB00F01F02012191404009800031
:1006F00000F1E020C0F8001170470000F0B40E4B8C
:100700001B680C46C3F30223C3F10705042D00D96F
:100710000425191D072901D2002300E0DB1E012654
:1007200006FA05F1491E214099409E40761E16406A
:100730003143F0BC00F00ABE0CED00E0064900F0C9
:10074000070208684FF6FF03184040EA0220034AF8
:1007500010430860704700000CED00E00000FA054F
:100760002DE9F0470F46050061D0434E306800F098
:100770000700B84209D2306820F0070038433060E3
:10078000306800F00700B84251D128683B4C81071F
:1007900012D5400703D5606840F4E06060602878B7
:1007A000000703D5606840F4605060606068A96825
:1007B00020F0F000084360602878C00728D06868FF
:1007C000012810D02168022810D0890700292EDACC
:1007D000616821F0030101436160FFF71FFF80465C
:1007E00041F288390DE021688903EFE78901EDE7DF
:1007F000FFF714FFA0EB0801494502D90320BDE82B
:10080000F0876068696800F00C00B0EB810FEFD1F1
:10081000306800F00700B8420BD9306820F00700BC
:1008200038433060306800F00700B84201D0012042
:10083000E5E72878400705D56068E96820F4E060BE
:10084000084360602878000706D56068296920F4AD
:10085000605040EAC100606000F038F86168084A02
:10086000C1F30311515CC84006490860064800689E
:10087000FFF7F4FE0020C2E7002002400010024013
:10088000041B0008140000200C0000200448054947
:1008900000684968044AC1F30221515CC8407047AE
:1008A0001400002000100240141B000804480549F1
:1008B00000684968044AC1F3C221515CC8407047CE
:1008C0001400002000100240141B000812A185B083
:1008D0000FC98DE80F0014A0144A006804905168F5
:1008E000134801F00C03042B10D0082B0ED1C1F3D8
:1008F0008343C9031DF803000AD5516804AAC1F354
:100900004041515C0A4A5043B0FBF1F005B07047DA
:1009100008494843FAE700000203040506070809EE
:100920000A0B0C0D0E0F1010010200000010024007
:1009300000127A0000093D002DE9F84F040070D044
:100940002078C04DC00749D06868C0F381000128F5
:1009500007D06868C0F38100022809D16868C00325
:1009600006D52868800339D560680028E7D035E0CF
:100970006068B0F5803F0BD010B1B0F5A02F11D05A
:10098000286820F480302860286820F4802002E065
:10099000286840F480302860606890B1FFF73EFE20
:1009A00006460AE0286840F480202860F0E700BF8F
:1009B000FFF734FE801B642873D828688003F7D5BE
:1009C0000CE0FFF72BFE064605E000BFFFF726FE12
:1009D000801B6428F0D828688003F7D420789A4ECA
:1009E00080074FF001094FF0000839D5686810F012
:1009F0000C0F07D06868C0F38100022809D168682D
:100A0000C00306D42868800714D52069012808D1BE
:100A100010E02069B0B1C6F80090FFF7FFFD07466F
:100A200005E00AE1FFF7FAFDC01B0228C4D82868D8
:100A30008007F7D52868616920F0F80040EAC10016
:100A400028600DE0C6F80080FFF7E8FD074604E0E7
:100A5000FFF7E4FDC01B022823D828688007F7D4DD
:100A6000207800072CD57948A169D9B1C0F8009049
:100A7000FFF7D4FD074604E0FFF7D0FDC01B0228B6
:100A80000FD8686A8007F7D571484FF4FA510068AB
:100A9000B0FBF1F0009000BF0098411E0091FAD227
:100AA0000EE080E0C0F80080FFF7B8FD074604E0E4
:100AB000FFF7B4FDC01B022875D8686A8007F7D419
:100AC0002078400760D5E8690027C00008D4E869AD
:100AD00040F08050E861E869012700F08050009004
:100AE0005C480168C90513D40168834641F48071EC
:100AF0000160FFF793FD824606E000BFFFF78EFD21
:100B0000A0EB0A0064284ED8DBF80000C005F5D53C
:100B1000E06801280AD008B1052813D0286A20F01F
:100B200001002862286A20F0040002E0286A40F0F0
:100B300001002862E06841F2883B98B1FFF76EFD42
:100B400082460BE0286A40F004002862EEE700BF0E
:100B5000FFF764FDA0EB0A0159455AD8286A8007BF
:100B6000F6D50CE0FFF75AFD824605E0FFF756FD8B
:100B7000A0EB0A0159454CD8286A8007F6D41FB16A
:100B8000E86920F08050E861E06988B36968C1F3E2
:100B90008101022944D00228C6F8608004D0FFF702
:100BA0003DFD044638E034E0FFF738FD074604E039
:100BB000FFF734FDC01B02282BD828688001F7D42A
:100BC000206AB0F5803F05D16868A16820F4003044
:100BD00008436860D4E908010843696821F4741186
:100BE00008436860C6F86090FFF718FD044606E009
:100BF00025E000BFFFF712FD001B022809D8286876
:100C00008001F7D51BE000BFFFF708FD001B02289D
:100C100002D90320BDE8F88F28688001F4D40EE0E3
:100C20000128F7D06868226A00F48031914204D12B
:100C3000616A00F47010884201D00120EAE70020C8
:100C4000E8E70000001002400000424280044242F7
:100C5000140000200070004010B5401EB0F1807FED
:100C600001D3012010BD4FF0E02460610F21601717
:100C700000F06CFB0020A06107202061002010BD67
:100C800070477047F8B5026804461068D168536928
:100C900010F00F0F4FF0000553D003F0010601F4E0
:100CA000907737435FD0C20705D0CA0503D5226CC1
:100CB00042F001022264420705D5DA0703D0226C14
:100CC00042F002022264820705D5DA0703D0226CC3
:100CD00042F004022264020707D501F020023243E9
:100CE00003D0226C42F008022264226C002A34D025
:100CF000800604D5880602D5204600F03BFA20681D
:100D00004069216CC0F38010090700D430B320463D
:100D100000F018FA2068416949061BD5416921F0A5
:100D200040014161A06BA8B158494163A06BFFF736
:100D3000C9FA002811D0A06B416B01B0BDE8F040AA
:100D4000084783060FD58B060DD52046BDE8F84031
:100D500000F010BA2046FFF794FFF8BD2046FFF7D9
:100D600090FF2564F8BD266B2023012E52D1C606C4
:100D700050D5CE064ED51068506800905069400698
:100D80002AD5A16B086840680004000CEAD0A68D43
:100D90008642E7D9E0858869202818D0D06820F4F9
:100DA0008070D0602068416921F0010141612068B4
:100DB000416921F04001416184F83E30256320689B
:100DC000C16821F01001C160A06BFFF758FAA08D37
:100DD000E18D401A81B219E0A08DE18D401A81B2F7
:100DE000E08D0028BED00029BCD0D06820F49070DF
:100DF000D0602068426922F00102426184F83E30EE
:100E000025632068C26822F01002C2602046FFF706
:100E100037FFF8BD05062BD50D0629D594F83D0002
:100E20002128F6D1A068B0F5805F01D12069B0B16A
:100E3000206A411C2162216800784860E08C401ED5
:100E40000004000CE084E4D12068C16821F0800136
:100E5000C1602068C16841F04001C160F8BD206AEE
:100E60000088C0F308005060206A801C2062E5E71B
:100E70004006F3D54806F1D5D168204621F040015F
:100E8000D16084F83D3000F0A5F8F8BD35110008B8
:100E900070B5040004D094F83D00002510B106E0C0
:100EA000012070BD84F83C50204600F023F8242037
:100EB00084F83D002068C16821F40051C1602046DB
:100EC00000F0B4F92068016921F4904101612068C3
:100ED000416921F02A0141612068C16841F4005153
:100EE000C1602564202084F83D0084F83E00002085
:100EF00070BD000030B585B00024009401940294C8
:100F000003940068184988422CD11848816941F43B
:100F100080418161816901F480410491816941F0DE
:100F2000040181618069124D00F0040004904FF4C7
:100F3000007000900220019003200390694628462B
:100F4000FFF76AFA2815CDE900046946284602949D
:100F5000FFF762FA002201212520FFF7CFFB2520B1
:100F6000FFF7BEFB05B030BD003801400010024065
:100F70000008014090F83E30202B0ED159B152B1FB
:100F800090F83C30012B08D0012380F83C3000233E
:100F9000036300F0A7B901207047022070470000EA
:100FA00010B50068084988420CD101220749084859
:100FB00000F0F2FC06480122BDE8104003491C3055
:100FC000FFF7D8BF10BD000000380140000000202E
:100FD000180000207047FEE72DE9F04186B000259B
:100FE00027480095019502950395816941F04001DC
:100FF0008161816901F040010491816941F004013E
:101000008161816901F004010491816941F0080165
:10101000816180691B4F00F00800049001222021AB
:101020003846FFF7F5FADFF86080012220214046BC
:10103000FFF7EEFA1C20CDE9000501246946029471
:101040003846FFF7E9F92026CDE9006402946946A5
:1010500038460394FFF7E0F902200094CDE90150EF
:1010600069460A48FFF7D8F9CDE900640294694659
:1010700040460394FFF7D0F906B0BDE8F0810000C8
:101080000010024000180140000C0140000801401F
:101090000C4810B50A4901604FF4E131416000216C
:1010A00081600C22C160C0E904128161C161FFF757
:1010B000EFFE002803D0BDE81040FFF7DEB810BDFA
:1010C0000038014034000020FEE7FEE7704770471B
:1010D000FFF7AABA30B58FB028216846FFF76DF840
:1010E00014210AA8FFF769F801210804CDE90010CE
:1010F0000024029402250491CDE907504FF4E0103A
:1011000009906846FFF718FC08B172B6FEE70F2099
:10111000CDE90A054FF48060CDE90C4002210AA810
:101120000E94FFF71DFB002801D072B6FEE70FB04A
:1011300030BD704710B5406A0021C185C184FFF7FA
:10114000A0FD10BD0168CA6822F49072CA600168EF
:101150004A6922F001024A61016B012904D1016848
:10116000CA6822F01002CA60202180F83E100021D7
:101170000163704708B590F83E10222901D0022083
:1011800008BD82684FF480539A4201D1016921B1B0
:10119000816A9A421BD04AB10AE00268816A5268A9
:1011A000C2F308020A80816A891C08E0026972B1F0
:1011B0000268526802F07F020A70816A491C8162EB
:1011C000C18D491E0904090CC18503D019E00268CC
:1011D0005268F1E70168CA6822F02002CA6001681B
:1011E000CA6822F48072CA6001684A6922F001026A
:1011F0004A61202180F83E10016B012903D0FFF7DE
:10120000CFFE002008BD002101630168CA6822F0FA
:101210001002CA6001680A68D20602D50A684968E5
:101220000091818DFFF72CFDEBE7000070B50446BF
:1012300000680169E26821F44051114301612169AC
:10124000A0680843616908432168CA6841F20C63D9
:101250009A430243CA6020684169A26921F440713F
:10126000114341611E492068884202D1FFF71EFBED
:1012700001E0FFF70BFB00EBC00101EB001260681F
:1012800064218000B2FBF0F3B3FBF1F36FF01806BA
:101290007343B2FBF0F5B2FBF0F605EB83053223A6
:1012A00003EB0515B5FBF1F5B6FBF1F605F0F0051E
:1012B00005EB0615B2FBF0F6B2FBF0F0B0FBF1F077
:1012C0006FF01802504306EB800003EB0010B0FBF8
:1012D000F1F0216800F00F002844886070BD000024
:1012E0000038014081628285C2850021016422228A
:1012F00080F83E2080F83C100168CA6842F4807291
:10130000CA6001684A6942F001024A610068C16826
:1013100041F02001C1600020704700000148FFF744
:10132000B1BC000034000020FEE700000FB4054B04
:1013300010B503A9044A029800F028F810BC5DF823
:1013400014FB0000F1170008040000200907090E33
:10135000002804DB00F1E02080F80014704700F062
:101360000F0000F1E02080F8141D704702E008C86B
:10137000121F08C1002AFAD170477047002001E00F
:1013800001C1121F002AFBD1704700002DE9FF4F59
:101390008DB00F460546002606E025280BD0DDE976
:1013A0000F1290476D1C761C28780028F5D111B0DB
:1013B0003046BDE8F08F0024A246A1460122EC4948
:1013C00000E0044315F8013F203B02FA03F0084215
:1013D000F7D128782A2810D06FF02F022878A0F1B2
:1013E0003001092914D80AEB8A0102EB410144F0CB
:1013F000020400EB010A6D1CF0E701CF5FEA000A6E
:1014000003D544F40054CAF1000A44F002046D1CF0
:1014100028782E2817D115F8010F44F004042A2843
:101420000ED06FF02F022878A0F1300109290AD8D8
:1014300009EB890102EB410100EB01096D1CF2E7A8
:1014400057F8049B6D1C28786C280FD006DC4C28BC
:1014500017D068280DD06A2814D104E0742810D061
:101460007A280FD10DE044F400140AE044F480140B
:1014700001E044F440146978814202D104F58014FB
:101480006D1C6D1C2A786E2A1FD00CDC632A31D0AB
:1014900004DC002A8BD0582A11D1A3E0642A68D03A
:1014A000692A0CD165E0732A2ED004DC6F2A73D030
:1014B000702A04D19BE0752A6FD0782A6ED010462E
:1014C000DDE90F129047761C50E1C4F30250022868
:1014D00006D0032809D0042801CF09D0066045E1D1
:1014E00001CFF117C0E9006140E101CF06803DE185
:1014F00006703BE117F8040B8DF8000000208DF812
:101500000100EB46012003E057F804BB4FF0FF3029
:1015100061074FF0000102D40DE008F10101884697
:1015200049450FDA8045F8DB1BF808100029F4D193
:1015300008E008F1010188468142FADB1BF8081037
:101540000029F6D1DDE90F23AAEB080081462146E8
:1015500000F036F9304400EB080604E0DDE90F1234
:101560001BF8010B9047B8F10108F7D22146484615
:10157000F7E00A21C4F302534FF0000B0891022B4D
:1015800004D001CFC117032B09D00AE0FF1D27F0BB
:101590000707F7E8020108E032E01FE020E000B2B0
:1015A000C117042B01D140B2C117031E71F1000312
:1015B00007DA4FF0000CD0EB0C006CEB01012D238F
:1015C00002E0230504D52B238DF82430012303E00A
:1015D000E30701D02023F7E7984658E00A2110E0FE
:1015E00010210EE010204FF0000B08900CE01021AD
:1015F0004FF0000B44F004044FF00809089103E099
:1016000008214FF0000B0891C4F30253022B04D0C1
:1016100001CF0021032B06D006E0FF1D27F00707AE
:10162000F7E8020103E080B2042B00D1C0B24FF012
:10163000000823072BD5702A07D0DDF820C08CF0D6
:10164000100C5CEA0B0C05D00EE040238DF8243022
:10165000012308E050EA010306D030238DF824303E
:101660008DF8252002239846DDF820C08CF0080C68
:101670005CEA0B0C0BD150EA010301D1630706D5DC
:1016800030238DF824304FF00108A9F10109582AC0
:1016900004D038A20B9208AA0A920BE03AA2F9E70A
:1016A0005B46089AFEF794FD0B9B9B5C0A9A521EC0
:1016B0000A92137050EA0102F2D10A98ADEB0000D1
:1016C00000F1200B600702D524F4803401E04FF0D4
:1016D0000109D94502DDA9EB0B0000E0002000EB79
:1016E0000B0141440890AAEB010AE00306D4DDE9AE
:1016F0000F232146504600F063F806444FF00009DE
:1017000008E009A911F80900DDE90F12904709F175
:101710000109761CC145F4DBE0030CD5DDE90F239C
:101720002146504600F04CF8064404E0DDE90F1273
:1017300030209047761C0899481E08900029F5DC57
:1017400008E00A980A990078491C0A91DDE90F120D
:101750009047761CBBF10001ABF1010BF1DC214697
:101760005046DDE90F2300F019F806446D1C1BE616
:101770000928010030313233343536373839616267
:10178000636465660000000030313233343536372B
:101790003839414243444546000000002DE9F041FC
:1017A000044600251E461746880404D405E0394641
:1017B0002020B0476D1C641EF9D52846BDE8F08195
:1017C0002DE9F041044600251E469046C80301D588
:1017D000302700E02027880404D505E0414638463C
:1017E000B0476D1C641EF9D52846BDE8F0810000A5
:1017F00004490A685206FCD5024AC1B2121D1160A2
:1018000070470000003801400CB5A8B1124A0168C9
:10181000914211D18169D24391420DD1416859B1B0
:10182000816849B101690091C1680191DDE9001247
:10183000914203D180680CE000200CBD1146009A53
:10184000914201D9881A04E080681146019A891AE8
:10185000401A401E0CBD0000EFBEADDE0CB598B1C5
:10186000114A016891420FD18169D24391420BD153
:10187000416849B1816839B101690091C16801913C
:10188000DDE90012914202D14FF000000CBD02D9F7
:10189000A1EB02000CBD80681146009AA1EB020189
:1018A000A0EB01000CBD0000EFBEADDE70B515462B
:1018B0000E4604000CD05EB155B11C21FEF77DFC34
:1018C000A5600448C4E90006C043A061012070BDC2
:1018D000002070BDEFBEADDE68B1084A01689142DC
:1018E00009D18169D243914205D1416819B180681B
:1018F00008B101207047002070470000EFBEADDE48
:10190000F8B5154604000E461FD0224A20689042C2
:101910001BD1A069D243904217D16068A8B1A068DA
:1019200098B196B18DB12046FFF798FFA84200D339
:101930002846070009D0E0680090A0680099401A86
:10194000B84204D2A068451A02E00020F8BD3D4626
:1019500060682A4601443046FEF716FC00987F1B5B
:101960002844009005D070193A466168FEF70CFCD7
:101970000097A0680099884201D9084601E000203C
:101980000090E06063691BB1EA1900212046984786
:10199000E819F8BDEFBEADDEF8B5154604000E46F9
:1019A0001FD0224A206890421BD1A069D2439042A6
:1019B00017D16068A8B1A06898B196B18DB12046E2
:1019C000FFF722FFA84200D32846070009D020696C
:1019D0000090A0680099401AB84204D2A068451A45
:1019E00002E00020F8BD3D4660682A4608443146C2
:1019F000FEF7CAFB00987F1B2844009005D07119A0
:101A00003A466068FEF7C0FB0097A06800998842DC
:101A100001D9084601E000200090206163691BB1F4
:101A2000EA19012120469847E819F8BDEFBEADDE5E
:101A300008B5FEF701FE00208DF800000446FFF710
:101A400049FBFFF7C9FAFFF723FB96221E491F48FF
:101A5000FFF72CFF1D48FFF73FFF01221C491D48DF
:101A6000FFF788FA25E000BF9DF800003F2820D14D
:101A700019A0FFF75BFC012269461448FFF740FFFD
:101A8000002805DD9DF8004018A02146FFF74EFC18
:101A900000250CE0012269460C48FFF731FF0028C1
:101AA00004DD9DF8001014A0FFF740FC6D1CA5425A
:101AB000F0DB012269460548FFF722FF0028D3DC4E
:101AC000C820FEF797FCF4E77800002018000020FB
:101AD0000000002034000020796F7572206461746A
:101AE000613A206C656E6774683D00002530336490
:101AF0002C646174613D00005B3078253032785D84
:101B000020000000000000000000000001020304AB
:101B10000607080900000000010203043C1B00083E
:101B200000000020180000006C130008541B00087F
:101B300018000020F80400007C13000800000000DA
:101B40000000000001000000100000000000000084
:041B50000024F40079
:0400000508000131BD
:00000001FF
