:020000040800F2
:10000000481D002045010008630D0008CB0C0008C6
:10001000610D0008ED010008A90E000800000000B5
:100020000000000000000000000000006F0D00084C
:10003000EF01000800000000B1010008710D000888
:100040005F0100085F0100085F0100085F01000810
:100050005F0100085F0100085F0100085F01000800
:100060005F0100085F0100085F0100085F010008F0
:100070005F0100085F0100085F0100085F010008E0
:100080005F0100085F0100085F0100085F010008D0
:100090005F0100085F0100085F0100085F010008C0
:1000A0005F010008110E00085F0100085F010008F1
:1000B0005F0100085F0100085F0100085F010008A0
:1000C0005F0100085F0100085F0100085F01000890
:1000D0005F0100085F0100085F0100085F01000880
:1000E0005F0100085F0100085F0100085F01000870
:1000F0005F0100085F0100085F0100085F01000860
:100100005F0100085F0100085F0100085F0100084F
:100110005F0100085F0100085F0100085F0100083F
:100120005F0100085F0100085F0100085F0100082F
:10013000DFF80CD000F02AF800480047CD0F000887
:10014000481D00200648804706480047FEE7FEE7B6
:10015000FEE7FEE7FEE7FEE7FEE7FEE7FEE7FEE777
:100160000F0E000831010008D2B201E000F8012BA7
:10017000491EFBD270470022F6E710B513460A4627
:1001800004461946FFF7F0FF204610BD064C074D08
:1001900006E0E06840F0010394E807009847103457
:1001A000AC42F6D3FFF7C8FF301100085011000829
:1001B00072B6EFF3098058B1EFF3098020E9F00F30
:1001C00009490968086000B500F03EFF5DF804EBDE
:1001D000054800680068B0E8F00F80F309884EF029
:1001E000040E62B6704700BF20000020FEE7704793
:1001F0002DE9F84FDFF8C891002409F1040A0AF14B
:10020000040B23460F270BF1040ED1E00125A54076
:1002100006EA0502AA4276D1DFF8A8C14E68A6EB2D
:100220000C0866452BD00DDC032E34D005DC36B32C
:10023000012E19D0022E2FD11BE0112E16D0122E16
:100240002AD119E0B8F5881F19D006DCB8F5803F2F
:1002500015D0B8F5801F1FD111E0B8F5001F0ED0E2
:10026000B8F5041F18D10AE0CB6815E0CB681B1D58
:1002700012E0CB6808330FE0CB680C330CE08B68DE
:100280002BB1012B4FF0080303D0456104E0042398
:1002900002E0056100E00023FF2A01D8064601E0E4
:1002A00000F104064FEA840501D9A5F12005D6F82E
:1002B000008007FA05FC28EA0C0803FA05F548EA6D
:1002C0000508C6F800804D68ED0070D53E4DAE695A
:1002D00046F00106AE61AD6924F0030605F00105A4
:1002E00000953A4D06EB050CDCF80850A607360FD2
:1002F00007FA06F825EA0805DFF8D480404503D15F
:100300004FF0000825E052E0DFF8C880404502D1F8
:100310004FF001081DE0DFF8C080404502D14FF0EA
:10032000020816E0DFF8B480404502D14FF0030820
:100330000FE0DFF8AC80404502D14FF0040808E040
:10034000DFF8A080404502D14FF0050801E04FF0F2
:10035000060808FA06F848EA0508CCF808804D684F
:10036000D9F80060ED034D4601D5164300E09643F1
:100370002E604D68DAF80060AD03554601D516438E
:1003800000E096432E604D68DBF80060ED025D46AC
:1003900001D5164300E096432E604D68DEF80060FC
:1003A000AD02754601D5164300E096432E60641CED
:1003B0000A681646E2407FF429AFBDE8F88F0000D6
:1003C0000004014000001110001002400000014034
:1003D00000080140000C01400010014000140140E1
:1003E00000180140001C01400AB101617047090476
:1003F000FBE7000001488068704700000000002013
:100400000248816802781144816070470000002032
:10041000074810B5016841F010010160032000F0A9
:100420008FF8002000F006F800F03EF8002010BD24
:100430000020024000B5014687B00022192000F0DC
:100440005FF8192000F04EF81348816941F400610B
:100450008161806905A900F400600690684600F09B
:1004600017F900F035F90D490D4AB0FBF1F10D48CF
:10047000491E0260416040F2E7320021C0E90321D9
:10048000816000F0FDFA10B1012007B000BD054801
:1004900000F024FBF9E700000010024040420F008A
:1004A000002C0140280800200C4808B5816941F063
:1004B00001018161816901F001010091C16941F08F
:1004C0008051C161C06900F08050009004484168CB
:1004D00021F0E06141F08071416008BD00100240F0
:1004E00000000140002809DB00F01F0201219140BB
:1004F0004009800000F1E020C0F8001170470000C2
:10050000F0B40E4B1B680C46C3F30223C3F107057E
:10051000042D00D90425191D072901D2002300E06C
:10052000DB1E012606FA05F1491E214099409E4036
:10053000761E16403143F0BC00F0B7BC0CED00E075
:10054000064900F0070208684FF6FF03184040EA2A
:100550000220034A10430860704700000CED00E0E1
:100560000000FA052DE9F0470F46050061D0434E23
:10057000306800F00700B84209D2306820F0070068
:1005800038433060306800F00700B84251D1286825
:100590003B4C810712D5400703D5606840F4E0600A
:1005A00060602878000703D5606840F460506060A0
:1005B0006068A96820F0F000084360602878C007F0
:1005C00028D06868012810D02168022810D0890737
:1005D00000292EDA616821F0030101436160FFF711
:1005E00009FF804641F288390DE021688903EFE771
:1005F0008901EDE7FFF7FEFEA0EB0801494502D9AE
:100600000320BDE8F0876068696800F00C00B0EB7B
:10061000810FEFD1306800F00700B8420BD9306885
:1006200020F0070038433060306800F00700B8421F
:1006300001D00120E5E72878400705D56068E96822
:1006400020F4E060084360602878000706D5606801
:10065000296920F4605040EAC100606000F048F869
:100660006168084AC1F30311515CC840064908603B
:1006700006480068FFF7DEFE0020C2E700200240C7
:1006800000100240181100080C0000200400002097
:100690000F2202600C4A536803F00303436053685F
:1006A00003F0F0038360536803F4E063C3605268AF
:1006B0004FF4E06303EAD20202610448006800F0EC
:1006C0000700086070470000001002400020024050
:1006D0000448054900684968044AC1F3C221515CD5
:1006E000C84070470C00002000100240281100088C
:1006F00012A185B00FC98DE80F0014A0144A00683C
:1007000004905168134801F00C03042B10D0082BFF
:100710000ED1C1F38343C9031DF803000AD5516804
:1007200004AAC1F34041515C0A4A5043B0FBF1F0C6
:1007300005B0704708494843FAE700000203040582
:10074000060708090A0B0C0D0E0F1010010200001D
:100750000010024000127A0000093D002DE9F84F18
:10076000040070D02078C04DC00749D06868C0F33D
:100770008100012807D06868C0F38100022809D1F0
:100780006868C00306D52868800339D560680028EA
:10079000E7D035E06068B0F5803F0BD010B1B0F520
:1007A000A02F11D0286820F480302860286820F419
:1007B000802002E0286840F480302860606890B1B2
:1007C000FFF718FE06460AE0286840F480202860FB
:1007D000F0E700BFFFF70EFE801B642873D828687F
:1007E0008003F7D50CE0FFF705FE064605E000BFE5
:1007F000FFF700FE801B6428F0D828688003F7D438
:1008000020789A4E80074FF001094FF0000839D543
:10081000686810F00C0F07D06868C0F381000228E8
:1008200009D16868C00306D42868800714D52069F8
:10083000012808D110E02069B0B1C6F80090FFF798
:10084000D9FD074605E00AE1FFF7D4FDC01B0228E9
:10085000C4D828688007F7D52868616920F0F800B7
:1008600040EAC10028600DE0C6F80080FFF7C2FD35
:10087000074604E0FFF7BEFDC01B022823D8286806
:100880008007F7D4207800072CD57948A169D9B121
:10089000C0F80090FFF7AEFD074604E0FFF7AAFDA1
:1008A000C01B02280FD8686A8007F7D571484FF43B
:1008B000FA510068B0FBF1F0009000BF0098411EB3
:1008C0000091FAD20EE080E0C0F80080FFF792FDC0
:1008D000074604E0FFF78EFDC01B022875D8686A42
:1008E0008007F7D42078400760D5E8690027C0006A
:1008F00008D4E86940F08050E861E869012700F019
:10090000805000905C480168C90513D40168834693
:1009100041F480710160FFF76DFD824606E000BF83
:10092000FFF768FDA0EB0A0064284ED8DBF8000052
:10093000C005F5D5E06801280AD008B1052813D014
:10094000286A20F001002862286A20F0040002E0F2
:10095000286A40F001002862E06841F2883B98B1C3
:10096000FFF748FD82460BE0286A40F00400286249
:10097000EEE700BFFFF73EFDA0EB0A0159455AD84C
:10098000286A8007F6D50CE0FFF734FD824605E0C3
:10099000FFF730FDA0EB0A0159454CD8286A8007C3
:1009A000F6D41FB1E86920F08050E861E06988B3AF
:1009B0006968C1F38101022944D00228C6F8608029
:1009C00004D0FFF717FD044638E034E0FFF712FDCE
:1009D000074604E0FFF70EFDC01B02282BD828684D
:1009E0008001F7D4206AB0F5803F05D16868A1681E
:1009F00020F4003008436860D4E9080108436968BE
:100A000021F4741108436860C6F86090FFF7F2FCA7
:100A1000044606E025E000BFFFF7ECFC001B0228BF
:100A200009D828688001F7D51BE000BFFFF7E2FC7A
:100A3000001B022802D90320BDE8F88F2868800136
:100A4000F4D40EE00128F7D06868226A00F48031FF
:100A5000914204D1616A00F47010884201D00120F3
:100A6000EAE70020E8E700000010024000004242F0
:100A7000800442420C000020007000407047704724
:100A800010B5040003D094F83D0010B107E0012038
:100A900010BD002084F83C00204600F01EF8022023
:100AA00084F83D00211D206800F0B8F9012084F889
:100AB000460084F83E0084F83F0084F8400084F843
:100AC000410084F8420084F8430084F8440084F82C
:100AD000450084F83D00002010BD704790F83D109F
:100AE000012901D001207047022180F83D100168E2
:100AF000CA6842F00102CA6000680E4988420ED0FE
:100B00000D4988420BD0B0F1804F08D00B49884284
:100B100005D00B49884202D00A49884204D1816835
:100B200001F00701062903D0016841F001010160CD
:100B300000207047002C01400034014000040040B8
:100B400000080040000C0040704770B50446006883
:100B500001694FF00005C943890715D4C168C9432D
:100B6000890711D4E91E016101202077206880697E
:100B70008007204602D0FFF7E7FF04E000F098F876
:100B8000204600F096F8257720680169C943490797
:100B900017D4C168C943490713D46FF00401016138
:100BA000022020772068806910F4407F204602D020
:100BB000FFF7CAFF04E000F07BF8204600F079F868
:100BC000257720680169C943090716D4C168C9435C
:100BD000090712D46FF00801016104202077206812
:100BE000C0698007204602D0FFF7AEFF04E000F0A6
:100BF0005FF8204600F05DF8257720680169C94359
:100C0000C90617D4C168C943C90613D46FF01001CF
:100C10000161082020772068C06910F4407F2046D9
:100C200002D0FFF791FF04E000F042F8204600F008
:100C300040F8257720680169C943C90708D1C16810
:100C4000C943C90704D1891E0161204600F032F86A
:100C500020680169C943090609D4C168C943090666
:100C600005D46FF0800101612046FFF707FF20687F
:100C70000169C943490609D4C168C943490605D475
:100C80006FF040010161204600F01EF82068016904
:100C9000C94389060BD4C168C943890607D46FF0DC
:100CA000200101612046BDE87040FFF7E8BE70BD3D
:100CB0007047704700680349884201D1FFF7A0BB25
:100CC00070470000002C01407047FEE72DE9F0411D
:100CD00086B000251F48009501950295039581690E
:100CE00041F040018161816901F040010491816915
:100CF00041F004018161816901F00401049181697D
:100D000041F0080181618069134F00F008000490F0
:100D1000012220213846FFF767FBDFF840800122DF
:100D200020214046FFF760FB202601240096CDE9F4
:100D30000145694638460394FFF75AFA0096CDE913
:100D40000145694640460394FFF752FA06B0BDE8F4
:100D5000F08100000010024000180140000C01402A
:100D6000FEE7FEE700220F21901EFFF7C9BB704788
:100D700004488168491C81600078002801D000F097
:100D80008BB97047100000204FF0E0200649416108
:100D900000218161016941F0070101610349F020EF
:100DA00081F8140D704700007FFC0A000FE000E09E
:100DB00030B58FB028216846FFF7DDF914210AA865
:100DC000FFF7D9F901210804CDE9001000240294AD
:100DD00002250491CDE907504FF4E01009906846D0
:100DE000FFF7BCFC08B172B6FEE70F20CDE90A059B
:100DF0004FF48060CDE90C4002210AA80E94FFF761
:100E0000B1FB002801D072B6FEE70FB030BD7047CD
:100E10000148FFF79ABE000028080020F0B50268DC
:100E20001C4B1D4D1D4E1E4F1E4C4FF0804C9842CA
:100E300009D0A04207D0604505D0A84203D0B042F7
:100E400001D0B84204D122F0700E4A6842EA0E0284
:100E5000984209D0A04207D0604505D0A84203D0EF
:100E6000B04201D0B84203D122F44075CA682A4387
:100E70004D6922F080022A4302608A68C2620A68D1
:100E80008262984201D0A04201D109690163012127
:100E90004161F0BD002C014000040040000800400A
:100EA000000C004000340140FEE70907090E00284D
:100EB00004DB00F1E02080F80014704700F00F0020
:100EC00000F1E02080F8141D704702E008C8121FEE
:100ED00008C1002AFAD170477047002001E001C123
:100EE000121F002AFBD1704730B5234CA588082D6E
:100EF00001D9002030BD02EB83024FF0807342E93C
:100F000002034FF0143042F80C0C4FF0123042F84C
:100F1000100C4FF0033042F8140C4FF0023042F83E
:100F2000180C401042E908104FF0113042F8240C20
:100F30004FF0103042F8280C4FF0093042F82C0CDA
:100F40004FF0083042F8300C4FF0073042F8340CC4
:100F50004FF0063042F8380C4FF0053042F83C0DA7
:100F60004FF0043042F8040D0449A08841F83020C5
:100F7000411CA18030BD000010000020700800203E
:100F80000649054808604FF4805101600021416026
:100F90000172C16001617047300900202400002007
:100FA00000B52023064A00210648FFF79DFF0448AC
:100FB0000549403808614FF0000080F3098800BD02
:100FC000B00800200911000810000020FFF720FAE7
:100FD000FFF7EEFEFFF77AFE00F01AF84FF4807488
:100FE0002346074A00210748FFF77EFF2346064AAB
:100FF00000210648FFF778FF00F011F8FEE7000037
:1010000028000020A910000828040020D91000089A
:1010100010B5FFF7C5FFBDE81040FFF7B1BF10B531
:10102000FFF7A0FEBDE81040FFF7AEBE42F2107120
:10103000B0FBF1F10348826800691144416000F09F
:101040002BB8000010000020F0B511480025114A0F
:10105000838841885C1EA1420ADB022B05D3012153
:101060004180026189B286680FE045800261F0BD6F
:10107000491CF5E702EBC10467680FB1B74203D81A
:10108000656004614180F0BD491C9942F2DBF0BD0E
:1010900010000020700800200248016841F08051D3
:1010A0000160704704ED00E0094D0A4C0122202147
:1010B0002846FFF799F92046FFF7B8FF00222021C4
:1010C0002846FFF791F92046FFF7B0FFEEE7000052
:1010D0000018014040420F00094D0A4C0122202116
:1010E0002846FFF781F92046FFF7A0FF00222021C4
:1010F0002846FFF779F92046FFF798FFEEE7000052
:10110000000C014040420F000248C168491CC16008
:10111000FCE70000100000200000000000000000BC
:10112000010203040607080900000000010203048D
:10113000501100080000002028000000CA0E00081E
:101140007811000828000020201D0000DA0E000899
:101150000100000010000000000000000024F40066
:10116000010000000000000000000000000000007E
:08117000000000000000000077
:0400000508000131BD
:00000001FF
