:020000040800F2
:1000000058880020650600088914000813130008AA
:1000100005140008C3070008CD1600080000000002
:100020000000000000000000000000008906000839
:10003000C507000800000000F506000805070008D5
:100040007F0600087F0600087F0600087F0600087C
:100050007F0600087F0600087F0600087F0600086C
:100060007F0600087F0600087F0600087F0600085C
:100070007F0600087F0600087F0600087F0600084C
:100080007F0600087F0600087F0600087F0600083C
:100090007F0600087F0600087F0600087F0600082C
:1000A0007F0600087F0600087F0600087F0600081C
:1000B0007F0600087F0600087F0600087F0600080C
:1000C0007F0600087F0600087F0600087F060008FC
:1000D0007F0600087F0600087F0600087F060008EC
:1000E0007F0600087F0600087F0600087F060008DC
:1000F000651500087F0600087F0600087F060008D7
:100100007F0600087F0600087F0600087F060008BB
:100110007F0600087F0600087F0600087F060008AB
:100120007F0600087F0600087F0600087F0600089B
:10013000DFF80CD000F016FB004800470D17000850
:10014000588800200246D2E84F0FC2E8431F03B18F
:10015000F9E77047024652E8000F40EA010042E822
:10016000000303B1F7E7704710B5024652E8000FED
:1001700020EA010442E8004303B1F7E710BD10B5DF
:10018000024652E8000F00EA01048C4203D0BFF39C
:100190002F8F002010BD20EA010442E8004303B184
:1001A000EFE710BD10B5024652E8000F084203D138
:1001B000BFF32F8F002010BD20EA010442E8004366
:1001C00003B1F1E710BD024652E8000F411C42E8BE
:1001D000001303B1F8E7704710B50246D2E85F0F8D
:1001E000814202D8BFF32F8F10BD441CC2E8534F89
:1001F00003B1F3E710BD10B50246D2E85F0F441C0F
:10020000A14200D80024C2E8534F03B1F5E710BD66
:10021000024652E8000F411E42E8001303B1F8E71E
:100220007047024652E8000F10B9BFF32F8F704796
:10023000411E42E8001303B1F4E770470246D2E8DA
:100240005F0F10B9BFF32F8F7047411EC2E8531FD5
:1002500003B1F4E77047024652E8000F10B9BFF34C
:100260002F8F7047016842E8001303B1F4E770472D
:1002700002680A60BFF35F8F50E8002F0B6893425B
:10028000F6D140E8001303B1F2E770470246D2E826
:100290004F0FC2E8431F03B1F9E77047024652E827
:1002A000000F40EA010042E8000303B1F7E770479E
:1002B00010B5024652E8000F20EA010442E800436C
:1002C00003B1F7E710BD10B5024652E8000F00EA8F
:1002D00001048C4203D0BFF32F8F002010BD20EA11
:1002E000010442E8004303B1EFE710BD10B5024638
:1002F00052E8000F084203D1BFF32F8F002010BD3A
:1003000020EA010442E8004303B1F1E710BD0246D0
:1003100052E8000F411C42E8001303B1F8E77047B0
:1003200010B50246D2E85F0F814202D8BFF32F8F8B
:1003300010BD441CC2E8534F03B1F3E710BD10B524
:100340000246D2E85F0F441CA14200D80024C2E854
:10035000534F03B1F5E710BD024652E8000F411EAE
:1003600042E8001303B1F8E77047024652E8000F75
:1003700010B9BFF32F8F7047411E42E8001303B13D
:10038000F4E770470246D2E85F0F10B9BFF32F8F32
:100390007047411EC2E8531F03B1F4E7704702469D
:1003A00052E8000F10B9BFF32F8F7047016842E881
:1003B000001303B1F4E7704702680A60BFF35F8F70
:1003C00050E8002F0B689342F6D140E8001303B1C8
:1003D000F2E770470246D2E84F0FC2E8431F03B16D
:1003E000F9E77047024652E8000F40EA010042E890
:1003F000000303B1F7E7704710B5024652E8000F5B
:1004000020EA010442E8004303B1F7E710BD10B54C
:10041000024652E8000F00EA01048C4203D0BFF309
:100420002F8F002010BD20EA010442E8004303B1F1
:10043000EFE710BD10B5024652E8000F084203D1A5
:10044000BFF32F8F002010BD20EA010442E80043D3
:1004500003B1F1E710BD024652E8000F411C42E82B
:10046000001303B1F8E7704710B50246D2E85F0FFA
:10047000814202D8BFF32F8F10BD441CC2E8534FF6
:1004800003B1F3E710BD10B50246D2E85F0F441C7C
:10049000A14200D80024C2E8534F03B1F5E710BDD4
:1004A000024652E8000F411E42E8001303B1F8E78C
:1004B0007047024652E8000F10B9BFF32F8F704704
:1004C000411E42E8001303B1F4E770470246D2E848
:1004D0005F0F10B9BFF32F8F7047411EC2E8531F43
:1004E00003B1F4E77047024652E8000F10B9BFF3BA
:1004F0002F8F7047016842E8001303B1F4E770479B
:1005000002680A60BFF35F8F50E8002F0B689342C8
:10051000F6D140E8001303B1F2E770470246D2E893
:100520004F0FC2E8431F03B1F9E77047024652E894
:10053000000F40EA010042E8000303B1F7E770470B
:1005400010B5024652E8000F20EA010442E80043D9
:1005500003B1F7E710BD10B5024652E8000F00EAFC
:1005600001048C4203D0BFF32F8F002010BD20EA7E
:10057000010442E8004303B1EFE710BD10B50246A5
:1005800052E8000F084203D1BFF32F8F002010BDA7
:1005900020EA010442E8004303B1F1E710BD02463E
:1005A00052E8000F411C42E8001303B1F8E770471E
:1005B00010B50246D2E85F0F814202D8BFF32F8FF9
:1005C00010BD441CC2E8534F03B1F3E710BD10B592
:1005D0000246D2E85F0F441CA14200D80024C2E8C2
:1005E000534F03B1F5E710BD024652E8000F411E1C
:1005F00042E8001303B1F8E77047024652E8000FE3
:1006000010B9BFF32F8F7047411E42E8001303B1AA
:10061000F4E770470246D2E85F0F10B9BFF32F8F9F
:100620007047411EC2E8531F03B1F4E7704702460A
:1006300052E8000F10B9BFF32F8F7047016842E8EE
:10064000001303B1F4E7704702680A60BFF35F8FDD
:1006500050E8002F0B689342F6D140E8001303B135
:10066000F2E770470648804706480047FEE7FEE786
:10067000FEE7FEE7FEE7FEE7FEE7FEE7FEE7FEE752
:1006800063150008310100081EF0040F0CBFEFF3E2
:100690000880EFF30980816911F8021CD9B901B50E
:1006A00090E80F10E047BDE800508CE80300194BBC
:1006B00093E80600914208BF704719B12CE9F00F8A
:1006C000C1F838C01A60906BB0E8F00F80F3098869
:1006D0006FF0020E7047104A13689942FAD801B5BC
:1006E00052F821C00FC8E047BDE80050CCF8000028
:1006F0007047000001B501F0A5FABDE80140EFF335
:10070000098CD4E701B501F0EBFCBDE80140EFF343
:10071000098CCCE780830020802A000840EA01038E
:100720009B0703D009E008C9121F08C0042AFAD2A7
:1007300003E011F8013B00F8013B521EF9D270476B
:10074000D2B201E000F8012B491EFBD27047002213
:10075000F6E710B513460A4604461946FFF7F0FFC0
:10076000204610BD064C074D06E0E06840F001034E
:1007700094E8070098471034AC42F6D3FFF7DCFC4E
:10078000082B0008282B000830B58C1810F8012B16
:1007900012F00F0301D110F8013B120906D110F835
:1007A000012B03E010F8015B01F8015B5B1EF9D13E
:1007B00001E001F8013B521EFBD1A142E6D300202B
:1007C00030BDFEE77047704770477047704770470D
:1007D0007047704770477047704770477047704761
:1007E0007047704770477047704770477047704751
:1007F0007047704770477047704770477047704741
:100800007047704770477047704770477047704730
:100810007047704770477047704770477047704720
:1008200070477047704700002DE9F84FDFF8C89116
:10083000002409F1040A0AF1040B23460F270BF1E7
:10084000040ED1E00125A54006EA0502AA4276D1B0
:10085000DFF8A8C14E68A6EB0C0866452BD00DDC6E
:10086000032E34D005DC36B3012E19D0022E2FD141
:100870001BE0112E16D0122E2AD119E0B8F5881FD0
:1008800019D006DCB8F5803F15D0B8F5801F1FD110
:1008900011E0B8F5001F0ED0B8F5041F18D10AE01A
:1008A000CB6815E0CB681B1D12E0CB6808330FE066
:1008B000CB680C330CE08B682BB1012B4FF0080395
:1008C00003D0456104E0042302E0056100E0002359
:1008D000FF2A01D8064601E000F104064FEA84052C
:1008E00001D9A5F12005D6F8008007FA05FC28EA11
:1008F0000C0803FA05F548EA0508C6F800804D68BB
:10090000ED0070D53E4DAE6946F00106AE61AD69B1
:1009100024F0030605F0010500953A4D06EB050CA1
:10092000DCF80850A607360F07FA06F825EA08058E
:10093000DFF8D480404503D14FF0000825E052E0B5
:10094000DFF8C880404502D14FF001081DE0DFF814
:10095000C080404502D14FF0020816E0DFF8B480B5
:10096000404502D14FF003080FE0DFF8AC8040456E
:1009700002D14FF0040808E0DFF8A080404502D122
:100980004FF0050801E04FF0060808FA06F848EABB
:100990000508CCF808804D68D9F80060ED034D4695
:1009A00001D5164300E096432E604D68DAF80060EA
:1009B000AD03554601D5164300E096432E604D68C1
:1009C000DBF80060ED025D4601D5164300E096437A
:1009D0002E604D68DEF80060AD02754601D5164305
:1009E00000E096432E60641C0A681646E2407FF4DD
:1009F00029AFBDE8F88F000000040140000011108D
:100A0000001002400000014000080140000C0140BD
:100A1000001001400014014000180140001C01407A
:100A2000C26821EA02030A4043EA024101617047B9
:100A30000AB1016170470904FBE7000001488068C2
:100A400070470000508300200248816802781144FA
:100A50008160704750830020074810B5016841F05D
:100A600010010160032000F08FF8002000F006F86C
:100A700000F03EF8002010BD0020024000B5014605
:100A800087B000222C2000F05FF82C2000F04EF8F8
:100A90001348816941F400518161806905A900F41E
:100AA00000500690684600F017F900F035F90D493E
:100AB0000D4AB0FBF1F10D48491E0260416040F261
:100AC000E7320021C0E90321816000F0FDFA10B196
:100AD000012007B000BD054800F024FBF9E7000045
:100AE0000010024040420F000034014010840020FA
:100AF0000C4808B5816941F001018161816901F00B
:100B000001010091C16941F08051C161C06900F0EB
:100B1000805000900448416821F0E06141F080710C
:100B2000416008BD0010024000000140002809DBC0
:100B300000F01F02012191404009800000F1E020F7
:100B4000C0F8001170470000F0B40E4B1B680C4653
:100B5000C3F30223C3F10705042D00D90425191D91
:100B6000072901D2002300E0DB1E012606FA05F169
:100B7000491E214099409E40761E16403143F0BCEC
:100B800000F0A5BD0CED00E0064900F00702086882
:100B90004FF6FF03184040EA0220034A1043086062
:100BA000704700000CED00E00000FA052DE9F04769
:100BB0000F46050061D0434E306800F00700B84290
:100BC00009D2306820F0070038433060306800F008
:100BD0000700B84251D128683B4C810712D5400725
:100BE00003D5606840F4E06060602878000703D5B2
:100BF000606840F4605060606068A96820F0F000B0
:100C0000084360602878C00728D06868012810D0A1
:100C10002168022810D0890700292EDA616821F0A6
:100C2000030101436160FFF709FF804641F2883903
:100C30000DE021688903EFE78901EDE7FFF7FEFE8C
:100C4000A0EB0801494502D90320BDE8F0876068A0
:100C5000696800F00C00B0EB810FEFD1306800F054
:100C60000700B8420BD9306820F0070038433060E5
:100C7000306800F00700B84201D00120E5E728788D
:100C8000400705D56068E96820F4E06008436060CB
:100C90002878000706D56068296920F4605040EA8A
:100CA000C100606000F048F86168084AC1F30311B0
:100CB000515CC8400649086006480068FFF7DEFE40
:100CC0000020C2E70020024000100240C0290008B6
:100CD0005C830020548300200F2202600C4A53687A
:100CE00003F003034360536803F0F0038360536829
:100CF00003F4E063C36052684FF4E06303EAD20296
:100D000002610448006800F00700086070470000B6
:100D1000001002400020024004480549006849686C
:100D2000044AC1F3C221515CC84070475C83002073
:100D300000100240D029000812A185B00FC98DE82B
:100D40000F0014A0144A006804905168134801F081
:100D50000C03042B10D0082B0ED1C1F38343C9031D
:100D60001DF803000AD5516804AAC1F34041515C43
:100D70000A4A5043B0FBF1F005B0704708494843B8
:100D8000FAE7000002030405060708090A0B0C0D28
:100D90000E0F1010010200000010024000127A0035
:100DA00000093D002DE9F84F040070D02078C04DB7
:100DB000C00749D06868C0F38100012807D068687F
:100DC000C0F38100022809D16868C00306D52868ED
:100DD000800339D560680028E7D035E06068B0F559
:100DE000803F0BD010B1B0F5A02F11D0286820F4AF
:100DF00080302860286820F4802002E0286840F4D1
:100E000080302860606890B1FFF718FE06460AE05F
:100E1000286840F480202860F0E700BFFFF70EFE4E
:100E2000801B642873D828688003F7D50CE0FFF78F
:100E300005FE064605E000BFFFF700FE801B6428A4
:100E4000F0D828688003F7D420789A4E80074FF0B6
:100E500001094FF0000839D5686810F00C0F07D071
:100E60006868C0F38100022809D16868C00306D40D
:100E70002868800714D52069012808D110E020696E
:100E8000B0B1C6F80090FFF7D9FD074605E00AE1CA
:100E9000FFF7D4FDC01B0228C4D828688007F7D507
:100EA0002868616920F0F80040EAC10028600DE080
:100EB000C6F80080FFF7C2FD074604E0FFF7BEFD5D
:100EC000C01B022823D828688007F7D420780007A1
:100ED0002CD57948A169D9B1C0F80090FFF7AEFDD3
:100EE000074604E0FFF7AAFDC01B02280FD8686A76
:100EF0008007F7D571484FF4FA510068B0FBF1F064
:100F0000009000BF0098411E0091FAD20EE080E0F0
:100F1000C0F80080FFF792FD074604E0FFF78EFD62
:100F2000C01B022875D8686A8007F7D4207840076C
:100F300060D5E8690027C00008D4E86940F0805017
:100F4000E861E869012700F0805000905C48016882
:100F5000C90513D40168834641F480710160FFF72D
:100F60006DFD824606E000BFFFF768FDA0EB0A00BA
:100F700064284ED8DBF80000C005F5D5E0680128EC
:100F80000AD008B1052813D0286A20F00100286291
:100F9000286A20F0040002E0286A40F0010028627C
:100FA000E06841F2883B98B1FFF748FD82460BE0CC
:100FB000286A40F004002862EEE700BFFFF73EFD1C
:100FC000A0EB0A0159455AD8286A8007F6D50CE0EB
:100FD000FFF734FD824605E0FFF730FDA0EB0A0184
:100FE00059454CD8286A8007F6D41FB1E86920F02B
:100FF0008050E861E06988B36968C1F38101022922
:1010000044D00228C6F8608004D0FFF717FD0446DC
:1010100038E034E0FFF712FD074604E0FFF70EFD6D
:10102000C01B02282BD828688001F7D4206AB0F5AD
:10103000803F05D16868A16820F4003008436860EB
:10104000D4E908010843696821F474110843686011
:10105000C6F86090FFF7F2FC044606E025E000BF0A
:10106000FFF7ECFC001B022809D828688001F7D59F
:101070001BE000BFFFF7E2FC001B022802D903209F
:10108000BDE8F88F28688001F4D40EE00128F7D07D
:101090006868226A00F48031914204D1616A00F4E8
:1010A0007010884201D00120EAE70020E8E7000044
:1010B0000010024000004242800442425C83002053
:1010C000007000407047704710B5040003D094F8DA
:1010D0003D0010B107E0012010BD002084F83C0065
:1010E000204600F01EF8022084F83D00211D2068F3
:1010F00000F03EFA012084F8460084F83E0084F8AF
:101100003F0084F8400084F8410084F8420084F8ED
:10111000430084F8440084F8450084F83D00002032
:1011200010BD704790F83D10012901D00120704793
:10113000022180F83D100168CA6842F00102CA60CD
:1011400000680E4988420ED00D4988420BD0B0F19C
:10115000804F08D00B49884205D00B49884202D005
:101160000A49884204D1816801F00701062903D0A9
:10117000016841F00101016000207047002C01402E
:10118000003401400004004000080040000C004012
:10119000704770B50446006801694FF00005C94307
:1011A000890715D4C168C943890711D4E91E0161B3
:1011B00001202077206880698007204602D0FFF751
:1011C000E7FF04E000F098F8204600F096F8257755
:1011D00020680169C943490717D4C168C943490751
:1011E00013D46FF004010161022020772068806928
:1011F00010F4407F204602D0FFF7CAFF04E000F061
:101200007BF8204600F079F8257720680169C9430A
:10121000090716D4C168C943090712D46FF0080141
:101220000161042020772068C0698007204602D031
:10123000FFF7AEFF04E000F05FF8204600F05DF835
:10124000257720680169C943C90617D4C168C94315
:10125000C90613D46FF010010161082020772068BF
:10126000C06910F4407F204602D0FFF791FF04E0F0
:1012700000F042F8204600F040F825772068016928
:10128000C943C90708D1C168C943C90704D1891E28
:101290000161204600F032F820680169C94309065F
:1012A00009D4C168C943090605D46FF08001016102
:1012B0002046FFF707FF20680169C943490609D4A2
:1012C000C168C943490605D46FF040010161204659
:1012D00000F01EF820680169C94389060BD4C16873
:1012E000C943890607D46FF0200101612046BDE89B
:1012F0007040FFF7E8BE70BD704770470068034953
:10130000884201D1FFF7A0BB7047000000340140C4
:101310007047FEE7EFF3108018B9EFF31180002853
:1013200000D001207047EFF3108018B9EFF311805F
:10133000002800D001207047EFF3108018B9EFF3B8
:101340001180002800D001207047EFF3108018B9F9
:10135000EFF31180002800D001207047EFF30580E3
:10136000002800D001207047EFF30580002800D04E
:1013700001207047EFF30580002800D0012070475E
:10138000EFF30580002800D00120704770B586B0CB
:10139000002000900190029003901748816941F06D
:1013A00008018161816901F008010491816941F0BE
:1013B000400181618069114D00F0400004900122DC
:1013C00020212846FFF734FB0D4E01222021304614
:1013D000FFF72EFB012103202024CDE90210CDE9E7
:1013E000004169462846FFF71FFA694630460094D7
:1013F000FFF71AFA06B070BD00100240000C014061
:1014000000180140FEE710B504462830FEF7ADFF96
:1014100050B1E46A05E00121A01CFEF737FF20B1BE
:10142000A468002CF7D100E00024204610BD30B4A1
:10143000026BB2B10023CC7802E01346526812B1BD
:10144000D578A542F9D3C1E901230AB1916000E042
:10145000C1620BB1596000E0016330BC2830FEF777
:1014600056BF00224A608A60C162F5E7D1E90132C5
:101470000BB19A6000E0C2628A6812B1486850609D
:101480007047496801637047FEE74FF0E02000694C
:10149000704700000748017829B100210170064912
:1014A0004FF0806008604FF0E020016941F00101D9
:1014B000016170476883002004ED00E04FF0FF30C9
:1014C000704700004FF0FF3138B10B4A1268B2FB91
:1014D000F0F0401EB0F1807F01D308467047074A04
:1014E000FF2111704FF0E02106220A6148610020BF
:1014F00088610349087070475C83002023ED00E099
:101500006883002030B58FB028216846FFF71FF9A7
:1015100014210AA8FFF71BF901210804CDE90010E6
:101520000024029402250491CDE907504FF4E01005
:1015300009906846FFF736FC08B172B6FEE70F2047
:10154000CDE90A054FF48060CDE90C4002210AA8DC
:101550000E94FFF72BFB002801D072B6FEE70FB008
:1015600030BD70470148FFF714BE00001084002012
:10157000F0B502681C4B1D4D1D4E1E4F1E4C4FF00A
:10158000804C984209D0A04207D0604505D0A842BF
:1015900003D0B04201D0B84204D122F0700E4A68A4
:1015A00042EA0E02984209D0A04207D0604505D019
:1015B000A84203D0B04201D0B84203D122F4407512
:1015C000CA682A434D6922F080022A4302608A6871
:1015D000C2620A688262984201D0A04201D10969C0
:1015E000016301214161F0BD002C01400004004075
:1015F00000080040000C004000340140054C4FF44E
:10160000FA7520212046FFF70BFA284600F0A8F8CB
:10161000F7E7000000180140054C4FF47A752021CF
:101620002046FFF7FDF9284600F09AF8F7E700009A
:10163000000C0140930707D4D20700F1280001D025
:10164000FEF789BFFEF79ABF806AD30702D031EA5E
:10165000000304D102F0010201400A4300D100203E
:101660007047000010B5074A0021074800F0D4FD7C
:10167000064C044A002120602432054800F0CCFDCD
:10168000606010BDD8290008FD15000860830020A7
:101690001916000830B50C4C0023626C02E01346AA
:1016A000D268491B12B115698D42F8D98360C0E92F
:1016B00003211AB11569691A116190600BB1D860E4
:1016C00030BD606430BD00006C830020FEE7090778
:1016D000090E002804DB00F1E02080F800147047B8
:1016E00000F00F0000F1E02080F8141D704702E0C8
:1016F00008C8121F08C1002AFAD17047704700209D
:1017000001E001C1121F002AFBD1704708B5FFF7A5
:10171000A3F9FFF7F7FE1148816941F010018161DB
:10172000816901F010010091816941F0040181613A
:10173000816901F004010091816941F00801816132
:10174000806900F008000090FFF720FE00F020F80C
:10175000FFF788FF00F034F8FEE7000000100240B9
:1017600010B50446FFF72FF8FFF7F8FD10B9FFF7A3
:10177000D1FD30B16FF005042046FFF726F8204672
:1017800010BD2046DFF804C000DF10BD5122000864
:1017900010B500F0DBF8FFF71CF8FFF7E5FD10B916
:1017A000FFF7C1FD30B16FF005042046FFF710F8D8
:1017B000204610BDDFF804C000DF10BD792200080C
:1017C00010B5FFF708F8FFF7CFFD10B9FFF7ABFD35
:1017D00030B16FF005042046FEF7FAFF204610BD39
:1017E000DFF804C000DF10BDB12300082DE9F0418F
:1017F0001F4616460D460446FEF7F8FFFFF7BAFDF2
:1018000010B9FFF799FD68B324B12078FA2801D107
:1018100005B137B16FF0030529462046FEF7E5FF15
:101820001DE02046FFF7EFFD070012D007F10C0185
:101830002846626AFEF772FF0EB1F87830703846BB
:10184000FC6000F031FA29462046FEF7DAFF002559
:1018500005E029462046FEF7D0FF6FF00205284636
:10186000BDE8F0812046294632463B46DFF804C0F9
:1018700000DFF5E75124000870B514460D46064612
:10188000FEF7B9FFFFF776FD10B9FFF755FD30B150
:101890006FF005010020FEF7A8FF002070BD304664
:1018A00029462246DFF804C000DF70BD5D25000830
:1018B0002DE9F0411E4617460D460446FEF79EFFF1
:1018C000FFF758FD10B9FFF737FD88B324B1207832
:1018D000FA2801D105B136B16FF00305294620463B
:1018E000FEF783FF21E004F10C0000F0B2F80600DF
:1018F00015D0294606F10C00626AFEF70FFFF920A9
:1019000030700020B070F770C6E90154304600F026
:10191000CBF929462046FEF76CFF002505E0294655
:101920002046FEF769FF6FF002052846BDE8F0810A
:10193000FFE7204629463A463346DFF808C000DF75
:10194000F4E700008D260008FEE7FEE770472DE96A
:10195000F041040014D099B1900811D101F10F00A9
:1019600020F0070304F10800056847682E1A27F0E5
:101970000307F61B9E420AD228462D68002DF3D19C
:1019800000232046FEF729FF0020BDE8F0816668AD
:101990001E4466602568083D25446F68B74200D242
:1019A0006E60456875B125F003050544134306686C
:1019B000C5E90063056008352B462046FEF70DFF9C
:1019C0002846E2E7134300F108054360F4E770B5E9
:1019D000C8B1C1B1A1F10802002400F1080302E07E
:1019E0001C461B687BB19342FAD15E68456826F0BD
:1019F0000306AD1B45605CB11A6822600122FEF748
:101A0000F0FE012070BD0022FEF7EBFE002070BD4D
:101A100000225A60F2E770B528B1420703D14A07A5
:101A200001D1182904D20022FEF7DCFE002070BD8F
:101A3000A1F10803034410248360C0E900140025C9
:101A40001D60836801225C60C560FEF7CBFE01204B
:101A500070BD70B504000ED004F11400FEF7FBFB5E
:101A6000050002D0201DFEF7AEFB29462046FEF7FA
:101A7000B5FE284670BD00210846FEF7AFFE0020E7
:101A800070BD70B504000D4605D0E068A84202D8CC
:101A90002069A84207D86FF0030632462046FEF7B9
:101AA0009EFE304670BD04F11400FEF7E1FB201DE0
:101AB000FEF7AEFB002229462046FEF790FE0020EE
:101AC00070BD2DE9F0411C4616460D4688B185B122
:101AD0007EB174B1C0E9026405FB0641C0E904149B
:101AE0000027C0E90057234632462946FEF778FE14
:101AF00005E00020BDE8F081A019206004466D1EBD
:101B0000FAD101202760F5E72DE9F04104468078FD
:101B10000026B8B3E56821462846FFF7A7FC2670E3
:101B2000214605F10C00B0460446FFF7AAFFA8685D
:101B300000285DD02046FFF78CFF040058D02846CF
:101B400000F0FEF900220646114600F0B1FA3046D8
:101B500000F048FA86680746314604F10C006A6ACC
:101B6000FEF7DCFDF920207084F80280387BE070FD
:101B700021462846FFF75BFC31462846BDE8F04188
:101B8000FEF738BED4E90115A86810B14078832863
:101B900008D02846FEF72EFE21462846BDE8F04133
:101BA000FFF745BC2846FEF725FE284600F0C8F999
:101BB00000220746114600F07BFA384600F012FA80
:101BC0000746806804F10C0180466A6AFEF7A6FDAC
:101BD000F86808B1E178017041462846FEF711FE29
:101BE0002670214605F10C00BDE8F041FFF749BF22
:101BF000BDE8F0812DE9F041044600271EE0E078C1
:101C00006669000719D5277600212046FEF7FCFDFE
:101C1000A06890B1204600F093F9002205461146D5
:101C200000F046FAE560E86AC4E904700120EC625D
:101C3000207601462046FEF7E6FD3446002CDED134
:101C4000BDE8F08170B5174C04F15605B4F8546046
:101C50002846FEF73BFCF8B1124831465A30FEF7F1
:101C600012FCE16D51F82000B0B10178F139092979
:101C7000ECD2DFE801F006050805050A0C050E00A8
:101C8000E4E7216E06E0616E04E0A16E02E0E16E21
:101C900000E0216F8847D9E7BDE87040002000F0E0
:101CA000F7B800006C83002070B5114C054604F1B4
:101CB0005600B4F854603146FEF7D6FBB0420CD261
:101CC000314604F15800FEF7DEFBE16D41F820508B
:101CD000607A40B10120A07270BD2946BDE8704015
:101CE0000220FFF731BE03494FF08050086070BDFD
:101CF0006C83002004ED00E030B401210A4A4170F9
:101D000090F92030516A1C3201E00A46896819B105
:101D100091F920409C42F8DCC0E90212906001B1C8
:101D2000C86030BCFEF77BBD6C83002030B5154C1D
:101D30004A1C02D00023E26A12E00022236B01E079
:101D40001A461B69002BFBD1C1610021C0E90412B6
:101D50000AB1106130BD206330BD13461269491BC2
:101D600012B1D5698D42F8D9C161C0E904230BB124
:101D7000186100E0E062002AEED0D369591AD161FF
:101D8000506130BD6C83002030B5C2690F4C0169D1
:101D9000551C4FF0000309D029B1CD692A44CA610E
:101DA000D0E904124A61416929B90BE009B14269DD
:101DB0004A61416919B102690A61436130BD006934
:101DC000206330BD0069E06230BD00006C830020FC
:101DD00070B52E4DEC6A002C57D0E069401EE061D2
:101DE00053D16078632824D008DC13280DD0332821
:101DF0000FD0432811D0532832D114E073281ED0BD
:101E0000832822D093282BD125E02046FEF7DCFC46
:101E100026E02046FEF700FD22E0204600F0B8F85C
:101E2000FEF7D5FC1CE0204600F0B2F8FEF7EAFC15
:101E300016E0204600F0ACF8FEF7E7FC10E0204684
:101E400000F0A6F8FEF7CFFC0AE0204600F0A0F86C
:101E5000FEF7CEFC04E0204600F09AF8FEF7D0FC36
:101E6000204600F0BFF801682046FEF7DAFC204665
:101E700000F082F8204600F0ADF8246924B1E06952
:101E80000028AED000206061EC6270BD6C83002041
:101E900010B515490400087A4B6902D002280FD00A
:101EA0001CE04C6A02281ED1002C1CD094F92000A2
:101EB00093F92010884216DD204600F05DF805E019
:101EC00094F9200093F92010884207DD1846FFF7A7
:101ED00013FF2046BDE8104000F0BAB82046BDE828
:101EE000104000F077B810BD6C83002070B5044638
:101EF000002060702070A078104D81070AD5216BFA
:101F0000C00604D5D5F88400FFF7BBFD02E0686F7A
:101F1000FFF75DFDA078C0070ED0D5F8880020B18E
:101F20002146BDE87040FFF7ACBD2146D5F88000E2
:101F3000BDE87040FFF74BBD70BD00006C83002012
:101F400081688A6882608A6802B1D0600020C860B7
:101F50000846704710B591F9203082682AB192F98D
:101F600020409C4201DB1046F7E7C1E90220816076
:101F7000002A00D0D16010BDC168002907D0826856
:101F80008A60816809B1C268CA600021C160704777
:101F900000E0C0680178F129FBD0704770B50446B5
:101FA0004078332815D194F823202046616AFFF742
:101FB00041FB05000DD001460022204600F078F8D4
:101FC00094F8231023462A46606ABDE87040FEF765
:101FD00022BC70BD0121417001460148FFF7BABF24
:101FE00088830020806B20307047000007484169DB
:101FF00000290AD08A6B086B824203D90068044A20
:10200000904202D00120FFF79FBC70476C830020F4
:10201000A52E5AE270B50A4E012400210948B26D7E
:1020200000F0E8FB084DA862706E38B10021074847
:10203000F26D00F0DFFBA86400B90024204670BDFB
:10204000A02A00084B1900086C83002059210008C1
:1020500010B504460220607004488461FFF7C6FF93
:102060002046BDE81040FEF7DBBB00006C8300207B
:1020700070B505460D480E46017A022913D1416A12
:1020800089B1446931462046FEF7C0FB6570314690
:102090002046FFF74BFE05481C30FFF751FFFFF7C6
:1020A000D7FF012070BD002070BD00006C830020B0
:1020B00070B514460D460646FEF7B3FB3046FFF7F3
:1020C00091FF05603046FFF75FFE30461CB1BDE86A
:1020D0007040FFF7DDBEBDE87040FFF77BBF00003A
:1020E00070B5FFF7D2F91B4CE068401CE060206D32
:1020F00000B18047FFF76CFE0020FFF7C9FE206C9F
:10210000002805D0A269A16B914202D0C4E90E203B
:1021100070BDE06B10B1401EE063F9D1207A022857
:10212000F6D1656A002DF3D095F9200091F92010C1
:102130008842EDD12846FFF71FFFA06BFFF74AFF4B
:10214000A06BFEF76CFB2846FFF782FFA563206CAF
:10215000E06370BD6C8300201CB50E480821D0E9F7
:102160001820FFF789FB0C4C4FF0FF35E0640B485B
:1021700020652B4600226946E06CFFF737FB0028FC
:10218000F7D1DDE90001FEF74DFBDDE900108847DE
:10219000EFE70000A02A00086C830020A1210008BE
:1021A00070B5154D6C6C002C20D02069401E20614C
:1021B0001AE0E06808B1A1688160E0686864002303
:1021C0001A4604F11801E86CFFF772FB18B12146BA
:1021D0000320FFF7B9FBE078012808D001206070E8
:1021E0006C6C002C02D020690028E2D070BD204623
:1021F0006169FFF74FFAF3E76C830020FEF70AFBF3
:10220000DFF810C000DF4FF0FF310020FEF701FBC8
:10221000FEE700007D27000870B514460D4606460F
:10222000FEF7FCFAFFF7ACF810B9FFF78EF830B103
:102230006FF005010020FEF7ECFA002070BD30467B
:1022400029462246DFF804C000DF70BDF5270008EC
:1022500010B504000CD001461320FFF709FF18B198
:102260002046FEF7B3FA03E002484069FEF7ACFAF5
:10227000002010BD6C83002070B54B4D287A0128DA
:1022800007D050B14FF0FF342046FEF7A1FA2046A8
:1022900070BDFEF79FFA002070BD43489C210830B6
:1022A000FEF755FA414CE068E865208AA5F854002D
:1022B000A0682864D4E90B01FFF7ADFB10B1E06A18
:1022C000C5F88000D4E90501FFF7A5FB08B16069F6
:1022D00001E0D5F880006867D4E90701FFF79BFBB0
:1022E00008B1E06901E0D5F88000A867D4E90901E8
:1022F000FFF791FB08B1606A01E0D5F88000E8675C
:10230000606B38B1D0E902230168FFF7DAFB606B3C
:10231000C5F88400A06B38B1D0E902230168FFF74B
:10232000D0FBA06BC5F88800E06B38B1D0E9022380
:102330000168FFF7C6FBE06BC5F88C00206C38B174
:10234000D0E902230168FFF7BCFB206CC5F89000C0
:10235000606C38B1D0E902230168FFF7B2FB606C12
:10236000C5F89400A06C38B1D0E902230168FFF7EA
:10237000A8FBA06CC5F89800E06C38B1D0E9022346
:102380000168FFF79EFBE06CC5F89C00206D38B13A
:10239000D0E902230168FFF794FB206DC5F8A00087
:1023A0000120287275E700006C830020A02A000835
:1023B00070B5234D4FF0FF34287A012801D0A01FBB
:1023C00021E0FFF727FEE8B11E48FF2101700078E9
:1023D00060F0FF00C043B0FA80F0C0F1200119485E
:1023E00016380068C0F302228A4200D3511CFE2036
:1023F00088401449C91E0870134E14497068FFF7CD
:1024000061F820B12046FEF7E3F9204670BDFFF7E2
:1024100055F82861FFF73EF809481C30FFF790FD9A
:10242000FFF716FE3078C00701D0022000E003203D
:1024300080F3148802202872FEF7CEF9002070BDC8
:102440006C83002022ED00E0A02A000805070008A8
:102450002DE9F041984616460F46040050D02078EA
:10246000FA284DD1F7B32046FEF7CDFF05004FD037
:1024700001462046FEF7FAFF05F10C013846626A74
:10248000FEF74CF90EB1E878307039462046FEF779
:10249000B8F94FF0000885F80080294604F10C00D7
:1024A0000546FFF7EEFAA06838B32846FFF7D1FAE1
:1024B000050022D02046FFF743FD064601220021F9
:1024C000FFF7F6FD3046FFF78DFD8668074631467B
:1024D00005F10C00626AFEF721F9F920287085F8F1
:1024E000028000E00CE0387BE87029462046FEF7C9
:1024F0009EFF31462046FEF77DF90020BDE8F081C1
:102500006FF0030529462046FEF76FF92846F5E7E8
:10251000B8F1000019D0024639462046FEF767F9A7
:1025200041468320FFF7A4FD48B10B48416920468E
:10253000FFF710FDEFF30980C0E9027602E02046C4
:10254000FEF756F96FF00100D8E739462046FEF74E
:1025500054F96FF00200D1E76C8300202DE9F84FA9
:10256000894606006FF003012ED0B9F1000F2BD081
:1025700009F1030020F0030000F10C08B6FA86F31D
:10258000B8FA88F0184420281ED306FB08F0DFF8BC
:10259000F4B00090F2B1D2E90450D2F800A09468EF
:1025A000491F2CB1A3070FD1D268342A0CD301E004
:1025B000D2684AB96FF009012DB1AA0704D1009A77
:1025C000904201D30AE048B10020FEF70EF9002046
:1025D000BDE8F88F4FF0000A554603E014B100271C
:1025E00095B11EE0DBF8A01019B10846FFF731FAEB
:1025F00005E001223421DBF88000FFF7A8F9040090
:102600004FF00107ECD135E00022DBF87C000099A7
:10261000FFF79DF905001DD00099FEF798F847F0E7
:102620000207FA202070A7700020C4E901A0C4E9C5
:102630000990E06220632B464246314604F10C00CB
:10264000FFF73FFA1049CBF8701020466168FEF79B
:10265000CBF814E0F8070CD0DBF8A02022B121461B
:102660001046FFF70EFA04E02146DBF88000FFF782
:10267000AEF900246FF004010020FEF7B6F8204602
:10268000A6E700006C830020091B00082DE9F0413B
:10269000984616460F46040024D02078FA2821D107
:1026A00007B3A06810B14078832823D004F10C0050
:1026B000FFF7CFF905003AD0394605F10C00626A00
:1026C000FEF72CF8F92028700020A870EE7029463B
:1026D0002046FEF7ACFE39462046FEF78BF8002078
:1026E000BDE8F0816FF0030529462046FEF77DF82E
:1026F0002846F5E72046FEF77DF82046FFF720FC48
:10270000054601220021FFF7D3FC2846FFF76AFCAB
:102710000546806839468046626AFDF7FFFFE86833
:1027200000B1067041462046FEF76BF8D7E7B8F1D6
:10273000000019D0024639462046FEF760F84146AF
:102740009320FFF795FC48B10B4841692046FFF7FD
:1027500001FCEFF30980C0E9027602E02046FEF7B3
:102760004FF86FF00100BBE739462046FEF744F80A
:102770006FF00200B4E700006C83002070B51C4DC0
:10278000287A022832D1686A00282FD06C69E06A62
:10279000FFF730FAA06930B100221146FFF788FC3C
:1027A000A069FEF73AF8EFF30980A06310481C30E7
:1027B000FFF7C6FBFFF74CFC00206861E078C0071C
:1027C00001D0A06918B12046FFF790FB09E0042072
:1027D00060700020E060686BA060686B00B1C4604E
:1027E0006C632046BDE87040FEF712B870BD000073
:1027F0006C8300202DE9F74F82B05FEA000B10D008
:10280000DFF8A8915AB310680090D2E90560D2E9C8
:1028100001A4156980466FF008014CB1A00728D1CA
:1028200002E06FF0030124E0D068442821D301E0E6
:10283000D068F0B96FF00A0115B1680719D1C6B1B7
:102840005FEA080005D0401E382804D36FF00B0162
:102850000FE04FF018089EB170070AD107E0002082
:102860008246054606464FF0180800900CE0482EB8
:1028700006D20020FDF7CDFF002005B0BDE8F08FA7
:1028800014B1002795B129E0D9F8881019B108468C
:10289000FFF7DFF805E001224421D9F88000FFF7B7
:1028A00056F804004FF00107ECD178E066B94048D3
:1028B000D9F88410466D39B10846FFF7CAF805000B
:1028C0005DD047F0100707E000223146D9F87400C8
:1028D000FFF73DF8051E52D047F00207F1202070A7
:1028E00001206070A77084F803A000986060002049
:1028F000A060E06020616061A061E06184F82080F8
:1029000084F82180FD2184F8221084F8230060627D
:10291000A919C4F83CB04039A062C4E90D61C4E90A
:102920000B05244929602249097849070AD56FF027
:10293000100111EB960105D04FF0CC3245F8042F71
:10294000491EFBD1A16B002241F82200521C0D2A26
:10295000FAD11948C1E90D0B4FF08070C863039894
:1029600008621649C9F8601020466268E16BFDF7FD
:102970004EFF14B12046FFF78BFA20467DE7F8079B
:102980000CD0D9F8882022B121461046FFF779F8FB
:1029900004E02146D9F88000FFF719F800246FF011
:1029A00004010020FDF735FFE7E700006C830020FD
:1029B000A02A0008A52E5AE2FD2100089D1F00084C
:1029C00000000000000000000102030406070809DF
:1029D0000000000001020304842A00080000000037
:1029E00000000000000000000000000000040000E3
:1029F0000B00000000000000000000008C2A00080E
:102A000000000000000000000000000000000000C6
:102A1000000800000C0000000000000000000000A2
:102A20000000000000000000C480002044000000FE
:102A300050810020000100000100000000000000A3
:102A400000000000000000000000000008810020DD
:102A50004400000050820020000100002800000017
:102A60000000000000000000000000000000000066
:102A700040800020340000007480002050000000DE
:102A8000000000005468726561643100546872652A
:102A9000616432005254582056352E352E300000D5
:102AA00003000000E8030000050000000080002093
:102AB0001000000000000000000000000000000006
:102AC00000000000000000000000000000000020E6
:102AD0000080000000000000000000000000000076
:102AE00000000000000000000000000000000000E6
:102AF0000000000000010000202A0008442A00080D
:102B0000682A000804000000282B000800000020AC
:102B10001084000088070008442C0008108400205E
:102B200048040000FE16000801FF01FF01FF01FF3D
:102B300001FF01FF01FF01FF01FF01FF01FF01FF95
:102B400001FF01FF01FF01FF01FF01FF01FF01FF85
:102B500001FF01FF01FF01FF01FF01FF01FF01FF75
:102B600001FF01FF01FF01FF01FF01FF01FF01FF65
:102B700001FF01FF01FF01FF01FF01FF01FF01FF55
:102B800001FF01FF01FF01FF01FF01FF01FF01FF45
:102B900001FF01FF01FF01FF01FF01FF01FF01FF35
:102BA00001FF01FF01FF01FF01FF01FF01FF01FF25
:102BB00001FF01FF01FF01FF01FF01FF01FF01FF15
:102BC00001FF01FF01FF01FF01FF01FF01FF01FF05
:102BD00001FF01FF01FF01FF01FF01FF01FF01FFF5
:102BE00001FF01FF01FF01FF01FF01FF01FF01FFE5
:102BF00001FF01FF01FF01FF01FF01FF01FF01FFD5
:102C000001FF01FF01FF01FF01FF01FF01FF01FFC4
:102C100001FF01FF01FF01FF01FF01FF01FF01FFB4
:102C200001FF01FF01FF01FF01FF01FF01FF01FFA4
:102C3000015942019210E324F4099D942A0008D01E
:042C4000B3FB0200E0
:0400000508000131BD
:00000001FF
