:020000040800F2
:1000000068140020DD010008DB1900084D18000805
:10001000D919000889070008611D000800000000C8
:100020000000000000000000000000004501000882
:100030008B0700080000000089010008E51900088E
:10004000F7010008F7010008F7010008F7010008B0
:10005000F7010008F7010008F7010008F7010008A0
:10006000F7010008F7010008F7010008F701000890
:10007000F7010008F7010008F7010008F701000880
:10008000F7010008F7010008F7010008F701000870
:10009000F7010008F7010008F7010008F701000860
:1000A000F7010008F7010008F7010008F701000850
:1000B000F7010008F7010008F7010008F701000840
:1000C000F7010008F7010008F7010008F701000830
:1000D000F7010008551D0008F7010008F7010008A6
:1000E000F7010008F7010008F7010008F701000810
:1000F000F7010008F7010008F7010008F701000800
:10010000F7010008F7010008F7010008F7010008EF
:10011000F7010008F7010008F7010008711A00084C
:10012000F7010008F7010008F7010008F7010008CF
:10013000DFF80CD000F016FB00480047DD27000870
:1001400068140020224B19680868B0E8F00F80F3AB
:100150000988BFF36F8F4FF0000080F311884EF0D5
:100160000D0E70470000000006480068006880F32C
:10017000088862B661B6BFF34F8FBFF36F8F00DFA1
:1001800000BF00BF08ED00E0EFF30980BFF36F8F01
:100190000F4B1A6820E9F00F106008B54FF05000BF
:1001A00080F31188BFF34F8FBFF36F8F02F0B4FE5F
:1001B0004FF0000080F31188BDE808401968086816
:1001C000B0E8F00F80F30988BFF36F8F704700BF6E
:1001D00030000020EFF3058070470000064880479C
:1001E00006480047FEE7FEE7FEE7FEE7FEE7FEE71C
:1001F000FEE7FEE7FEE7FEE76F1A000831010008A0
:10020000202A04DB203A21FA02F00021704721FA6B
:1002100002F3D040C2F120029140084319467047D2
:1002200040EA01039B0703D009E008C9121F08C078
:10023000042AFAD203E011F8013B00F8013B521EF8
:10024000F9D27047D2B201E000F8012B491EFBD26F
:1002500070470022F6E710B513460A4604461946D1
:10026000FFF7F0FF204610BD2DE9FE4F804681EAE2
:100270000300C00F0C46009021F0004123F0004520
:10028000B8EB0200A94105D24046214690461C46E3
:100290000B46024623F00040104347D0270DC7F31A
:1002A0000A00C3F30A510290401A019040286BDA09
:1002B000C3F3130040F4801B0098924620B1002342
:1002C000D2EB030A63EB0B0B01985946C0F14002D5
:1002D000504600F0B7F806460D4650465946019A7A
:1002E00000F0BFF810EB08006141002487EA1152CA
:1002F00084EAE7731A4340D0009A62B3019A012A54
:100300004FEA075215DC001B61EB02014FF000427F
:1003100002EA0752CDE90042001C41F58011324645
:100320002B4600F0BFF803B0BDE8F08F40462146F1
:10033000F9E7001B61EB0201001C41F58013001876
:100340005B412018A2F5001747EB030140EAD57086
:10035000B6196D4111E06D084FEA360645EAC075E1
:100360004FEA0752001B61EB0201001C41F58011AE
:1003700049084FEA30000019514132462B4603B07C
:10038000BDE8F04F00F07FB8009801224000002344
:10039000D0EB020263EBE073009821464FEAE07471
:1003A000B8EB000061EB0401E9E783F000435BE791
:1003B00081F0004158E730B50B460146002020226D
:1003C000012409E021FA02F59D4205D303FA02F562
:1003D000491B04FA02F52844151EA2F10102F1DCC2
:1003E00030BD2DE9F05F0546002092469B468846C9
:1003F0000646814640241BE02846414647462246A1
:10040000FFF7FEFE53465A46C01A914110D31146DB
:100410001846224600F016F82D1A67EB01084F46E1
:1004200022460120002100F00DF817EB00094E4193
:10043000201EA4F10104DFDC484631462A4643462B
:10044000BDE8F09F202A04DB203A00FA02F10020E8
:1004500070479140C2F1200320FA03F31943904002
:100460007047202A06DBCB17203A41FA02F043EA14
:10047000E07306E041FA02F3D040C2F1200291405D
:1004800008431946704710B5141E73F1000408DACA
:10049000401C41F1000192185B411A4301D120F048
:1004A000010010BD2DE9F04D92469B4611B1B1FA05
:1004B00081F202E0B0FA80F220329046FFF7C2FFEC
:1004C00004460F4640EA0A0041EA0B0153465A46E9
:1004D000084313D0114653EA010019D0C8F1400275
:1004E0005046FFF78DFE05460E4650465946424699
:1004F000FFF7A8FF084305D0012004E02046394655
:10050000BDE8F08D0020054346EAE0762C433743F2
:100510000A986305E40AA0EB08000022FD0A44EAF9
:1005200047540A3002D500200146E9E701051019B9
:100530006941DDE9084500196941BDE8F04DA2E7D0
:100540002DE9FE4F81EA030404F0004421F000414C
:1005500000944FF0000B23F0004350EA01045ED0FA
:1005600052EA03045BD0C3F30A54C1F30A552C4486
:10057000A4F2F3340194A0FB0254C1F3130141F43B
:100580008011C3F3130343F4801301FB024400FB07
:10059000034E840A970A44EA815447EA8357A4FB2E
:1005A000076802958D0A05FB07854FEA932C04FB2B
:1005B0000C542705029D4FEA065847EA1637B5EB5B
:1005C00008056EEB070C870E920E47EA811742EA88
:1005D0008312A7FB0201B6EB0B0164EB00042B0DA9
:1005E00043EA0C335E1844EB1C50DA465146E7FBF5
:1005F0000201C5F313044FEA0B3343EA14534FEAE5
:100600000432019C43EA0603A4F10C040294009C0A
:10061000CDE900B4FFF746FF03B0BDE8F08F00203E
:100620000146F9E72DE9F04D81EA030404F0004B9F
:1006300021F0004514464FF0000A23F0004150EA33
:10064000050220D054EA01021DD0C5F30A57024624
:10065000C5F31303C1F31300C1F30A5640F4801528
:1006600043F48013A7EB0608101BD64608F2FD38AA
:1006700073EB050002D308F1010801E092185B4119
:10068000B8F1000F03DA00200146BDE8F08D00202C
:100690004FF48011064684460EE0171B73EB0507E6
:1006A00005D3121B63EB050306434CEA010C490812
:1006B0004FEA300092185B4150EA0107EDD152EA4F
:1006C000030012D082EA040083EA0501084305D042
:1006D000101BAB4106D20122002306E000224FF09E
:1006E000004302E06FF0010253101AEB06004CEBDE
:1006F000085110EB0A0041EB0B01BDE8F04DFFF78C
:10070000C2BEC1F30A52C1F3130140F2FF3341F4F8
:1007100080119A4202DA00200146704740F23343CA
:100720009A42A2F2334202DC5242FFF769BDFFF760
:1007300089BE000030B5041E71F1000404DB4FF0E7
:100740000044404264EB0101141E73F1000405DB18
:100750001C464FF00043524263EB0403994208BF2A
:10076000904230BD064C074D06E0E06840F00103C2
:1007700094E8070098471034AC42F6D3FFF7DCFC4E
:10078000B4320008D4320008FEE7704772B6FEE7C4
:1007900010B590F821100022022905D004218163B0
:1007A00080F82020012010BD01680B6823F00E03A3
:1007B0000B6001680B6823F001030B6090F8403078
:1007C000C46B012101FA03F3636080F8211080F803
:1007D0002020104610BD00002DE9F05F90F8211098
:1007E0000024022903D004218163012485E00168EB
:1007F0000A6822F00E020A6001680A6822F001020B
:100800000A603F4E3E4FB215DFF8F4C0DFF8F090BB
:10081000DFF8ECA0DFF8E8B0DFF8E4E00168783F4B
:1008200013011502ACF1640CA9F15009AAF13C0ABC
:10083000ABF1280BAEF1140E4FF48018B14227D95A
:10084000B9420ED0614512D049451DD0514518D04E
:10085000594518D0714501D1424615E0294EB142A3
:1008600001D1012210E0274E1436B14201D11022ED
:100870000AE0244E2836B14206D0224A3C32914248
:1008800001D11A4600E02A461E49091F0A602BE0E2
:10089000B94213D0614517D0494522D051451DD0EA
:1008A00059451DD0714501D142461AE0B14202D1ED
:1008B0004FF0807215E0134EB14201D1012210E0D9
:1008C000104E1436B14201D110220AE00D4E2836E6
:1008D000B14206D00B4A3C32914201D11A4600E0A7
:1008E0002A46074980394A60012180F821100021F9
:1008F00080F82010416B01B188472046BDE8F09F89
:1009000080000240080402402DE9F84FDFF8C8914A
:10091000002409F1040A0AF1040B23460F270BF106
:10092000040ED1E00125A54006EA0502AA4276D1CF
:10093000DFF8A8C14E68A6EB0C0866452BD00DDC8D
:10094000032E34D005DC36B3012E19D0022E2FD160
:100950001BE0112E16D0122E2AD119E0B8F5881FEF
:1009600019D006DCB8F5803F15D0B8F5801F1FD12F
:1009700011E0B8F5001F0ED0B8F5041F18D10AE039
:10098000CB6815E0CB681B1D12E0CB6808330FE085
:10099000CB680C330CE08B682BB1012B4FF00803B4
:1009A00003D0456104E0042302E0056100E0002378
:1009B000FF2A01D8064601E000F104064FEA84054B
:1009C00001D9A5F12005D6F8008007FA05FC28EA30
:1009D0000C0803FA05F548EA0508C6F800804D68DA
:1009E000ED0070D53E4DAE6946F00106AE61AD69D1
:1009F00024F0030605F0010500953A4D06EB050CC1
:100A0000DCF80850A607360F07FA06F825EA0805AD
:100A1000DFF8D480404503D14FF0000825E052E0D4
:100A2000DFF8C880404502D14FF001081DE0DFF833
:100A3000C080404502D14FF0020816E0DFF8B480D4
:100A4000404502D14FF003080FE0DFF8AC8040458D
:100A500002D14FF0040808E0DFF8A080404502D141
:100A60004FF0050801E04FF0060808FA06F848EADA
:100A70000508CCF808804D68D9F80060ED034D46B4
:100A800001D5164300E096432E604D68DAF8006009
:100A9000AD03554601D5164300E096432E604D68E0
:100AA000DBF80060ED025D4601D5164300E0964399
:100AB0002E604D68DEF80060AD02754601D5164324
:100AC00000E096432E60641C0A681646E2407FF4FC
:100AD00029AFBDE8F88F00000004014000001110AC
:100AE000001002400000014000080140000C0140DD
:100AF000001001400014014000180140001C01409A
:100B0000C26821EA02030A4043EA024101617047D8
:100B10000AB1016170470904FBE7000001488068E1
:100B200070470000200000200248816802781144CC
:100B30008160704720000020074810B5016841F02F
:100B400010010160032000F095F8002000F006F885
:100B500000F03EF8002010BD0020024000B5014624
:100B600087B00022372000F065F8372000F054F8F5
:100B70001348C16941F02001C161C06905A900F0B5
:100B800020000690684600F01DF900F03BF90D4981
:100B90004000B0FBF1F10D480B4A491E0260416074
:100BA00040F2E7320021C0E90321816000F01EFB22
:100BB00010B1012007B000BD044800F045FBF9E783
:100BC0000010024040420F0000140040300300209B
:100BD0000F4808B5816941F001018161816901F027
:100BE00001010091C16941F08051C161C0690022D9
:100BF00000F0805000900F21901E00F01BF8054877
:100C0000416821F0E06141F08071416008BD000061
:100C10000010024000000140002809DB00F01F0224
:100C2000012191404009800000F1E020C0F800114E
:100C300070470000F0B40E4B1B680C46C3F3022350
:100C4000C3F10705042D00D90425191D072901D278
:100C5000002300E0DB1E012606FA05F1491E2140B3
:100C600099409E40761E16403143F0BC01F08AB890
:100C70000CED00E0064900F0070208684FF6FF039C
:100C8000184040EA0220034A104308607047000001
:100C90000CED00E00000FA052DE9F0470F460500D5
:100CA00061D0434E306800F00700B84209D2306886
:100CB00020F0070038433060306800F00700B84289
:100CC00051D128683B4C810712D5400703D5606895
:100CD00040F4E06060602878000703D5606840F465
:100CE000605060606068A96820F0F00008436060B0
:100CF0002878C00728D06868012810D02168022809
:100D000010D0890700292EDA616821F00301014320
:100D10006160FFF703FF804641F288390DE02168EA
:100D20008903EFE78901EDE7FFF7F8FEA0EB080183
:100D3000494502D90320BDE8F0876068696800F082
:100D40000C00B0EB810FEFD1306800F00700B84223
:100D50000BD9306820F0070038433060306800F06D
:100D60000700B84201D00120E5E72878400705D503
:100D70006068E96820F4E060084360602878000754
:100D800006D56068296920F4605040EAC1006060BF
:100D900000F058F86168084AC1F30311515CC8407B
:100DA0000649086006480068FFF7D8FE0020C2E741
:100DB0000020024000100240903200082C00002069
:100DC000240000200F2202600C4A536803F0030342
:100DD0004360536803F0F0038360536803F4E063F7
:100DE000C36052684FF4E06303EAD2020261044830
:100DF000006800F007000860704700000010024023
:100E0000002002400448054900684968044AC1F3CB
:100E10000221515CC84070472C00002000100240A5
:100E2000A03200080448054900684968044AC1F333
:100E3000C221515CC84070472C00002000100240C5
:100E4000A032000812A185B00FC98DE80F0014A0D0
:100E5000144A006804905168134801F00C03042BF5
:100E600010D0082B0ED1C1F38343C9031DF8030032
:100E70000AD5516804AAC1F34041515C0A4A504363
:100E8000B0FBF1F005B0704708494843FAE70000AD
:100E900002030405060708090A0B0C0D0E0F1010BB
:100EA000010200000010024000127A0000093D001B
:100EB0002DE9F84F040070D02078C04DC00749D00C
:100EC0006868C0F38100012807D06868C0F381001A
:100ED000022809D16868C00306D52868800339D57F
:100EE00060680028E7D035E06068B0F5803F0BD03F
:100EF00010B1B0F5A02F11D0286820F48030286000
:100F0000286820F4802002E0286840F480302860BF
:100F1000606890B1FFF702FE06460AE0286840F4D8
:100F200080202860F0E700BFFFF7F8FD801B6428F1
:100F300073D828688003F7D50CE0FFF7EFFD06466D
:100F400005E000BFFFF7EAFD801B6428F0D82868A1
:100F50008003F7D420789A4E80074FF001094FF0B4
:100F6000000839D5686810F00C0F07D06868C0F326
:100F70008100022809D16868C00306D42868800768
:100F800014D52069012808D110E02069B0B1C6F855
:100F90000090FFF7C3FD074605E00AE1FFF7BEFD3D
:100FA000C01B0228C4D828688007F7D52868616963
:100FB00020F0F80040EAC10028600DE0C6F800808B
:100FC000FFF7ACFD074604E0FFF7A8FDC01B0228B1
:100FD00023D828688007F7D4207800072CD57948D3
:100FE000A169D9B1C0F80090FFF798FD074604E069
:100FF000FFF794FDC01B02280FD8686A8007F7D559
:1010000071484FF4FA510068B0FBF1F0009000BF56
:101010000098411E0091FAD20EE080E0C0F80080F6
:10102000FFF77CFD074604E0FFF778FDC01B0228B0
:1010300075D8686A8007F7D42078400760D5E869DA
:101040000027C00008D4E86940F08050E861E869F2
:10105000012700F0805000905C480168C90513D456
:101060000168834641F480710160FFF757FD8246B5
:1010700006E000BFFFF752FDA0EB0A0064284ED83F
:10108000DBF80000C005F5D5E06801280AD008B1FA
:10109000052813D0286A20F001002862286A20F071
:1010A000040002E0286A40F001002862E06841F292
:1010B000883B98B1FFF732FD82460BE0286A40F08A
:1010C00004002862EEE700BFFFF728FDA0EB0A014D
:1010D00059455AD8286A8007F6D50CE0FFF71EFD5F
:1010E000824605E0FFF71AFDA0EB0A0159454CD8EE
:1010F000286A8007F6D41FB1E86920F08050E861C3
:10110000E06988B36968C1F38101022944D00228EB
:10111000C6F8608004D0FFF701FD044638E034E0F3
:10112000FFF7FCFC074604E0FFF7F8FCC01B0228B1
:101130002BD828688001F7D4206AB0F5803F05D10C
:101140006868A16820F4003008436860D4E90801A9
:101150000843696821F4741108436860C6F8609018
:10116000FFF7DCFC044606E025E000BFFFF7D6FCF5
:10117000001B022809D828688001F7D51BE000BFB2
:10118000FFF7CCFC001B022802D90320BDE8F88F32
:1011900028688001F4D40EE00128F7D06868226A3C
:1011A00000F48031914204D1616A00F470108842E9
:1011B00001D00120EAE70020E8E70000001002402B
:1011C00000004242800442422C0000200070004097
:1011D0004FF0E0210428086903D020F004000861E2
:1011E000704740F00400FAE77047704710B50400FC
:1011F00003D094F83D0010B107E0012010BD00209D
:1012000084F83C00204600F01EF8022084F83D00DF
:10121000211D206800F032FC012084F8460084F88B
:101220003E0084F83F0084F8400084F8410084F8D0
:10123000420084F8430084F8440084F8450084F8B0
:101240003D00002010BD704790F83D10012901D0ED
:1012500001207047022180F83D100168CA6842F001
:101260000102CA6000680E4988420ED00D498842CA
:101270000BD0B0F1804F08D00B49884205D00B4904
:10128000884202D00A49884204D1816801F00701EE
:10129000062903D0016841F0010101600020704778
:1012A000002C0140003401400004004000080040D0
:1012B000000C0040704770B50446006801694FF0AB
:1012C0000005C943890715D4C168C943890711D4EA
:1012D000E91E01610120207720688069800720468F
:1012E00002D0FFF7E7FF04E000F098F8204600F096
:1012F00096F8257720680169C943490717D4C16862
:10130000C943490713D46FF004010161022020771B
:101310002068806910F4407F204602D0FFF7CAFFA2
:1013200004E000F07BF8204600F079F8257720688B
:101330000169C943090716D4C168C943090712D412
:101340006FF008010161042020772068C0698007E0
:10135000204602D0FFF7AEFF04E000F05FF8204621
:1013600000F05DF8257720680169C943C90617D4E4
:10137000C168C943C90613D46FF010010161082088
:1013800020772068C06910F4407F204602D0FFF724
:1013900091FF04E000F042F8204600F040F8257785
:1013A00020680169C943C90708D1C168C943C90791
:1013B00004D1891E0161204600F032F820680169DD
:1013C000C943090609D4C168C943090605D46FF0A9
:1013D000800101612046FFF707FF20680169C943CA
:1013E000490609D4C168C943490605D46FF04001D4
:1013F0000161204600F01EF820680169C943890692
:101400000BD4C168C943890607D46FF0200101617C
:101410002046BDE87040FFF7E8BE70BD70477047DA
:1014200000680349884201D1FFF77EBB7047000086
:10143000001400407047704770470000F8B502681C
:1014400004461068D168536910F00F0F4FF0000583
:1014500053D003F0010601F4907737435FD0C20701
:1014600005D0CA0503D5226C42F00102226442076E
:1014700005D5DA0703D0226C42F00202226482070B
:1014800005D5DA0703D0226C42F004022264020779
:1014900007D501F02002324303D0226C42F008024B
:1014A0002264226C002A34D0800604D5880602D536
:1014B000204600F049FB20684069216CC0F3801091
:1014C000090700D430B3204600F026FB20684169AC
:1014D00049061BD5416921F040014161A06BA8B1CB
:1014E00058494163A06BFFF777F9002811D0A06B32
:1014F000416B01B0BDE8F040084783060FD58B066D
:101500000DD52046BDE8F84000F01EBB2046FFF791
:1015100093FFF8BD2046FFF78FFF2564F8BD266BCB
:101520002023012E52D1C60650D5CE064ED51068C6
:1015300050680090506940062AD5A16B0868406841
:101540000004000CEAD0A68D8642E7D9E0858869C0
:10155000202818D0D06820F48070D06020684169BD
:1015600021F0010141612068416921F040014161A0
:1015700084F83E3025632068C16821F01001C16005
:10158000A06BFFF705F9A08DE18D401A81B219E03B
:10159000A08DE18D401A81B2E08D0028BED00029D7
:1015A000BCD0D06820F49070D0602068426922F0EE
:1015B0000102426184F83E3025632068C26822F04F
:1015C0001002C2602046FFF736FFF8BD05062BD596
:1015D0000D0629D594F83D002128F6D1A068B0F574
:1015E000805F01D12069B0B1206A411C216221686D
:1015F00000784860E08C401E0004000CE084E4D1D8
:101600002068C16821F08001C1602068C16841F094
:101610004001C160F8BD206A0088C0F30800506036
:10162000206A801C2062E5E74006F3D54806F1D524
:10163000D168204621F04001D16084F83D3000F0AF
:1016400004F9F8BD091B000870B5040004D094F833
:101650003D00002510B106E0012070BD84F83C502B
:10166000204600F023F8242084F83D002068C1685B
:1016700021F40051C160204600F0C2FA20680169DF
:1016800021F4904101612068416921F02A01416102
:101690002068C16841F40051C1602564202084F8AD
:1016A0003D0084F83E00002070BD000030B585B0DC
:1016B000002400940194029403940068184988421D
:1016C0002CD11848816941F480418161816901F41C
:1016D00080410491816941F0040181618069124D6A
:1016E00000F0040004904FF400700090022001907C
:1016F0000320039069462846FFF706F92815CDE92F
:101700000004694628460294FFF7FEF800220721EC
:101710002520FFF78FFA2520FFF77EFA05B030BDB0
:1017200000380140001002400008014090F83E30AF
:10173000202B0ED159B152B190F83C30012B08D07A
:10174000012380F83C300023036300F0B5BA012088
:10175000704702207047000010B500680B498842AE
:1017600013D14FF47A73012209490A4800F014F8A2
:10177000084800680168C9434906FBD4BDE8104029
:10178000012203490348FFF7D1BF10BD00380140D3
:1017900018000020EC0200202DE9F843044690F8E0
:1017A0003D001F4616460D4620284CD1C5B1BEB19E
:1017B00094F83C00012846D0012084F83C004FF00A
:1017C0000008C4F84080212084F83D00FFF7A6F906
:1017D000A6848146E684A068B0F5805F03D004E06B
:1017E0000120BDE8F883206928B12E465FF000058E
:1017F00084F83C800EE00026FAE78021204600F0C5
:1018000076FAA0B9AEB116F8010B21684860E08CF9
:10181000401EE084E08C4B464FF000020097002809
:10182000EBD14FF04001204600F061FA30B10320C7
:10183000D7E735F8020BC0F30800E6E7202084F86C
:101840003D000020CDE70220CBE77047FEE7000017
:1018500000B589B01C22154902A8FEF7E1FC002161
:1018600002A800F0E7FF124900233222C8600220DC
:10187000CDE900010FA1124801F0D0FB0C49032073
:10188000091DCDE90001002332220EA1104801F00C
:10189000C5FB074904200831CDE90001002380225F
:1018A0000CA10F4801F0BAFB09B000BD743200086A
:1018B000000000206C6564315F7461736B00000090
:1018C000952700086C6564335F7461736B000000DA
:1018D000B1270008666C6F61745F7461736B000000
:1018E0002D2700082DE9F04385B0002528480095F4
:1018F000019502950395816941F0400181618169FB
:1019000001F040010491816941F004018161816924
:1019100001F004010491816941F00801816180694D
:10192000DFF8708000F0080004900022202140467B
:10193000FFF7EEF8DFF86090002220214846FFF71D
:10194000E7F81C20CDE900050124694602944046D1
:10195000FEF7DAFF20260327CDE90064CDE9024730
:1019600069464046FEF7D0FF02200094CDE90150C1
:1019700069460A48FEF7C8FFCDE90064CDE9024791
:1019800069464846FEF7C0FF05B0BDE8F083000099
:101990000010024000180140000C01400008014006
:1019A0000C4810B50A4901604FF4E1314160002153
:1019B00081600C22C160C0E904128161C161FFF73E
:1019C00043FE002803D0BDE81040FEF7DFBE10BD87
:1019D00000380140EC020020FEE7FEE7012000F0A5
:1019E0001DFFFBE710B5502080F31188BFF34F8F28
:1019F000BFF36F8F01F078FB18B104494FF08050AE
:101A00000860002080F3118810BD000004ED00E0A4
:101A100030B58FB028216846FEF71BFC14210AA8B8
:101A2000FEF717FC01210804CDE900100024029400
:101A300002250491CDE907504FF4E0100990684663
:101A4000FFF736FA08B172B6FEE70F20CDE90A05B6
:101A50004FF48060CDE90C4002210AA80E94FFF7F4
:101A60001BF9002801D072B6FEE70FB030BD7047F9
:101A70000148FFF720BC000030030020F0B50268E9
:101A80001C4B1D4D1D4E1E4F1E4C4FF0804C98425E
:101A900009D0A04207D0604505D0A84203D0B0428B
:101AA00001D0B84204D122F0700E4A6842EA0E0218
:101AB000984209D0A04207D0604505D0A84203D083
:101AC000B04201D0B84203D122F44075CA682A431B
:101AD0004D6922F080022A4302608A68C2620A6865
:101AE0008262984201D0A04201D1096901630121BB
:101AF0004161F0BD002C014000040040000800409E
:101B0000000C00400034014010B5406A0021C1853E
:101B1000C184FFF791FC10BD0168CA6822F490727D
:101B2000CA6001684A6922F001024A61016B012919
:101B300004D10168CA6822F01002CA60202180F82E
:101B40003E1000210163704708B590F83E1022292D
:101B500001D0022008BD82684FF480539A4201D11F
:101B6000016921B1816A9A421BD04AB10AE0026838
:101B7000816A5268C2F308020A80816A891C08E0FF
:101B8000026972B10268526802F07F020A70816ACB
:101B9000491C8162C18D491E0904090CC18503D00D
:101BA00019E002685268F1E70168CA6822F0200271
:101BB000CA600168CA6822F48072CA6001684A6912
:101BC00022F001024A61202180F83E10016B0129B8
:101BD00003D0FFF7C1FD002008BD002101630168AB
:101BE000CA6822F01002CA6001680A68D20602D5EB
:101BF0000A6849680091818DFFF71DFCEBE7000042
:101C000070B5044600680169E26821F4405111434F
:101C100001612169A0680843616908432168CA68B5
:101C200041F20C639A430243CA6020684169A26989
:101C300021F44071114341611E492068884202D15C
:101C4000FFF7F0F801E0FFF7DDF800EBC00101EB72
:101C50000012606864218000B2FBF0F3B3FBF1F383
:101C60006FF018067343B2FBF0F5B2FBF0F605EB2C
:101C70008305322303EB0515B5FBF1F5B6FBF1F651
:101C800005F0F00505EB0615B2FBF0F6B2FBF0F03F
:101C9000B0FBF1F06FF01802504306EB800003EB4D
:101CA0000010B0FBF1F0216800F00F0028448860BC
:101CB00070BD00000038014081628285C28500212C
:101CC0000164222280F83E2080F83C100168CA6836
:101CD00042F48072CA6001684A6942F001024A61B6
:101CE0000068C16841F02001C160002070472DE903
:101CF000F041984617460E460446069D1DE0681CB6
:101D00001BD02DB1FEF70AFFA0EB0800A84214D9A2
:101D10002068C16821F4D071C1602068416921F058
:101D200001014161202084F83D0084F83E0000203C
:101D300084F83C000320BDE8F0812068006836EAA2
:101D4000000004D00020B842D9D00020F3E70120E1
:101D5000F9E700000148FFF771BB0000EC0200202A
:101D6000FEE700000FB4054B10B503A9044A029822
:101D700000F0EAF810BC5DF814FB00007D270008B5
:101D80001C0000200907090E002804DB00F1E020F8
:101D900080F80014704700F00F0000F1E02080F898
:101DA000141D704702E008C8121F08C1002AFAD1AA
:101DB00070477047002001E001C1121F002AFBD1CB
:101DC000704700002DE9FF5F82B00021DDE904309B
:101DD000020DDDF840B0034318D044F61050A2F2D3
:101DE000FF3242431514119801281FD0A5EB0B00B8
:101DF000401C5FEA000A4FF000064E4FDFF83891B2
:101E0000B046504615D5CAF1000413E011980124DC
:101E10004AA3012801D16FEA0B010298119AC0E987
:101E20000031C0E9024206B0BDE8F09FCBF10000EE
:101E3000DFE704460021404A491842EB0450CDE94F
:101E4000001012E0E00707D032463B4640464946C4
:101E5000FEF776FB8046894632463B4610461946D9
:101E6000FEF76EFB06460F466410002CEAD1DDE952
:101E70000401DDE90023BAF1000F06DAFEF760FB8A
:101E800042464B46FEF75CFB05E0FEF7CBFB4246C5
:101E90004B46FEF7C7FB04460E460022284BFEF7D2
:101EA00049FC03D84FF0FF30014607E00022254BE4
:101EB00020463146FEF7D8F9FEF723FC102409E04E
:101EC000002C0ADB0A220023FEF78BFA039B303238
:101ED0001A55641E50EA0102F2D1641C039AC4F13F
:101EE00011031444119A012A03D0012208430DD191
:101EF0000AE0084304D000204FF0110B119072E764
:101F0000A3EB0B056D1E0DE05B4504DD4FF00002F9
:101F100005F1010504E003DA4FF00002A5F1010527
:101F2000002AECD002981199C0E90231C0E90045BD
:101F300079E70000000014400000F03F300000008E
:101F40000000F0430000E03F2DE9FF4F95B09B46B5
:101F50008946064600250FE2252877D1002427462A
:101F6000F84A0121059400E0044316F8013F203BA4
:101F700001FA03F01042F7D130782A2811D06FF01F
:101F80002F033078A0F13002092A16D8059A44F0C0
:101F9000020402EB820203EB42021044761C05901D
:101FA000EFE759F8042B0592002A03DA504244F473
:101FB0000054059044F00204761C30782E2816D187
:101FC00016F8010F44F004042A280DD06FF02F02F8
:101FD0003078A0F13003092B09D807EB870302EB17
:101FE0004303C718761CF3E759F8047B761C307856
:101FF0006C280FD006DC4C2817D068280DD06A2832
:1020000014D104E0742810D07A280FD10DE044F4E4
:1020100000140AE044F4801401E044F4401472789F
:10202000824202D104F58014761C761C3078662832
:102030000BD013DC582877D009DC002875D0452850
:10204000F6D04628F4D047281AD19DE118E063283D
:1020500035D0642879D0652812D195E1702873D0E5
:1020600008DC6728F1D069286FD06E280DD06F2862
:1020700006D1B5E073282CD0752875D0782874D097
:102080005A46179990476D1C75E1C4F30250022817
:1020900009D003280DD0D9F8001004280DD00D6008
:1020A00009F1040967E1D9F80010EA17C1E9005203
:1020B000F6E7D9F800100D80F2E70D70F0E719F897
:1020C000041B8DF8001000208DF80100EA46012065
:1020D00003E059F804AB4FF0FF3061074FF0000107
:1020E00002D40DE008F101018846B9420FDA8045BB
:1020F000F8DB1AF808100029F4D108E008F1010112
:1021000088468142FADB1AF808100029F6D10598B2
:102110005B46A0EB080721463846179A00F094FA70
:10212000284400EB080507E04DE029E10DE01AF82E
:10213000010B5A4617999047B8F10108F7D25B4650
:1021400021463846179A13E142E00A220092C4F36E
:1021500002524FF0000A022A08D059F804CB032A91
:102160004FEAEC710AD00DE029E02AE009F10701FD
:1021700021F00702F2E802C1914609E00FFA8CFC57
:102180004FEAEC71042A03D14FFA8CFC4FEAEC7150
:10219000002907DA0A460021DCF1000C61EB02019C
:1021A0002D2202E0220504D52B228DF804200122E5
:1021B00003E0E20701D02022F7E7904659E00A2128
:1021C00002E010220DE010214FF0000A00910BE018
:1021D00010224FF0000A44F004040827009203E0A4
:1021E00008224FF0000A0092C4F30252022A05D0DE
:1021F00059F804CB0021032A08D009E009F10701AE
:1022000021F00702F2E802C1914605E01FFA8CFCBA
:10221000042A01D10CF0FF0C4FF00008220728D54A
:10222000702806D0009B83F0100353EA0A0305D000
:102230000EE040228DF80420012208E05CEA010251
:1022400006D030228DF804208DF805000222904639
:10225000009B83F0080353EA0A030AD15CEA0102F7
:1022600001D1620705D530228DF804204FF0010816
:102270007F1E582804D034A003900EA802900DE0D1
:1022800036A0F9E753466046009AFEF7AAF884465E
:102290000398825C0298401E029002705CEA010082
:1022A000F0D1029806A9081A00F1200A600702D5A9
:1022B00024F4803400E00127574502DDA7EB0A0033
:1022C00000E0002000EB0A01009005984144401A0C
:1022D0000590E00306D45B462146179A059800F066
:1022E000B3F90544002706E001A85A46C05D1799D6
:1022F00090476D1C7F1C4745F6DBE0030CD55B4621
:102300002146179A059800F09FF9054404E0302013
:102310005A46179990476D1C0099481E0090002955
:10232000F5DC08E0029802995A460078491C0291AF
:10233000179990476D1CBAF10001AAF1010AF1DC6E
:1023400065E1000009280100303132333435363779
:1023500038396162636465660000000030313233F1
:102360003435363738394142434445460000000091
:1023700000F058F90544761C307800287FF4ECAD65
:1023800019B02846BDE8F08F620700D4062709F18E
:10239000070222F0070CFCE80223E14603F00048A4
:1023A0005FEA080C02D00FF2702C0DE05FEA045CCB
:1023B00002D50FF2682C07E05FEAC47C02D00FF26E
:1023C000602C01E0AFF2700C4FF0FF3823F00043B7
:1023D000CDF850C065280CD006DC452809D0462829
:1023E0001DD047283DD13DE0662818D067287ED112
:1023F00038E00021112F01DB112000E0781CCDE92D
:10240000000106A90EA8FFF7DDFCDDE90F010E9A19
:1024100003910021009207F1010A04914DE04FF071
:1024200000400097CDE9011006A90EA8FFF7CAFCED
:10243000DDE90F0203920E9B11990022DDF80CA03A
:102440000093049211B9791C00EB010AB7EB0A0062
:1024500004D4C0F1FF3007F1010A0490AAEB070091
:10246000019044E0012F00DA01270021112F01DD46
:10247000112000E03846CDE9000106A90EA8FFF7BB
:10248000A1FCDDE90F010E9A039100210491009255
:10249000BA4621070CD40399514500DA8A46BAF1AD
:1024A000010F05DD009AAAF10101515C302908D025
:1024B000B84202DA10F1040F06DA0121CDE9011069
:1024C00015E0AAF10101E9E7002805DC04990144BF
:1024D0000491AAEB000102E0411C514500DD8A464F
:1024E0000499401A401C01904FF0004002902007D0
:1024F00004D40198504501DBCDF8048000208DF80C
:102500004F0002980DF14F07B0F1004F25D02B205E
:102510000E9002984FF0020800280CDA4042029018
:102520002D200E9007E00A210298FDF744FF30317C
:10253000029007F8011DB8F10001A8F10108F2DCD2
:1025400002980028EFD1791E0E980870307800F0BC
:10255000200040F0450007F8020D12A8C01B00F152
:1025600007081498007800B1012000EB0A010198D7
:1025700001EBE07105984144401A401E0590E003CC
:1025800006D45B462146179A059800F05DF805448D
:102590001498007818B15A46179990476D1CE003BB
:1025A00024D55B462146179A059800F04DF805445E
:1025B0001CE00498002807DBDDE90301884203DD05
:1025C0000098405C179901E0179930205A469047CF
:1025D000049805F10105401C04900198401E0190EB
:1025E00004D12E205A46179990476D1CBAF100016C
:1025F000AAF1010ADDDC05E017F8010B5A4617992C
:1026000090476D1CB8F10001A8F10108F4DC5B46AD
:102610002146179A0598ABE62D0000002B0000001C
:10262000200000002DE9F041044600251E46174613
:10263000880404D405E039462020B0476D1C641E90
:10264000F9D52846BDE8F0812DE9F0410446002582
:102650001E469046C80301D5302700E02027880495
:1026600004D505E041463846B0476D1C641EF9D5D7
:102670002846BDE8F081000010B50420FEF7A8FD53
:102680000C480D4902680D48B2FBF1F3B2FBF1F1C1
:102690004FF47A7251430122436002804FF0E020F0
:1026A000026942F0020202614161016941F00101E7
:1026B000016110BD2C00002040420F00900000205E
:1026C00070B5044600F002FD01280CD0094D2888A1
:1026D000844203D3B4FBF0F000F0BAFB2888B4FBCB
:1026E000F0F100FB11444FF47A706043BDE8704094
:1026F00000F002B89000002070B54FF0E0240022F6
:1027000065690949A36949684843A1699942FCD0B0
:1027100002D2A3EB010302E0A5EB010633441A4405
:102720000B468242F1D370BD900000204FF08045EF
:102730000A4E0B4C4FF47A772A46D4E9040133460B
:10274000FDF792FDC4E9040102460B4605A0FFF720
:1027500009FB3846FFF7B4FFEEE70000E17A843F5B
:1027600000000020666C6F61745F6E756DB5C4D635
:10277000B5CEAA3A20252E34660D0A0004490A680F
:102780005206FCD5024AC1B2121D1160704700000A
:1027900000380140054C4FF4FA7520212046FEF721
:1027A000AFF92846FFF78CFFF7E70000001801405B
:1027B000094C4FF44875002220212046FEF7A8F965
:1027C000C820FFF77DFF012220212046FEF7A0F957
:1027D0002846FFF775FFEEE7000C014010B5FEF745
:1027E000ABF9FFF715F9FFF77DF8FFF7D9F8FFF719
:1027F00043FF012204490548FEF798FFFFF728F838
:1028000000F013F8002010BD18000020EC0200209A
:1028100001460020842900D0C81C704710B500B9BB
:10282000012000F015FB002010BD10B500F036FBB4
:10283000002010BD7FB50D4604464169B0F908007F
:1028400081B1A16971B1FFF7E3FFD4E905128DE809
:102850000700D4E900102B46226900F00CFC03901D
:1028600004B070BDFFF7D4FF03A9CDE90001208AB1
:102870002B4682B2D4E9001000F0D0FB012801D031
:102880000020EDE70398EBE72DE9F041184C0F46E7
:10289000054666692068001D00F016FA38B9206800
:1028A00090F82C1001208840A1698143A161681C27
:1028B00007D137B12168BDE8F0410E48091D00F08D
:1028C00047BA20683544B5424560216805D2A06802
:1028D000BDE8F041091D00F023BA6068091D00F051
:1028E0001FFA206B854200D22563BDE8F08100000D
:1028F00030000020540400202DE9F041054600F08E
:1029000033FA2E4C2069401C206120682C4F10B1F6
:10291000E06940B32DE025602069012829D1002617
:1029200006EB860007EB800000F0ECF9761C072E22
:10293000F6D323488C3000F0E5F92148A03000F0B0
:10294000E1F91F48B43000F0DDF91D48C83000F04F
:10295000D9F91B48DC3000F0D5F919488C3060609B
:102960001430A06005E02068E96AC06A884200D897
:102970002560E06A401CE062E96A0120A2698840A3
:102980001043A06101EB810007EB8000291D00F0DE
:10299000DFF900F009FAE06900280CD02068E96A44
:1029A000C06A884207D207494FF080500860BFF3E1
:1029B0004F8FBFF36F8FBDE8F08100003000002023
:1029C0007803002004ED00E010B5044690F85100B3
:1029D00058B101280CD002280FD0502080F3118864
:1029E000BFF34F8FBFF36F8FFEE7206B00F0F0F95E
:1029F0002046BDE8104000F0EBB910BD10484FF480
:102A00004061420706D0C01D0D4920F00700411A61
:102A1000C1F540610B4A00230144C2E900030839B3
:102A2000103A21F0070111604B600B600B1AC0E9EE
:102A3000001393604FF000405360D0607047000077
:102A4000680400207C000020144E154CA6F1C80735
:102A50004FF08058DFF84C9012E000BF00F084F98E
:102A6000F068C568281D00F02FF92069401E20611C
:102A7000E068401EE06000F097F92846FFF7A4FFE9
:102A8000E0680028EAD138680128F9D9C9F800803F
:102A9000BFF34F8FBFF36F8FF2E7000040040020B9
:102AA0003000002004ED00E02DE9F0479A46DDE912
:102AB000098481466FF00303206B03EB820210440C
:102AC000089D20F00706700707D0502080F311887A
:102AD000BFF34F8FBFF36F8FFEE723180A5C83F8B5
:102AE00034200A5C12B1401C1028F6D3002784F869
:102AF0004370072D00D30625E562C4E91157201D58
:102B000000F00BF904F1180000F007F92461C5F199
:102B100007006462A061E76484F850705246494639
:102B2000304600F0BFF82060B8F1000F01D0C8F8BF
:102B30000040BDE8F087000030B5114900E01146C3
:102B40000A688242FBD34B685C18844203D1406818
:102B500018444860084643681C18944209D1084C40
:102B6000103C2468A24209D052681A4442600A68A4
:102B700012680260814200D0086030BD0460F9E74D
:102B80007C00002006484168096829B14168C9688D
:102B9000C9684968016370474FF0FF31FAE70000E8
:102BA0003000002008484068401C4FF0500080F37F
:102BB000118804D0BFF34F8FBFF36F8FFEE7BFF3D1
:102BC0004F8FBFF36F8FFEE7840000202DE9F041A7
:102BD0000546002700F098F9314E306808B9FFF734
:102BE0000DFFF06805424BD1C5B3083568070ED01C
:102BF00005F00700C0F108000544680707D0502021
:102C000080F31188BFF34F8FBFF36F8FFEE72DB3B3
:102C10007068854234D82248103001460C6801E0C3
:102C200020460C466168A94202D221680029F7D1EA
:102C300031688C4224D007682168016060680837D9
:102C4000411B10290FD96019420708D0502080F38A
:102C50001188BFF34F8FBFF36F8FFEE710E0416025
:102C60006560FFF769FF61687068401A7060B2685C
:102C7000904200D2B060F06801430020C4E9000136
:102C800000F096FA780707D0502080F31188BFF340
:102C90004F8FBFF36F8FFEE73846BDE8F08100002D
:102CA0006C00002010B5031F4FF080741C601B1FC8
:102CB00021F001011960191F024B0B6014394038D3
:102CC0000A6010BDA52B0008D0E9013201699A60A5
:102CD000D0E901235A604A68824201D182684A6081
:102CE000002202610868401E086008687047000002
:102CF000034B036003F154000860802010607047AC
:102D00009800002000F108014FF0FF32C0E90112E5
:102D1000C1600161002101607047002101617047BD
:102D200030B50B685A1C02D000F1080202E00269BB
:102D300004E02246546825689D42FAD953684B60E6
:102D400099608A60516008610168491C016030BD6A
:102D500042684A6093688B6093685960916008612B
:102D60000168491C01607047502080F31188BFF34F
:102D70004F8FBFF36F8F0A494868401C4860012895
:102D80000CD10848006810F0FF0F07D0502080F3E6
:102D90001188BFF34F8FBFF36F8FFEE770470000BE
:102DA0008400002004ED00E00849486828B1401E76
:102DB000486001D180F311887047502080F311885A
:102DC000BFF34F8FBFF36F8FFEE70000840000203A
:102DD00070B5002827D0144DA0F108046168E86898
:102DE000014207D1502080F31188BFF34F8FBFF30A
:102DF0006F8FFEE722683AB1502080F31188BFF34D
:102E00004F8FBFF36F8FFEE78143616000F07CF866
:102E100060686968084468602046FFF78DFEBDE879
:102E2000704000F0C5B970BD6C0000204FF0E0208C
:102E300000210161816105494FF47A720968B1FB93
:102E4000F2F1491E41610721016170472C00002009
:102E500010B5020014D00F48806B38B1502080F3B9
:102E60001188BFF34F8FBFF36F8FFEE700F04CF870
:102E700000211046FFF708FD00F09AF9002807D15D
:102E800005494FF080500860BFF34F8FBFF36F8F3D
:102E900010BD00003000002004ED00E010B586B049
:102EA0000024039405AA04A903A80494FFF720FFB3
:102EB000DDE903010094CDE9011000230EA11048C3
:102EC000059A00F0D8F80F490028486311D0502027
:102ED00080F31188BFF34F8FBFF36F8F4FF0FF3038
:102EE00008630120C8614C6106B0BDE8104000F0E5
:102EF00041B806B010BD000049444C450000000038
:102F0000492A0008300000200248816B491C816377
:102F100070470000300000201448816B11B101217E
:102F200041627047002141628169B1FA81F1C1F1CA
:102F30001F0101EB81020E4951F822306BB101EB08
:102F4000820101F108034A6852684A609A4201D13D
:102F500052684A60D16801607047502080F3118840
:102F6000BFF34F8FBFF36F8FFEE7000030000020EC
:102F7000780300201CB5264908780190FF200870CE
:102F800008788DF800009DF800009DF8002000F002
:102F9000F000904207D0502080F31188BFF34F8F8C
:102FA000BFF36F8FFEE79DF800001A4B00F0500052
:102FB00018700720986005E09DF8002052008DF8F9
:102FC0000020401E9DF800201206F5D498600328CA
:102FD00007D0502080F31188BFF34F8FBFF36F8F5E
:102FE000FEE74FF440709860019808700A48016845
:102FF00041F470010160016841F070410160FFF728
:1030000015FF00205860FDF7AFF800201CBD000040
:1030100000E400E08400002020ED00E02DE9FF5FE7
:103020008346DDE90E87994616468A469000FFF7EB
:10303000CDFD05001CD05420FFF7C8FD040014D0BE
:103040000020256384F85100CDE90240CDE90087D6
:103050004B46324651465846FFF726FD2046FFF7BD
:103060004BFC012004B0BDE8F09F2846FFF7B0FEFE
:103070004FF0FF30F6E7F0B585B0DDE90B640A9D4F
:10308000A6B1DCB1542700972663022684F851606C
:10309000002604AFCDE90246CDE90057FFF704FD55
:1030A0002046FFF729FC049805B0F0BD502080F3BE
:1030B0001188BFF34F8FBFF36F8FFEE7502080F36F
:1030C0001188BFF34F8FBFF36F8FFEE70548C169CB
:1030D00019B1806B18B100207047012070470220A1
:1030E00070470000300000202DE9F0412E4C0027F1
:1030F000A06B40B1206A401C2062606A00B10127C9
:103100003846BDE8F0816669761C666113D1606857
:10311000006838B1502080F31188BFF34F8FBFF3A0
:103120006F8FFEE76068A1686160A060A06A401CC4
:10313000A062FFF727FD206BDFF87080864209D37D
:103140006068006880B16068C068C5686868864269
:103150000DD220632068C06A00EB800158F821007E
:103160000128CAD90127C8E74FF0FF30F1E7281D31
:10317000FFF7AAFDA86A18B105F11800FFF7A4FD32
:10318000E86A0121A26981401143A16100EB80013D
:1031900008EB8100291DFFF7DBFDE86A2168C96A99
:1031A0008842CDD30127CBE73000002078030020F0
:1031B0002DE9F0472C4D00242746A86B38B1FFF7C6
:1031C000D3FDA86B401EA863A86B40B146E0502019
:1031D00080F31188BFF34F8FBFF36F8FFEE729692C
:1031E000224E0120D1B3A6F1B40980463068E8B17F
:1031F000F068C46804F11800FFF766FD201DFFF7B2
:1032000063FDE06AAA6908FA00F11143A96100EBC5
:10321000800109EB8100211DFFF79AFDE06A296812
:10322000C96A8842E2D3C5F82480DFE70CB1FFF712
:10323000A9FC2C6A44B14646FFF756FF00B16E6206
:10324000641EF9D100202862686A38B10849012754
:1032500038070860BFF34F8FBFF36F8FFFF7A4FDF0
:103260003846BDE8F0870000300000202C04002024
:1032700004ED00E0A8320008DD190008000000009D
:1032800000000000800000000000000000000000BE
:103290000000000000000000010203040607080906
:1032A000000000000102030464656661756C7454DB
:1032B00061736B00D4320008000000209800000009
:1032C000A41D00086C33000898000020D0130000F3
:1032D000B41D000800000000000000000000000015
:1032E00000000000000000000000000000000000DE
:1032F00000000000010000001000000000000000BD
:103300000024F400000000000000000000000000A5
:1033100000000000000000000000000000000000AD
:10332000000000000000000000000000000000009D
:10333000000000000000000000000000000000008D
:10334000000000000000000000000000000000007D
:10335000000000000000000000000000AAAAAAAAC5
:0C33600000000000000000000000000061
:0400000508000131BD
:00000001FF
