:020000040800F2
:100000001004002045010008A5010008A101000816
:10001000A30100088D010008F9010008000000009C
:10002000000000000000000000000000A90100081E
:100030008F01000800000000A7010008AB010008C4
:100040005F0100085F0100085F0100085F01000810
:100050005F0100085F0100085F0100085F01000800
:100060005F0100085F0100085F0100085F010008F0
:100070005F0100085F0100085F0100085F010008E0
:100080005F0100085F0100085F0100085F010008D0
:100090005F0100085F0100085F0100085F010008C0
:1000A0005F0100085F0100085F0100085F010008B0
:1000B0005F0100085F0100085F0100085F010008A0
:1000C0005F0100085F0100085F0100085F01000890
:1000D0005F0100085F0100085F0100085F01000880
:1000E0005F0100085F0100085F0100085F01000870
:1000F0005F0100085F0100085F0100085F01000860
:100100005F0100085F0100085F0100085F0100084F
:100110005F0100085F0100085F0100085F0100083F
:100120005F0100085F0100085F0100085F0100082F
:10013000DFF80CD000F018F8004800472D02000846
:10014000100400200648804706480047FEE7FEE707
:10015000FEE7FEE7FEE7FEE7FEE7FEE7FEE7FEE777
:10016000B101000831010008064C074D06E0E068C7
:1001700040F0010394E8070098471034AC42F6D3EE
:10018000FFF7DAFF4402000864020008FEE7704748
:1001900002488168027811448160704700000020A5
:1001A000FEE7FEE7704770477047FFF7F1BF0000BA
:1001B0000D48016841F00101016041680B4A11409E
:1001C000416001680A4A11400160016821F4802100
:1001D0000160416821F4FE0141604FF41F0181601C
:1001E0000449C00308607047001002400000FFF897
:1001F000FFFFF6FE08ED00E0FEE702E008C8121F70
:1002000008C1002AFAD170477047002001E001C1FF
:10021000121F002AFBD170470FB5DDE90001084429
:1002200002990844039904B0084400BD08B50423AA
:100230000120022103220093FFF7EEFF009000202F
:1002400008BD000064020008000000200C0000004F
:10025000FA010008700200080C00002004040000ED
:100260000A02000801000000100000000000000069
:0400000508000131BD
:00000001FF
