:020000040800F2
:10000000F0350020DD010008DF130008E9120008C8
:10001000DD130008490200085D1700080000000019
:100020000000000000000000000000004501000882
:100030004B0200080000000089010008E1130008DD
:10004000F7010008F7010008F7010008F7010008B0
:10005000F7010008F7010008F7010008F7010008A0
:10006000F7010008F7010008F7010008F701000890
:10007000F7010008F7010008F7010008F701000880
:10008000F7010008F7010008F7010008F701000870
:10009000F7010008F7010008F7010008F701000860
:1000A000F7010008F7010008F7010008F701000850
:1000B000F7010008F7010008F7010008F701000840
:1000C000F7010008F7010008F7010008F701000830
:1000D000F701000851170008F7010008F7010008B0
:1000E000F7010008F7010008F7010008F701000810
:1000F000F7010008F7010008F7010008F701000800
:10010000F7010008F7010008F7010008F7010008EF
:10011000F7010008F7010008F70100086D14000856
:10012000F7010008F7010008F7010008F7010008CF
:10013000DFF80CD000F076F800480047FD19000801
:10014000F0350020224B19680868B0E8F00F80F302
:100150000988BFF36F8F4FF0000080F311884EF0D5
:100160000D0E70470000000006480068006880F32C
:10017000088862B661B6BFF34F8FBFF36F8F00DFA1
:1001800000BF00BF08ED00E0EFF30980BFF36F8F01
:100190000F4B1A6820E9F00F106008B54FF05000BF
:1001A00080F31188BFF34F8FBFF36F8F02F05CF8BD
:1001B0004FF0000080F31188BDE808401968086816
:1001C000B0E8F00F80F30988BFF36F8F704700BF6E
:1001D00024000020EFF305807047000006488047A8
:1001E00006480047FEE7FEE7FEE7FEE7FEE7FEE71C
:1001F000FEE7FEE7FEE7FEE76B14000831010008AA
:10020000D2B201E000F8012B491EFBD27047002258
:10021000F6E710B513460A4604461946FFF7F0FF05
:10022000204610BD064C074D06E0E06840F0010393
:1002300094E8070098471034AC42F6D3FFF77CFFF0
:100240003C2E00085C2E0008FEE7704772B6FEE701
:1002500010B590F821100022022905D004218163F5
:1002600080F82020012010BD01680B6823F00E03E8
:100270000B6001680B6823F001030B6090F84030BD
:10028000C46B012101FA03F3636080F8211080F848
:100290002020104610BD00002DE9F05F90F82110DD
:1002A0000024022903D004218163012485E0016830
:1002B0000A6822F00E020A6001680A6822F0010250
:1002C0000A603F4E3E4FB215DFF8F4C0DFF8F09001
:1002D000DFF8ECA0DFF8E8B0DFF8E4E00168783F91
:1002E00013011502ACF1640CA9F15009AAF13C0A02
:1002F000ABF1280BAEF1140E4FF48018B14227D9A0
:10030000B9420ED0614512D049451DD0514518D093
:10031000594518D0714501D1424615E0294EB142E8
:1003200001D1012210E0274E1436B14201D1102232
:100330000AE0244E2836B14206D0224A3C3291428D
:1003400001D11A4600E02A461E49091F0A602BE027
:10035000B94213D0614517D0494522D051451DD02F
:1003600059451DD0714501D142461AE0B14202D132
:100370004FF0807215E0134EB14201D1012210E01E
:10038000104E1436B14201D110220AE00D4E28362B
:10039000B14206D00B4A3C32914201D11A4600E0EC
:1003A0002A46074980394A60012180F8211000213E
:1003B00080F82010416B01B188472046BDE8F09FCE
:1003C00080000240080402402DE9F84FDFF8C89190
:1003D000002409F1040A0AF1040B23460F270BF14C
:1003E000040ED1E00125A54006EA0502AA4276D115
:1003F000DFF8A8C14E68A6EB0C0866452BD00DDCD3
:10040000032E34D005DC36B3012E19D0022E2FD1A5
:100410001BE0112E16D0122E2AD119E0B8F5881F34
:1004200019D006DCB8F5803F15D0B8F5801F1FD174
:1004300011E0B8F5001F0ED0B8F5041F18D10AE07E
:10044000CB6815E0CB681B1D12E0CB6808330FE0CA
:10045000CB680C330CE08B682BB1012B4FF00803F9
:1004600003D0456104E0042302E0056100E00023BD
:10047000FF2A01D8064601E000F104064FEA840590
:1004800001D9A5F12005D6F8008007FA05FC28EA75
:100490000C0803FA05F548EA0508C6F800804D681F
:1004A000ED0070D53E4DAE6946F00106AE61AD6916
:1004B00024F0030605F0010500953A4D06EB050C06
:1004C000DCF80850A607360F07FA06F825EA0805F3
:1004D000DFF8D480404503D14FF0000825E052E01A
:1004E000DFF8C880404502D14FF001081DE0DFF879
:1004F000C080404502D14FF0020816E0DFF8B4801A
:10050000404502D14FF003080FE0DFF8AC804045D2
:1005100002D14FF0040808E0DFF8A080404502D186
:100520004FF0050801E04FF0060808FA06F848EA1F
:100530000508CCF808804D68D9F80060ED034D46F9
:1005400001D5164300E096432E604D68DAF800604E
:10055000AD03554601D5164300E096432E604D6825
:10056000DBF80060ED025D4601D5164300E09643DE
:100570002E604D68DEF80060AD02754601D5164369
:1005800000E096432E60641C0A681646E2407FF441
:1005900029AFBDE8F88F00000004014000001110F1
:1005A000001002400000014000080140000C014022
:1005B000001001400014014000180140001C0140DF
:1005C000C26821EA02030A4043EA0241016170471E
:1005D0000AB1016170470904FBE700000148806827
:1005E000704700001400002002488168027811441E
:1005F0008160704714000020074810B5016841F081
:1006000010010160032000F08FF8002000F006F8D0
:1006100000F03EF8002010BD0020024000B5014669
:1006200087B00022372000F05FF8372000F04EF846
:100630001348C16941F02001C161C06905A900F0FA
:1006400020000690684600F017F900F035F90D49D2
:100650004000B0FBF1F10D480B4A491E02604160B9
:1006600040F2E7320021C0E90321816000F00CFB79
:1006700010B1012007B000BD044800F033FBF9E7DA
:100680000010024040420F0000140040DC00002037
:100690000C4808B5816941F001018161816901F06F
:1006A00001010091C16941F08051C161C06900F050
:1006B000805000900448416821F0E06141F0807171
:1006C000416008BD0010024000000140002809DB25
:1006D00000F01F02012191404009800000F1E0205C
:1006E000C0F8001170470000F0B40E4B1B680C46B8
:1006F000C3F30223C3F10705042D00D90425191DF6
:10070000072901D2002300E0DB1E012606FA05F1CD
:10071000491E214099409E40761E16403143F0BC50
:1007200001F02EB80CED00E0064900F00702086861
:100730004FF6FF03184040EA0220034A10430860C6
:10074000704700000CED00E00000FA052DE9F047CD
:100750000F46050061D0434E306800F00700B842F4
:1007600009D2306820F0070038433060306800F06C
:100770000700B84251D128683B4C810712D5400789
:1007800003D5606840F4E06060602878000703D516
:10079000606840F4605060606068A96820F0F00014
:1007A000084360602878C00728D06868012810D006
:1007B0002168022810D0890700292EDA616821F00B
:1007C000030101436160FFF709FF804641F2883968
:1007D0000DE021688903EFE78901EDE7FFF7FEFEF1
:1007E000A0EB0801494502D90320BDE8F087606805
:1007F000696800F00C00B0EB810FEFD1306800F0B9
:100800000700B8420BD9306820F007003843306049
:10081000306800F00700B84201D00120E5E72878F1
:10082000400705D56068E96820F4E060084360602F
:100830002878000706D56068296920F4605040EAEE
:10084000C100606000F058F86168084AC1F3031104
:10085000515CC8400649086006480068FFF7DEFEA4
:100860000020C2E700200240001002406426000879
:1008700020000020180000200F2202600C4A53685C
:1008800003F003034360536803F0F003836053688D
:1008900003F4E063C36052684FF4E06303EAD202FA
:1008A00002610448006800F007000860704700001B
:1008B00000100240002002400448054900684968D1
:1008C000044AC1F30221515CC84070472000002057
:1008D0000010024074260008044805490068496871
:1008E000044AC1F3C221515CC84070472000002077
:1008F000001002407426000812A185B00FC98DE8CF
:100900000F0014A0144A006804905168134801F0C5
:100910000C03042B10D0082B0ED1C1F38343C90361
:100920001DF803000AD5516804AAC1F34041515C87
:100930000A4A5043B0FBF1F005B0704708494843FC
:10094000FAE7000002030405060708090A0B0C0D6C
:100950000E0F1010010200000010024000127A0079
:1009600000093D002DE9F84F040070D02078C04DFB
:10097000C00749D06868C0F38100012807D06868C3
:10098000C0F38100022809D16868C00306D5286831
:10099000800339D560680028E7D035E06068B0F59D
:1009A000803F0BD010B1B0F5A02F11D0286820F4F3
:1009B00080302860286820F4802002E0286840F415
:1009C00080302860606890B1FFF708FE06460AE0B4
:1009D000286840F480202860F0E700BFFFF7FEFDA4
:1009E000801B642873D828688003F7D50CE0FFF7D4
:1009F000F5FD064605E000BFFFF7F0FD801B64280B
:100A0000F0D828688003F7D420789A4E80074FF0FA
:100A100001094FF0000839D5686810F00C0F07D0B5
:100A20006868C0F38100022809D16868C00306D451
:100A30002868800714D52069012808D110E02069B2
:100A4000B0B1C6F80090FFF7C9FD074605E00AE11E
:100A5000FFF7C4FDC01B0228C4D828688007F7D55B
:100A60002868616920F0F80040EAC10028600DE0C4
:100A7000C6F80080FFF7B2FD074604E0FFF7AEFDC1
:100A8000C01B022823D828688007F7D420780007E5
:100A90002CD57948A169D9B1C0F80090FFF79EFD27
:100AA000074604E0FFF79AFDC01B02280FD8686ACA
:100AB0008007F7D571484FF4FA510068B0FBF1F0A8
:100AC000009000BF0098411E0091FAD20EE080E035
:100AD000C0F80080FFF782FD074604E0FFF77EFDC7
:100AE000C01B022875D8686A8007F7D420784007B1
:100AF00060D5E8690027C00008D4E86940F080505C
:100B0000E861E869012700F0805000905C480168C6
:100B1000C90513D40168834641F480710160FFF771
:100B20005DFD824606E000BFFFF758FDA0EB0A001E
:100B300064284ED8DBF80000C005F5D5E068012830
:100B40000AD008B1052813D0286A20F001002862D5
:100B5000286A20F0040002E0286A40F001002862C0
:100B6000E06841F2883B98B1FFF738FD82460BE020
:100B7000286A40F004002862EEE700BFFFF72EFD70
:100B8000A0EB0A0159455AD8286A8007F6D50CE02F
:100B9000FFF724FD824605E0FFF720FDA0EB0A01E8
:100BA00059454CD8286A8007F6D41FB1E86920F06F
:100BB0008050E861E06988B36968C1F38101022966
:100BC00044D00228C6F8608004D0FFF707FD044631
:100BD00038E034E0FFF702FD074604E0FFF7FEFCD3
:100BE000C01B02282BD828688001F7D4206AB0F5F2
:100BF000803F05D16868A16820F400300843686030
:100C0000D4E908010843696821F474110843686055
:100C1000C6F86090FFF7E2FC044606E025E000BF5E
:100C2000FFF7DCFC001B022809D828688001F7D5F3
:100C30001BE000BFFFF7D2FC001B022802D90320F3
:100C4000BDE8F88F28688001F4D40EE00128F7D0C1
:100C50006868226A00F48031914204D1616A00F42C
:100C60007010884201D00120EAE70020E8E7000088
:100C70000010024000004242800442422000002056
:100C8000007000407047704710B5040003D094F81E
:100C90003D0010B107E0012010BD002084F83C00A9
:100CA000204600F01EF8022084F83D00211D206837
:100CB00000F0E2FB012084F8460084F83E0084F84E
:100CC0003F0084F8400084F8410084F8420084F832
:100CD000430084F8440084F8450084F83D00002077
:100CE00010BD704790F83D10012901D001207047D8
:100CF000022180F83D100168CA6842F00102CA6012
:100D000000680E4988420ED00D4988420BD0B0F1E0
:100D1000804F08D00B49884205D00B49884202D049
:100D20000A49884204D1816801F00701062903D0ED
:100D3000016841F00101016000207047002C014072
:100D4000003401400004004000080040000C004056
:100D5000704770B50446006801694FF00005C9434B
:100D6000890715D4C168C943890711D4E91E0161F7
:100D700001202077206880698007204602D0FFF795
:100D8000E7FF04E000F098F8204600F096F8257799
:100D900020680169C943490717D4C168C943490795
:100DA00013D46FF00401016102202077206880696C
:100DB00010F4407F204602D0FFF7CAFF04E000F0A5
:100DC0007BF8204600F079F8257720680169C9434F
:100DD000090716D4C168C943090712D46FF0080186
:100DE0000161042020772068C0698007204602D076
:100DF000FFF7AEFF04E000F05FF8204600F05DF87A
:100E0000257720680169C943C90617D4C168C94359
:100E1000C90613D46FF01001016108202077206803
:100E2000C06910F4407F204602D0FFF791FF04E034
:100E300000F042F8204600F040F82577206801696C
:100E4000C943C90708D1C168C943C90704D1891E6C
:100E50000161204600F032F820680169C9430906A3
:100E600009D4C168C943090605D46FF08001016146
:100E70002046FFF707FF20680169C943490609D4E6
:100E8000C168C943490605D46FF04001016120469D
:100E900000F01EF820680169C94389060BD4C168B7
:100EA000C943890607D46FF0200101612046BDE8DF
:100EB0007040FFF7E8BE70BD704770470068034997
:100EC000884201D1FFF790BB70470000001400403A
:100ED0007047704770470000F8B502680446106814
:100EE000D168536910F00F0F4FF0000553D003F095
:100EF000010601F4907737435FD0C20705D0CA05D9
:100F000003D5226C42F001022264420705D5DA07BC
:100F100003D0226C42F002022264820705D5DA0770
:100F200003D0226C42F004022264020707D501F0CC
:100F30002002324303D0226C42F008022264226C69
:100F4000002A34D0800604D5880602D5204600F059
:100F5000F9FA20684069216CC0F38010090700D4B9
:100F600030B3204600F0D6FA2068416949061BD507
:100F7000416921F040014161A06BA8B1584941632A
:100F8000A06BFFF789F9002811D0A06B416B01B06D
:100F9000BDE8F040084783060FD58B060DD52046E7
:100FA000BDE8F84000F0CEBA2046FFF793FFF8BD49
:100FB0002046FFF78FFF2564F8BD266B2023012E06
:100FC00052D1C60650D5CE064ED510685068009056
:100FD000506940062AD5A16B086840680004000CDF
:100FE000EAD0A68D8642E7D9E0858869202818D006
:100FF000D06820F48070D0602068416921F0010140
:1010000041612068416921F04001416184F83E302E
:1010100025632068C16821F01001C160A06BFFF753
:1010200017F9A08DE18D401A81B219E0A08DE18DF4
:10103000401A81B2E08D0028BED00029BCD0D06813
:1010400020F49070D0602068426922F00102426171
:1010500084F83E3025632068C26822F01002C26026
:101060002046FFF736FFF8BD05062BD50D0629D51E
:1010700094F83D002128F6D1A068B0F5805F01D139
:101080002069B0B1206A411C216221680078486063
:10109000E08C401E0004000CE084E4D12068C168AC
:1010A00021F08001C1602068C16841F04001C16049
:1010B000F8BD206A0088C0F308005060206A801CD8
:1010C0002062E5E74006F3D54806F1D5D168204611
:1010D00021F04001D16084F83D3000F004F9F8BD02
:1010E0000515000870B5040004D094F83D000025F3
:1010F00010B106E0012070BD84F83C50204600F09D
:1011000023F8242084F83D002068C16821F40051B0
:10111000C160204600F072FA2068016921F4904114
:1011200001612068416921F02A0141612068C1689C
:1011300041F40051C1602564202084F83D0084F80A
:101140003E00002070BD000030B585B00024009442
:101150000194029403940068184988422CD11848DD
:10116000816941F480418161816901F48041049188
:10117000816941F0040181618069124D00F0040031
:1011800004904FF40070009002200190032003901F
:1011900069462846FFF718F92815CDE90004694685
:1011A00028460294FFF710F9002207212520FFF7B7
:1011B0009BFA2520FFF78AFA05B030BD00380140C0
:1011C000001002400008014090F83E30202B0ED164
:1011D00059B152B190F83C30012B08D0012380F86E
:1011E0003C300023036300F065BA01207047022001
:1011F0007047000010B500680B49884213D14FF4C6
:101200007A73012209490A4800F014F80848006876
:101210000168C9434906FBD4BDE8104001220349D7
:101220000348FFF7D1BF10BD003801400C0000207B
:10123000980000202DE9F843044690F83D001F4631
:1012400016460D4620284CD1C5B1BEB194F83C00DD
:10125000012846D0012084F83C004FF00008C4F873
:101260004080212084F83D00FFF7B8F9A68481462C
:10127000E684A068B0F5805F03D004E00120BDE8FB
:10128000F883206928B12E465FF0000584F83C8081
:101290000EE00026FAE78021204600F026FAA0B9E9
:1012A000AEB116F8010B21684860E08C401EE08466
:1012B000E08C4B464FF0000200970028EBD14FF036
:1012C0004001204600F011FA30B10320D7E735F88D
:1012D000020BC0F30800E6E7202084F83D00002060
:1012E000CDE70220CBE77047FEE700002DE9F04193
:1012F00086B00025274800950195029503958169E0
:1013000041F040018161816901F0400104918169EE
:1013100041F004018161816901F004010491816956
:1013200041F00801816180691B4F00F008000490C2
:10133000012220213846FFF74BF9DFF860800122B7
:1013400020214046FFF744F91C20CDE90005012487
:10135000694602943846FFF737F82026CDE9006445
:101360000294694638460394FFF72EF80220009451
:10137000CDE9015069460A48FFF726F8CDE9006437
:101380000294694640460394FFF71EF806B0BDE894
:10139000F08100000010024000180140000C0140E4
:1013A000000801400C4810B50A4901604FF4E131D2
:1013B0004160002181600C22C160C0E9041281619A
:1013C000C161FFF78FFE002803D0BDE81040FEF793
:1013D0003DBF10BD0038014098000020FEE7FEE749
:1013E00010B5502080F31188BFF34F8FBFF36F8F7C
:1013F00000F0FEFF18B104494FF080500860002053
:1014000080F3118810BD000004ED00E030B58FB00E
:1014100028216846FEF7FBFE14210AA8FEF7F7FE16
:1014200001210804CDE90010002402940225049152
:10143000CDE907504FF4E01009906846FFF792FAA3
:1014400008B172B6FEE70F20CDE90A054FF48060BF
:10145000CDE90C4002210AA80E94FFF777F9002885
:1014600001D072B6FEE70FB030BD70470148FFF7FC
:1014700070BC0000DC000020F0B502681C4B1D4D64
:101480001D4E1E4F1E4C4FF0804C984209D0A0427A
:1014900007D0604505D0A84203D0B04201D0B84281
:1014A00004D122F0700E4A6842EA0E02984209D036
:1014B000A04207D0604505D0A84203D0B04201D079
:1014C000B84203D122F44075CA682A434D6922F01C
:1014D00080022A4302608A68C2620A688262984275
:1014E00001D0A04201D10969016301214161F0BD30
:1014F000002C01400004004000080040000C0040A7
:101500000034014010B5406A0021C185C184FFF755
:10151000E1FC10BD0168CA6822F49072CA600168DB
:101520004A6922F001024A61016B012904D1016874
:10153000CA6822F01002CA60202180F83E10002103
:101540000163704708B590F83E10222901D00220AF
:1015500008BD82684FF480539A4201D1016921B1DC
:10156000816A9A421BD04AB10AE00268816A5268D5
:10157000C2F308020A80816A891C08E0026972B11C
:101580000268526802F07F020A70816A491C816217
:10159000C18D491E0904090CC18503D019E00268F8
:1015A0005268F1E70168CA6822F02002CA60016847
:1015B000CA6822F48072CA6001684A6922F0010296
:1015C0004A61202180F83E10016B012903D0FFF70A
:1015D00011FE002008BD002101630168CA6822F0E5
:1015E0001002CA6001680A68D20602D50A68496812
:1015F0000091818DFFF76DFCEBE7000070B50446AC
:1016000000680169E26821F44051114301612169D8
:10161000A0680843616908432168CA6841F20C6305
:101620009A430243CA6020684169A26921F440716B
:10163000114341611E492068884202D1FFF74CF9ED
:1016400001E0FFF739F900EBC00101EB001260681F
:1016500064218000B2FBF0F3B3FBF1F36FF01806E6
:101660007343B2FBF0F5B2FBF0F605EB83053223D2
:1016700003EB0515B5FBF1F5B6FBF1F605F0F0054A
:1016800005EB0615B2FBF0F6B2FBF0F0B0FBF1F0A3
:101690006FF01802504306EB800003EB0010B0FB24
:1016A000F1F0216800F00F002844886070BD000050
:1016B0000038014081628285C285002101642222B6
:1016C00080F83E2080F83C100168CA6842F48072BD
:1016D000CA6001684A6942F001024A610068C16853
:1016E00041F02001C160002070472DE9F04198468B
:1016F00017460E460446069D1DE0681C1BD02DB102
:10170000FEF76CFFA0EB0800A84214D92068C1685E
:1017100021F4D071C1602068416921F0010141616B
:10172000202084F83D0084F83E00002084F83C002E
:101730000320BDE8F0812068006836EA000004D08C
:101740000020B842D9D00020F3E70120F9E70000DB
:101750000148FFF7C1BB000098000020FEE7000031
:101760000FB4054B10B503A9044A029800F027F8FE
:1017700010BC5DF814FB00005D190008100000208B
:101780000907090E002804DB00F1E02080F80014AE
:10179000704700F00F0000F1E02080F8141D704742
:1017A00002E008C8121F08C1002AFAD1704770472A
:1017B000002001E001C1121F002AFBD170472DE972
:1017C000F84F9946924688460546002706E02528A8
:1017D0000AD051464A4690476D1C7F1C2878002845
:1017E000F5D13846BDE8F88F002315F8011F1846DB
:1017F0002E2915D115F8011F04232A290DD06FF0C9
:101800002F022978A1F13004092C09D800EB8000BF
:1018100002EB400008446D1CF3E758F8040B6D1C04
:101820002A78002ADDD0632A07D0732A0FD0104609
:1018300051464A4690477F1C2AE018F8042B8DF841
:10184000002000218DF801106E46012103E058F8B8
:10185000046B4FF0FF315A074FF0000401D409E048
:10186000641C84420BDA8C42FADB325D002AF7D129
:1018700005E0641C8C42FCDB305D0028F9D1274474
:1018800004E016F8010B51464A469047641EF8D210
:101890006D1CA3E70C480E4A01680C48B1FBF0F33D
:1018A000B1FBF0F1536001234FF47A7041434FF0E4
:1018B000E0201380026942F0020202614161016985
:1018C00041F00101016170472000002040420F00FB
:1018D0009000002070B5044600F07CFD01280CD07B
:1018E000094D2888844203D3B4FBF0F000F0F6FBE6
:1018F0002888B4FBF0F100FB11444FF47A70604388
:10190000BDE8704000F002B89000002070B54FF0C4
:10191000E024002265690949A36949684843A1692F
:101920009942FCD002D2A3EB010302E0A5EB010631
:1019300033441A440B468242F1D370BD900000201C
:1019400070B5054600244FF47A7603E03046FFF781
:10195000DDFF641CAC42F9D370BD000004490A6885
:101960005206FCD5024AC1B2121D11607047000038
:1019700000380140134C144F002541F288364FF4D3
:101980007A782068401C2060052812D10FA0FFF74C
:10199000E7FE502080F31188BFF34F8FBFF36F8FA6
:1019A0003046FFF7CDFF0FA0FFF7DAFE256085F385
:1019B000118820213846FEF703FE4046FFF78AFFD4
:1019C000DFE700000000002000180140B9D8B1D5C1
:1019D000D6D0B6CF2E2E2E2E2E2E2E2E2E2E2E2EB4
:1019E0002E0D0A00B4F2BFAAD6D0B6CF2E2E2E2EC0
:1019F0002E2E2E2E2E2E2E2E2E0D0A001CB5FEF76C
:101A0000FBFDFFF703FDFFF771FCFFF7CBFCFFF7D2
:101A100041FF012208490948FFF7D6FB0849012088
:101A2000CDE900010023802206A1094800F0A6FCB0
:101A300000F0DAFB00201CBD0C0000209800002004
:101A40000400002073746172745F7461736B000032
:101A5000F91E00082DE9F0411E4C0F460546E668C8
:101A60002068001D00F06AFA38B9206890F82C1040
:101A700001208840216981432161681C15D1A7B1EB
:101A8000154922684868906023688268DA60226895
:101A90008368121D5A602268121D826020684161AD
:101AA0000868401C0860BDE8F08120683544B542F4
:101AB0004560216805D2E06BBDE8F041091D00F0EA
:101AC0005EBAA06B091D00F05AFAA06A8542EAD2FC
:101AD000A562E8E724000020D80100202DE9F041AC
:101AE000054600F071FA364CA068401CA0602068E2
:101AF000344F10B1606940B32DE02560A068012823
:101B000029D1002606EB860007EB800000F029FAB9
:101B1000761C052EF6D32B48643000F022FA2948B3
:101B2000783000F01EFA27488C3000F01AFA254869
:101B3000A03000F016FA2348B43000F012FA214821
:101B40006430A0631430E06305E02068E96AC06A8D
:101B5000884200D82560606A0121401C6062E86A02
:101B6000226981401143216100EB800007EB800076
:101B70004068A8608168E9608268291D51608160C1
:101B8000E86A00EB800007EB8001696157F82010DC
:101B9000491C47F8201000F03BFA606900280CD07F
:101BA0002068E96AC06A884207D207494FF080502E
:101BB0000860BFF34F8FBFF36F8FBDE8F081000067
:101BC000240000202401002004ED00E010B50446AC
:101BD000006B00F037FA2046BDE8104000F032BA42
:101BE00010484FF44051420706D0C01D0D4920F067
:101BF0000700411AC1F540510B4A00230144C2E9D4
:101C000000030839183A21F0070111604B600B609E
:101C10000B1AC0E9001393604FF00040536050610D
:101C200070470000EC01002088000020144E154C85
:101C3000A6F1A0074FF08058DFF84C9012E000BFEB
:101C400000F0C2F9F068C568281D00F077F9A068B7
:101C5000401EA0606068401E606000F0D9F9284610
:101C6000FFF7B4FF60680028EAD138680128F9D985
:101C7000C9F80080BFF34F8FBFF36F8FF2E700000A
:101C8000C40100202400002004ED00E02DE9F05FF5
:101C9000DDE90B940E4683466FF00301206B01EBE8
:101CA000820108440A9F20F007089A465FEA4870BC
:101CB00003D01C491CA0FFF753FD002566B100208E
:101CC0002218315C82F83410315C11B1401C1028AC
:101CD000F6D384F8435001E084F83450052F04D340
:101CE000144911A0FFF73CFD0427201DE76200F016
:101CF00043F904F1180000F03FF92461C7F1050031
:101D00006462A061656484F8485052465946404672
:101D100000F0E0F82060B9F1000F01D0C9F80040F0
:101D2000BDE8F09FDC2600084572726F723A257399
:101D30000D0A00008C28000830B5114900E011465A
:101D40000A688242FBD34B685C18844203D1406826
:101D500018444860084643681C18944209D1084C4E
:101D6000183C2468A24209D052681A4442600A68AA
:101D700012680260814200D0086030BD0460F9E75B
:101D8000880000200548816B096821B1816BC96812
:101D90000968816270474FF0FF31FAE724000020A4
:101DA00007484068401C03D0064907A0FFF7D8FC4D
:101DB000502080F31188BFF34F8FBFF36F8FFEE782
:101DC00064000020A02A00084572726F723A2573E1
:101DD0000D0A00002DE9F0410546002600F03CFA0E
:101DE000354F386808B9FFF7FBFE7869054257D1CF
:101DF000002D55D005F10804AC4251D960070DD033
:101E000004F00700C0F108002044A04248D904466D
:101E1000400703D029492AA0FFF7A2FCECB3786859
:101E200084423DD82448183001460D6801E0284618
:101E30000D466968A14202D229680029F7D13968A4
:101E4000B8468D422CD0066829680160686808365B
:101E5000001B10280DD92F19780703D01B4918A093
:101E6000FFF77EFC6868001B786038466C60FFF7FF
:101E700063FF6A68D8F804104046891AC8F804104D
:101E8000D8F80830994200D2816041690A430021A4
:101E9000C5E90012C168491C00E001E0C8F80C1057
:101EA00000F046FB700703D0094905A0FFF758FC76
:101EB0003046BDE8F081000070000020D82C0008FA
:101EC0004572726F723A25730D0A0000542C000897
:101ED0004C2D000810B5031F4FF080741C601B1FB1
:101EE00021F001011960191F024B0B6014394038B1
:101EF0000A6010BDA11D00081CB500F065F8094975
:101F00000220CDE900010023802207A10A4800F049
:101F100035FA04480838406800F00AF9BDE81C406A
:101F200000F076B808000020696E746572727570F2
:101F3000745F7461736B000075190008D0E9013299
:101F400001699A60D0E901235A604A68824201D14E
:101F500082684A60002202610868401E08600868C2
:101F6000704700F108014FF0FF32C0E90112C16073
:101F7000016100210160704700210161704730B5A7
:101F80000B685A1C02D000F1080202E0026904E06A
:101F90002246546825689D42FAD953684B6099607F
:101FA0008A60516008610168491C016030BD426867
:101FB0004A6093688B60936859609160086101681A
:101FC000491C016070470000502080F31188BFF366
:101FD0004F8FBFF36F8F08494868401C4860012845
:101FE00008D10648006810F0FF0F03D0044905A08F
:101FF000FFF7B6BB704700006400002004ED00E06E
:10200000242A00084572726F723A25730D0A000087
:1020100010B5074C606818B9064907A0FFF7A0FB88
:102020006068401E606001D180F3118810BD00001F
:1020300064000020882B00084572726F723A257385
:102040000D0A000070B5002829D0154DA0F1080434
:1020500060686969084203D1124913A0FFF780FB49
:10206000206818B1134910A0FFF77AFB616868690E
:10207000014214D02268002A11D18143616000F02E
:10208000EBF860686968084468602046FFF754FE12
:102090002869401C2861BDE8704000F049BA70BD55
:1020A00070000020E02B00084572726F723A2573B1
:1020B0000D0A0000D82D00084FF0E020002101613A
:1020C000816105494FF47A720968B1FBF2F1491E4A
:1020D00041610721016170472000002010B5040014
:1020E00010D00D48406B18B10C490DA0FFF738FB1C
:1020F00000F0B2F800212046FFF7ACFC00F018FA1F
:10210000002807D109494FF080500860BFF34F8F76
:10211000BFF36F8F10BD0000240000207827000857
:102120004572726F723A25730D0A000004ED00E0EB
:1021300070B50546FFF748FF244C05B92568281DF2
:10214000FFF7FCFE58B9E86A214A00EB800152F81B
:10215000211021B901218140206988432061A86AAA
:1021600018B105F11800FFF7E9FE606A401C6062D3
:102170002068854208D11648291DA030FFF717FFB7
:102180006068401C606004E0A068401EA060FFF72B
:10219000F9FDFFF73DFF2068854202D02846FFF792
:1021A00015FD6069002810D0206885420DD1606B54
:1021B00018B1084908A0FFF7D3FA0A494FF0805038
:1021C0000860BFF34F8FBFF36F8F70BD24000020F6
:1021D00024010020C42700084572726F723A2573EB
:1021E0000D0A000004ED00E07CB513480025CDE9A0
:1021F00000502B46802211A1124800F0BFF80E4C6F
:102200002C3C012802D0401C14D10FE0502080F358
:102210001188BFF34F8FBFF36F8F4FF0FF30A06275
:1022200001206061E56000F051F803E0064907A075
:10223000FFF796FA206B7CBD5000002049444C45C6
:10224000000000002D1C0008E02800084572726F95
:10225000723A25730D0A00000248416B491C416324
:10226000704700002400002070B5124C606B10B164
:102270000120E06170BD0020E06120690E4EB0FADF
:1022800080F0C0F11F0000EB800556F8250018B95A
:102290000A490BA0FFF764FA06EB850000F108027B
:1022A000416849684160914201D149684160C8680C
:1022B000206070BD240000202401002010280008A8
:1022C0004572726F723A25730D0A00007CB5234D7A
:1022D00028780190FF20287028788DF800009DF85C
:1022E00000009DF8001000F0F000884203D01C4967
:1022F0001CA0FFF735FA9DF800001D4C00F05000BF
:1023000020700720A06005E09DF8001049008DF8BE
:102310000010401E9DF800100906F5D4A0600328A7
:1023200003D014490FA0FFF71BFA207A000200F433
:10233000E060A060019828700F48016841F47001C6
:102340000160016841F070410160FFF7B5FE0020B7
:102350006060FDF709FF00207CBD000000E400E0A4
:102360008C2900084572726F723A25730D0A0000BD
:1023700064000020002B000820ED00E02DE9FF5F45
:102380008346DDE90E87994616468A469000FFF798
:1023900021FD05001AD04C20FFF71CFD040012D0CF
:1023A00025630021CDE90241CDE900874B46324645
:1023B00051465846FFF76AFC2046FFF78FFB012085
:1023C00004B0BDE8F09F2846FFF73CFE4FF0FF3019
:1023D000F6E700000548416919B1406B18B10020CB
:1023E0007047012070470220704700002400002041
:1023F0002DE9F041484C0026606B28B1A069401CD3
:10240000A0613046BDE8F081E5686D1CE5600FD144
:10241000A06B006818B1414941A0FFF7A1F9A06B7A
:10242000E16BA163E063206A401C2062FFF7AAFC15
:10243000A16A3E488D420FD34FF0000EA16B096890
:1024400039B1A16BC968C9684A68954212D2A262C3
:1024500002E04FF0FF31A1622168C96A01EB8101FE
:1024600050F82100012800D90126E0690028C8D0D1
:102470000126C6E7D1E902724B69BA60D1E90227A9
:102480007A605F680A1D974201D1CF685F60C1F82A
:1024900014E01F687F1E1F60D1F828C0BCF1000F38
:1024A00015D0D1E907379F60D1E907377B60DCF8A9
:1024B000047001F118039F4202D10B6ACCF804307A
:1024C000C1F828E0DCF800305B1ECCF80030CB6AA5
:1024D0000127D4F810C09F4047EA0C07276103EB9F
:1024E000830300EB83035B688B609F68CF609F680A
:1024F0007A609A60CA6A02EB820200EB82034B6147
:1025000050F822305B1C40F82230C96A2268D26A37
:10251000914293D3012691E7240000207C260008F5
:102520004572726F723A25730D0A00002401002073
:102530002DE9F041444D00242746686B18B9434902
:1025400043A0FFF70DF9FFF73FFD686B401E68637E
:10255000686B002872D1A868404B00264FF0010834
:10256000F0BB6BE0D868C468D4E90721A06A916029
:10257000D4E907125160426804F118018A4201D17E
:10258000216A4160A6620168491E0160D4E9022106
:1025900060699160D4E9021251604268211D8A424B
:1025A00001D1E268426066610268521E0260E26A1E
:1025B000D5F810C008FA02F040EA0C00286102EBDE
:1025C0008200264A8C3A02EB80004068A060D0F876
:1025D00008C0C4F80CC0D0F808C0CCF8041000E063
:1025E00012E08160E06A00EB800002EB8001616133
:1025F00052F82010491C42F82010E06A2968C96A84
:10260000884201D3C5F81C8018680028AAD10CB1F3
:10261000FFF7B8FBAC693CB1FFF7EAFE08B1C5F8BB
:102620001C80641EF8D1AE61E86938B10C490127FD
:1026300038070860BFF34F8FBFF36F8FFFF7E8FCD9
:102640003846BDE8F081000024000020442900083D
:102650004572726F723A25730D0A0000B0010020B6
:1026600004ED00E00000000000000000010203048F
:102670000607080900000000010203042E2E5C4D2D
:102680006964646C6577617265735C5468697264CF
:102690005F50617274795C4672656552544F535C49
:1026A0007461736B732E633A323735392028206C8E
:1026B0006973744C4953545F49535F454D505459A5
:1026C0002820707844656C617965645461736B4C43
:1026D000697374202920290A000000002E2E5C4D09
:1026E0006964646C6577617265735C54686972646F
:1026F0005F50617274795C4672656552544F535CE9
:102700007461736B732E633A383634202820282086
:102710002820706F7274504F494E5445525F534990
:102720005A455F545950452029207078546F704F96
:1027300066537461636B2026202820706F7274507A
:102740004F494E5445525F53495A455F545950457D
:10275000202920706F7274425954455F414C49479B
:102760004E4D454E545F4D41534B2029203D3D2059
:1027700030554C20290A00002E2E5C4D6964646C93
:102780006577617265735C54686972645F506172E9
:1027900074795C4672656552544F535C7461736B17
:1027A000732E633A3133353320757853636865642B
:1027B000756C657253757370656E646564203D3D1C
:1027C00020300A002E2E5C4D6964646C657761725E
:1027D00065735C54686972645F50617274795C46B9
:1027E00072656552544F535C7461736B732E633A18
:1027F000313234342075785363686564756C657262
:1028000053757370656E646564203D3D20300A0029
:102810002E2E5C4D6964646C6577617265735C54DF
:10282000686972645F50617274795C467265655262
:10283000544F535C7461736B732E633A3330373487
:10284000206C69737443555252454E545F4C495342
:10285000545F4C454E475448282026282070785213
:10286000656164795461736B734C697374735B2035
:102870007578546F705072696F72697479205D2039
:10288000292029203E20300A000000002E2E5C4D19
:102890006964646C6577617265735C5468697264BD
:1028A0005F50617274795C4672656552544F535C37
:1028B0007461736B732E633A3931392075785072B5
:1028C000696F72697479203C20636F6E6669674D29
:1028D00041585F5052494F5249544945530A0000EC
:1028E0002E2E5C4D6964646C6577617265735C540F
:1028F000686972645F50617274795C467265655292
:10290000544F535C7461736B732E633A32313132BE
:10291000207852657475726E20213D206572724375
:102920004F554C445F4E4F545F414C4C4F434154C4
:10293000455F52455155495245445F4D454D4F52B3
:10294000590A00002E2E5C4D6964646C65776172D3
:1029500065735C54686972645F50617274795C4637
:1029600072656552544F535C7461736B732E633A96
:10297000323232372075785363686564756C6572DE
:1029800053757370656E6465640A00002E2E5C4D8D
:102990006964646C6577617265735C5468697264BC
:1029A0005F50617274795C4672656552544F535C36
:1029B000706F727461626C655C525644535C415234
:1029C0004D5F434D335C706F72742E633A3238370B
:1029D0002075634D61785072696F726974795661C0
:1029E0006C7565203D3D202820636F6E6669674BDE
:1029F00045524E454C5F494E544552525550545FD6
:102A00005052494F5249545920262075634D6178E0
:102A10005072696F7269747956616C756520290A04
:102A2000000000002E2E5C4D6964646C6577617255
:102A300065735C54686972645F50617274795C4656
:102A400072656552544F535C706F727461626C654D
:102A50005C525644535C41524D5F434D335C706F42
:102A600072742E633A333731202820706F72744E9F
:102A70005649435F494E545F4354524C5F52454759
:102A8000202620706F727456454354414354495672
:102A9000455F4D41534B2029203D3D20300A000029
:102AA0002E2E5C4D6964646C6577617265735C544D
:102AB000686972645F50617274795C4672656552D0
:102AC000544F535C706F727461626C655C52564413
:102AD000535C41524D5F434D335C706F72742E6393
:102AE0003A323036207578437269746963616C4E8E
:102AF000657374696E67203D3D207E30554C0A0039
:102B00002E2E5C4D6964646C6577617265735C54EC
:102B1000686972645F50617274795C46726565526F
:102B2000544F535C706F727461626C655C525644B2
:102B3000535C41524D5F434D335C706F72742E6332
:102B40003A333136202820706F72744D41585F50EF
:102B5000524947524F55505F42495453202D2075DA
:102B60006C4D617850524947524F555056616C75C3
:102B7000652029203D3D20636F6E6669675052498C
:102B80004F5F424954530A002E2E5C4D6964646CB9
:102B90006577617265735C54686972645F506172D5
:102BA00074795C4672656552544F535C706F7274F1
:102BB00061626C655C525644535C41524D5F434DBB
:102BC000335C706F72742E633A33373820757843F4
:102BD0007269746963616C4E657374696E670A002B
:102BE0002E2E5C4D6964646C6577617265735C540C
:102BF000686972645F50617274795C46726565528F
:102C0000544F535C706F727461626C655C4D656D9E
:102C10004D616E675C686561705F342E633A32396E
:102C20003220282070784C696E6B2D3E78426C6F94
:102C3000636B53697A6520262078426C6F636B4121
:102C40006C6C6F6361746564426974202920213D56
:102C500020300A002E2E5C4D6964646C65776172C9
:102C600065735C54686972645F50617274795C4624
:102C700072656552544F535C706F727461626C651B
:102C80005C4D656D4D616E675C686561705F342E8B
:102C9000633A3230372028202820282073697A654B
:102CA0005F7420292070784E6577426C6F636B4C9F
:102CB000696E6B2029202620706F7274425954452A
:102CC0005F414C49474E4D454E545F4D41534B205B
:102CD00029203D3D20300A002E2E5C4D6964646C35
:102CE0006577617265735C54686972645F50617284
:102CF00074795C4672656552544F535C706F7274A0
:102D000061626C655C4D656D4D616E675C686561A7
:102D1000705F342E633A3135362028207857616E43
:102D200074656453697A65202620706F7274425905
:102D300054455F414C49474E4D454E545F4D4153BC
:102D40004B2029203D3D20300A0000002E2E5C4DF6
:102D50006964646C6577617265735C5468697264F8
:102D60005F50617274795C4672656552544F535C72
:102D7000706F727461626C655C4D656D4D616E67FC
:102D80005C686561705F342E633A323732202820E8
:102D90002820282073697A655F7420292070765274
:102DA000657475726E2029202620282073697A6543
:102DB0005F74202920706F7274425954455F414CF2
:102DC00049474E4D454E545F4D41534B2029203DC0
:102DD0003D20300A000000002E2E5C4D6964646CBA
:102DE0006577617265735C54686972645F50617283
:102DF00074795C4672656552544F535C706F72749F
:102E000061626C655C4D656D4D616E675C686561A6
:102E1000705F342E633A3239332070784C696E6BB0
:102E20002D3E70784E65787446726565426C6F63AE
:102E30006B203D3D204E554C4C0A00005C2E000896
:102E40000000002098000000A0170008F42E0008E1
:102E50009800002058350000B0170008000000005E
:102E60000000000000000000000000000000000062
:102E70000100000010000000000000000024F40029
:102E80000000000000000000000000000000000042
:102E90000000000000000000000000000000000032
:102EA0000000000000000000000000000000000022
:102EB000040000000000000000000000000000000E
:102EC00000000000AAAAAAAA00000000000000005A
:102ED00000000000000000000000000000000000F2
:102EE00000000000000000000000000000000000E2
:042EF00000000000DE
:0400000508000131BD
:00000001FF
